:020000021000EC
:10200000A86D00208DF0010085F1010085F101002F
:1020100000000000000000000000000000000000C0
:10202000000000000000000000000000257B01000F
:102030000000000000000000417C0100897C0100DC
:1020400085F1010085F1010085F1010055C1010014
:1020500085BD010085F10100092E010085F1010017
:102060004D2F0100F9C7010011C8010029C8010066
:1020700041C8010059C8010071C80100D5EF010035
:10208000E9EF0100FDEF01001158010025580100A2
:10209000395801000000000000000000912C0100F0
:1020A00085F10100CD2D010085F1010085F10100D0
:1020B0000000000010B5064C2378002B07D1054B1B
:1020C000002B02D0044800E000BF0123237010BDA4
:1020D0002002002000000000E0480200084B10B57C
:1020E000002B03D00749084800E000BF07480368F9
:1020F000002B00D110BD064B002BFBD09847F9E711
:102100000000000024020020E0480200E048020035
:102110000000000080B500AFC046BD4680BD80B560
:1021200000AFC046BD4680BD80B500AF254B984787
:10213000254B9847AE20254B9847D520234B9847F1
:102140008020224B9847A820204B98472F201F4BD8
:102150009847D3201D4B984700201C4B98474020A0
:102160001A4B98478D20194B98471420174B9847C6
:10217000A620164B9847A420144B9847A120134B38
:102180009847C820114B9847DA20104B98471220E7
:102190000E4B984781200D4B98478F200B4B98474B
:1021A000D9200A4B9847F120084B9847DB20074B72
:1021B00098474020054B9847AF20044B9847C046AE
:1021C000BD4680BD1F21010015210100D121010064
:1021D00080B584B000AF0200FB1D1A700C23FB1801
:1021E00000221A700C23FB18FA1D12785A700C4B3F
:1021F0003C221A700A4B0C22BA185A60084B022271
:10220000DA81074B00229A60054B00229A81044B29
:1022100064211800034B9847C046BD4604B080BDFA
:10222000103B0020F144010080B584B000AF0200F3
:10223000FB1D1A700C23FB1840221A700C23FB188C
:10224000FA1D12785A700C4B3C221A700A4B0C2261
:10225000BA185A60084B0222DA81074B00229A60B2
:10226000054B00229A81044B64211800034B9847C8
:10227000C046BD4604B080BD103B0020F1440100C3
:1022800080B582B000AF7860034B7A681A60C046B0
:10229000BD4602B080BDC0463C02002090B583B070
:1022A00000AF040008001100FB1D221C1A70BB1DAA
:1022B000021C1A707B1D0A1C1A70084B1A68FB1D41
:1022C0001B789B011900BB1D1B78CB18D3187A1DF6
:1022D00012781A70C046BD4603B090BD3C02002083
:1022E00080B582B000AF0200FB1D1A70BB1D0A1C36
:1022F0001A70074B1A68FB1D1B789B011900BB1D48
:102300001B78CB18D3181B781800BD4602B080BDCF
:102310003C020020B0B584B000AF05000C001000F6
:102320001900FB1D2A1C1A70BB1D221C1A707B1D74
:10233000021C1A703B1D0A1C1A70FB1D1A787B1DAB
:102340001B78D318402B05DD7B1DFA1D1278402128
:102350008A1A1A700F23FB18BA1D1278D2081A7045
:10236000BB1D1A780F23FB181B78DB00D31A012240
:102370009A400E23FB181A707B1D1B78002B00D18E
:10238000A4E03B1D1B78012B2FD0022B00D195E040
:10239000002B61D09BE0FA1D7B1D12781B78D318AF
:1023A000DAB20D23FC180F23FB181B78110018005C
:1023B000484B9847030023700D23FB180D22B918D2
:1023C0000E22BA18097812780A431A70FA1D7B1D7A
:1023D00012781B78D318D9B20D23FB181A780F2363
:1023E000FB18187800233C4CA0477B1D1B787A1DF6
:1023F000591E1170002BCED169E0FA1D7B1D127899
:102400001B78D318DAB20D23FC180F23FB181B78A6
:10241000110018002F4B9847030023700E23FB1860
:102420001B785BB2DB435BB20D22BA18127852B252
:1024300013405AB20D23FB181A70FA1D7B1D127837
:102440001B78D318D9B20D23FB181A780F23FB1869
:1024500018780023204CA0477B1D1B787A1D591E3D
:102460001170002BC9D132E0FA1D7B1D12781B7848
:10247000D318DAB20D23FC180F23FB181B781100B8
:102480001800144B9847030023700D23FB180D22EE
:10249000B9180E22BA18097812784A401A70FA1D33
:1024A0007B1D12781B78D318D9B20D23FB181A782C
:1024B0000F23FB1818780023074CA0477B1D1B78BF
:1024C0007A1D591E1170002BCED100E0C046BD46CA
:1024D00004B0B0BD8D2A0100ED290100B0B582B075
:1024E00000AF05000C0010001900FB1D2A1C1A701B
:1024F000BB1D221C1A707B1D021C1A703B1D0A1C7E
:102500001A703B1D1B78002B18D00FE0BA1D3B1D25
:1025100012781B78D318D9B21823FB181C787B1DAE
:102520001A78FB1D18782300064CA0473B1D1B782A
:102530003A1D591E1170002BE8D100E0C046BD467F
:1025400002B0B0BD1523010090B587B000AF040004
:10255000080011003B60FB1D221C1A70BB1D021CF1
:102560001A707B1D0A1C1A701023FB18BA1D1278F2
:102570001A700F23FB187A1D12781A703B681A7AAA
:102580001323FB18D2081A703B681B7A07221340EA
:10259000DBB2002B06D01323FB181A781323FB1889
:1025A00001321A701323FB181B789BB23A68527AD7
:1025B00092B253439AB2FB1D1B783968897A5B1A31
:1025C00099B20C23FB184A431A803B685A680C23C3
:1025D000FB181B88D3187B611223FB183A68527AC8
:1025E0001A700E23FB1800221A700B23FB183A688E
:1025F000127A1A701123FB1800221A7034E011238A
:10260000FB181B7807221340DBB2002B07D10E23E7
:10261000FB187A6912781A707B6901337B610E238B
:10262000FB181B785BB2002B09DA0F23FB18197813
:102630001023FB181B78012218001D4B984710230C
:10264000FB181022BA18127801321A700E23FA18E9
:102650000E23FB181B78DB1813701123FB181A7854
:102660001123FB1801321A701123FA180B23FB18DF
:1026700012781B789A42C2D30F23FB180F22BA1884
:10268000127801321A701023FB18BA1D12781A70D2
:102690001223FB181A781223FB18013A1A7012231E
:1026A000FB181B78002B9CD1C046BD4607B090BDDF
:1026B000F928010090B585B002AF040008001100B0
:1026C0003B60FB1D221C1A70BB1D021C1A707B1D77
:1026D0000A1C1A703B681A7A3B685C7A7B1D197871
:1026E000BB1D18780023009323000B4CA0473B68C8
:1026F0001B78002B00D00AE03C687B1D1A78BB1DBC
:102700001978FB1D18782300044CA047C046C0462A
:10271000BD4603B090BDC046DD240100492501003F
:1027200090B587B000AFF860080011007B600B2304
:10273000FB18021C1A700A23FB180A1C1A701723B4
:10274000FB180B22BA1812781A70FB681B780A2B38
:1027500011D10B23FB181722BA1812781A707B6854
:102760005A7A0A23FB181B78D318DAB20A23FB180B
:1027700001321A7018E0FB681B780D2B14D0FB682F
:1027800018787C680A23FB181A780B23FB18197831
:1027900023000B4CA0477B68197A0B23FB180B22F4
:1027A000BA1812788A181A70FB680133FB60FB684C
:1027B0001B78002BC9D1C046BD4607B090BDC046AE
:1027C000B526010080B582B000AF0200FB1D1A7073
:1027D000FB1DFA1D12780F210A401A70FB1D1B7891
:1027E000502252421343DBB21800034B9847C046B5
:1027F000BD4602B080BDC046D121010080B582B087
:1028000000AF0200FB1D1A70FB1DFA1D12787F211C
:102810000A401A70FB1D1B781B09DBB21022134300
:10282000DBB20233DBB21800064B9847FB1D1B7866
:102830000F221340DBB21800024B9847C046BD463A
:1028400002B080BDD121010080B582B000AF02008E
:10285000FB1D1A70FB1DFA1D12783F210A401A70E9
:10286000FB1D1B7840221343DBB21800024B984734
:10287000C046BD4602B080BDD121010090B583B0F5
:1028800000AF184B1800184B9847184B984700207A
:10289000174B9847FB1D00221A701AE0BB1D00223F
:1028A0001A700CE0BB1D1978FB1D1878012300225B
:1028B000104CA047BB1D1A78BB1D01321A70BB1DFE
:1028C0001B785BB2002BEDDAFB1D1A78FB1D013281
:1028D0001A70FB1D1B78052BE0D9C046BD4603B01E
:1028E00090BDC04640020020812201002921010044
:1028F00049280100ED29010090B585B000AF040022
:1029000008001100FB1D221C1A70BB1D021C1A704E
:102910007B1D0A1C1A70FB1D1B783F2B5DD8BB1D4D
:102920001B782F2B59D80E23FB18BA1D1278D2080A
:102930001A70BB1D1A780E23FB181B78DB00D31A04
:1029400001229A400D23FB181A700F23FC18FB1D5F
:102950001A780E23FB181B7811001800214B98479A
:10296000030023707B1D1B78012B04D0022B1DD08C
:10297000002B0BD025E00F23FB180F22B9180D22D6
:10298000BA18097812780A431A701AE00D23FB1856
:102990001B785BB2DB435BB20F22BA18127852B2DB
:1029A00013405AB20F23FB181A700AE00F23FB18CA
:1029B0000F22B9180D22BA18097812784A401A70F5
:1029C000C0460F23FB181A78FB1D19780E23FB183D
:1029D00018780023044CA04700E0C046BD4605B06F
:1029E00090BDC0468D2A0100ED290100B0B582B02E
:1029F00000AF05000C0010001900FB1D2A1C1A7006
:102A0000BB1D221C1A707B1D021C1A703B1D0A1C68
:102A10001A703B1D1B7801225340DBB2002B0DD0F6
:102A2000BB1D1A78FB1D1B7811001800124B98472C
:102A300003001A007B1D1B78934218D07B1D1A7867
:102A4000BB1D1978FB1D1B7818000C4B9847FB1D0C
:102A50001B7818000A4B9847BB1D1B781800094BC0
:102A600098477B1D1B781800074B984700E0C0462D
:102A7000BD4602B0B0BDC046E12201009D2201006A
:102A8000C5270100FD2701002922010080B582B081
:102A900000AF0200FB1D1A70BB1D0A1C1A70BB1D83
:102AA0001A78FB1D1B7811001800034B9847030090
:102AB0001800BD4602B080BDE122010080B584B09F
:102AC00000AF78607B681B68FB60FB685B7EDBB2F5
:102AD0005BB2002B01DA012300E000231800BD46A1
:102AE00004B080BD80B584B000AF78607B681B689F
:102AF000FB60C0467B6818000B4B9847031EF9D15A
:102B0000FB681B7BDBB202221343DAB2FB681A7349
:102B1000C0467B681800044B9847031EF9D1C04695
:102B2000BD4604B080BDC046BD2A010080B584B05A
:102B300000AF78600A00FB1C1A707B681B68FB60A2
:102B4000FB68FA1C12789A75C046BD4604B080BD79
:102B500080B584B000AF0200FB1D1A70FB1D1A780F
:102B6000474B9200D358FB60FB681B681B7EDAB2B0
:102B7000FB681B68DB7DDBB21340DBB2BB60BB686C
:102B80000122134045D0FB681B6801221A76C0461B
:102B9000FB6818003B4B9847031EF9D1FB685B6943
:102BA000991CFA685161FA681268528B92B21A80C5
:102BB000FB681B8B9BB2013B9BB2FA68191C11830B
:102BC000002B08D0FB685B7F002B22D0FB6818002D
:102BD0002D4B98471DE0FB68012118002B4B9847AF
:102BE000FB681B7FDBB2052B13D1FB6800221A7731
:102BF000FB68DB7E1A00012313400AD0FB689B7E32
:102C00001A000123134004D0FB689B68FA68100087
:102C10009847BB680422134014D0FB681B68042249
:102C20001A76FB68DB7E1A00022313400AD0FB6889
:102C30009B7E1A000223134004D0FB68DB68FA680D
:102C400010009847BB680222134014D0FB681B6831
:102C500002221A76FB68DB7E1A00042313400AD096
:102C6000FB689B7E1A000423134004D0FB681B6999
:102C7000FA6810009847C046BD4604B080BDC04603
:102C8000243B0020BD2A0100E52A01002D2B010074
:102C900080B500AF0020024B9847C046BD4680BDBE
:102CA000512B010080B582B000AF0200FB1D1A70ED
:102CB000074AFB1D1B7819001F230B400121994077
:102CC0000B0019008023D150C046BD4602B080BD24
:102CD00000E100E080B584B000AF0200FB1D1A7077
:102CE000FB1D1A78374B9200D358FB60FB681B68BA
:102CF000BB60BB689B79DBB21A00012313400ED086
:102D0000BB6801229A71FB681433002B07D0FB6863
:102D10005B7C002B03D0FB689B6900209847BB6855
:102D20009B79DBB21A000223134047D0BB68022212
:102D30009A71FB689B899BB2002B33D0FB689A6821
:102D4000FB68DB899BB2591C88B2F968C8815B00BB
:102D5000D3181B889AB2BB689A81FB689B899BB287
:102D6000013B9AB2FB689A81FB689B899BB2002B5E
:102D700018D1FB68202200219954BB6802221A71E5
:102D8000BB6802229A7119200F4B9847FB681433D5
:102D9000002B07D0FB689B7C002B03D0FB68DB6912
:102DA00000209847FB681433002B07D0FB681B7C7E
:102DB000002B03D0FB685B6900209847C046BD46E6
:102DC00004B080BD283B0020A52C010080B500AFD9
:102DD0000020024B9847C046BD4680BDD52C01005F
:102DE00080B500AF024B9847C046BD4680BDC04687
:102DF000D9BA010080B500AF024B9847C046BD4626
:102E000080BDC0462DBB010080B586B000AF494BE8
:102E10009847494B1B8C9BB2DAB21723FB180F2142
:102E20000A401A701723FB181A78444B9200D358A3
:102E30003B61414A3B691B780F210B40D9B23F23CC
:102E4000D1543D490F23FB184E228A5C1A703B690E
:102E50001B783B4A1B01D31802331B889BB2BB6013
:102E60003B691B78374A1B01D31802331B889BB27E
:102E70007B60BA687B68D21A3B695A610F23FB18E2
:102E80001B780122134016D02B4A4E230121D15426
:102E90003B6910225A743B691B7C1A0001231340C2
:102EA00042D03B695B68002B3ED03B695B683A6966
:102EB0001000984738E00F23FB181B7802221340BC
:102EC00016D01D4A4E230221D1543B6900225A7468
:102ED0003B691B7C1A000223134025D03B699B6889
:102EE000002B21D03B699B683A69100098471BE092
:102EF0000F23FB181B780422134015D00E4A4E23D3
:102F00000421D1543B6906225A743B691B7C1A0088
:102F10000423134008D03B69DB68002B04D03B69D5
:102F2000DB683A6910009847074B9847C046BD4692
:102F300006B080BDE12D01000048004110040020D2
:102F4000303B0020C0030020F52D010080B582B089
:102F500000AF154B1B697B60144B9B693B60124BA8
:102F60009A683B681A43104B9A60104B104A9A615A
:102F700008E07B685A687B681B68180090477B688C
:102F80009B687B607B68002BF3D1074BDB683B6061
:102F9000054B9B683A68D2431A40034B9A60C0467F
:102FA000BD4602B080BDC0460C00002000040042B7
:102FB000FFFF0F0F80B582B000AF02003960FB1D2C
:102FC0001A70FB1D1B78012B0AD0022B0FD0002B8F
:102FD00014D10E4B0D4A91693A680A439A610FE089
:102FE0000A4B0A4AD1693A680A43DA6108E0074B9A
:102FF000064A116A3A680A431A6201E0172300E0A0
:1030000000231800BD4602B080BDC0460004004049
:1030100080B500AF02210220074B9847074B0122E1
:103020001A70C046054B1B78DBB21A00012313400F
:10303000F8D1C046BD4680BDB52F01000004004256
:1030400080B584B000AF78607B681B68FB60FB686C
:10305000DB69072213405A1E9341DBB21800BD46BC
:1030600004B080BD80B582B000AF7860C0467B6898
:103070001800044B9847031EF9D1C046BD4602B064
:1030800080BDC0464130010080B584B000AF78609B
:103090007B681B68FB60FB681B681B01DB0FDBB2F6
:1030A0001A000B23FB18511E8A411A700823FB18C3
:1030B0007A68528B1A807B689B8B9AB20823FB1824
:1030C0000821791809888A1A1A807B689B8B9BB221
:1030D000013B9AB27B689A830B23FB181B78002B69
:1030E00010D07B68DB7A002B1CD07B689B8B9BB25B
:1030F000012B17D1FB685B688022D2021A43FB6860
:103100005A600FE07B68DB7A002B0BD07B689B8BCF
:103110009BB2002B06D1FB685B688022D2021A4367
:10312000FB685A607B689B8B9BB2002B0ED17B683F
:103130009B7A002B0AD07B6818000E4B9847FB68DF
:103140005B68C02292021A43FB685A607B681800D1
:10315000084B98477B681A6A0823FB181B88D3180A
:10316000FA682821525CD2B21A70C046BD4604B03B
:1031700080BDC0466530010080B584B000AF786086
:103180007B681B68FB60FB685B8B9BB21A000423A7
:10319000134004D07B6825221E21995424E00A2381
:1031A000FB187A68528B1A807B689B8B9AB20A2331
:1031B000FB180A21791809888A1A1A807B689B8B68
:1031C0009BB2013B9AB27B689A837B681800084BDC
:1031D00098477B681A6A0A23FB181B88D3181B7848
:1031E000D9B2FB6828229954BD4604B080BDC046C0
:1031F0006530010080B584B000AF78607B681B68E3
:10320000FB60FB681B7EDBB21A00012313402BD04E
:10321000FB6801221A76FB685B8B9BB21A000223C3
:10322000134004D07B682522412199541CE0FB689F
:103230005B8B9BB21A000423134015D07B682522B8
:10324000182199547B6800229A837B689B7A002B13
:103250000AD07B681800134B9847FB685B68C02254
:1032600092021A43FB685A607B689B8B9AB27B6818
:103270005A837B6825229B5CDBB2052B0ED17B68D1
:1032800024229B5CDBB2002B04D17B681800064B28
:10329000984703E07B681800044B9847C046BD463A
:1032A00004B080BD65300100793101008930010032
:1032B00080B584B000AFF860B960FB1D1A70FB1DCB
:1032C0001B78FA6802339B00D3180433BA681A607B
:1032D000FB681B7EDBB25AB2FB1D1B7801219940B3
:1032E0000B005BB213435BB2DAB2FB681A76C046DE
:1032F000BD4604B080BD000090B587B000AF7860D7
:1033000039607B681B683B613B685A687B681A625E
:103310003B685A887B689A837B68242201219954F0
:103320007B682522052199543B691B681B01DB0F33
:10333000DBB21A000F23FB18511E8A411A703B683A
:103340005B7A002B06D03B689A7A7B6811001800E4
:103350003B4B98470F23FB181B78002B0BD03B6887
:103360005B88012B07D13B695B688022D2021A433C
:103370003B695A6005E03B695B68324A1A403B6929
:103380005A603B681B7A002B45D03B681B885A006B
:103390003B685B7A9B0313431A0080231B021A438A
:1033A0003B695A621723FC187B681800264B984724
:1033B000030023703B695B68224A1A403B695A60EC
:1033C0001723FB181B78002B07D11723FC187B68E9
:1033D00018001E4B9847030023701723FB181B7817
:1033E000002B14D13B6903229A753B681B881B0A8A
:1033F0009BB2782213439BB25A003B685B7A9B03D3
:103400001343012213431A003B695A6212E0172347
:10341000FB181B780FE03B6903229A753B681B88F9
:103420005B0001221A433B685B7A9B0313431A003B
:103430003B695A6200231800BD4607B090BDC046E4
:10344000BD570100FFFFFBFF5F570100015701005F
:1034500080B582B000AF786039607B689B8B9BB28F
:10346000002B01D005230CE07B6801229A727B6857
:103470000122DA723A687B6811001800034B984702
:1034800003001800BD4602B080BDC046F9320100FD
:1034900080B584B000AF786039607B681B68FB60E2
:1034A0003B685B7A002B06D03B689A7A7B681100F8
:1034B00018001E4B9847FB685B681D4A1A40FB6862
:1034C0005A603B685A687B681A623B685A887B6816
:1034D0009A837B682422002199547B682522052148
:1034E0009954FB6803229A753B681B7A002B0DD018
:1034F0003B681B885A003B685B7A9B0313431A00A6
:1035000080231B021A43FB685A6209E03B681B8850
:103510005A003B685B7A9B0313431A00FB685A62AC
:1035200000231800BD4604B080BDC046BD57010051
:10353000FFFFFBFF80B582B000AF786039607B6829
:103540009B8B9BB2002B01D005230CE07B680122F2
:103550009A727B680122DA723A687B68110018005F
:10356000034B984703001800BD4602B080BDC0461B
:103570009134010080B586B000AF0200FB1D1A70C7
:10358000FB1D1A78934B9200D3587B617B691B68B3
:103590003B613B691B681B01DB0FDBB21A000F2389
:1035A000FB18511E8A411A700E23FB187A69527E4D
:1035B0001A707B691B7EDAB20E23FB180E21791874
:1035C00009780A401A707B695B8B9BB2002B09D18A
:1035D0007B699B8B9BB2002B04D07B6918007E4BD0
:1035E000984770E07B695B8B9BB2002B39D07B697D
:1035F0009B8B9BB2002B34D17B6925229B5CDBB279
:10360000052B2ED17B6924229B5CDBB2002B28D1B9
:103610003B6903221A757B6900225A837B69252244
:10362000002199547B699B7A002B0BD07B69180091
:103630006A4B98473B695B68C02292021A433B6918
:103640005A6002E03B6901221A760E23FB181B78B0
:103650000122134037D07B69DB687A6910009847F4
:1036600031E07B695B8B9BB2002B2CD07B699B8B01
:103670009BB2002B27D03B695B8B9BB21A002023A7
:10368000134011D10F23FB181B7801225340DBB2EA
:10369000002B04D17B699B8B9BB2012B04D07B69EF
:1036A0002522412199540EE07B6924229B5CDBB2E8
:1036B000002B04D17B691800494B984703E07B69D4
:1036C0001800484B98477B695B8B9BB2002B47D017
:1036D0007B699B8B9BB2002B42D17B6925229B5C33
:1036E000DBB2052B3CD17B6924229B5CDBB2012B36
:1036F00036D13B691B7EDBB21A000223134002D095
:103700003B6902221A763B6903221A757B69002203
:103710005A837B692522002199540E23FB181B78BC
:10372000022213400BD07B6924229B5CDBB2012B6D
:1037300005D17B691B697A691000984710E00E2358
:10374000FB181B78012213400AD07B6924229B5C62
:10375000DBB2002B04D17B69DB687A6910009847E3
:103760007B6925229B5CDBB2052B2ED07B69252251
:103770009B5CDBB2002B28D03B6903221A757B6966
:1037800000225A837B6900229A837B6925229B5CF5
:10379000DBB2412B0ED07B699B7A002B0AD07B6970
:1037A00018000E4B98473B695B68E022D2021A432F
:1037B0003B695A600E23FB181B780422134004D087
:1037C0007B695B697A6910009847C046BD4606B0C0
:1037D00080BDC046404D0020F5310100653001003C
:1037E000793101008930010080B500AFBFF34F8F00
:1037F000024B034ADA60BFF34F8FFEE700ED00E0B3
:103800000400FA0580B500AF024B9847C046BD469C
:1038100080BDC046E937010080B586B000AF786052
:103820009C4B18009C4B98479C4B18009A4B984710
:103830009B4B1800984B98479A4B1800964B98470B
:10384000994B1800944B9847984B1800924B984707
:10385000974B1800904B9847964B18008E4B984703
:103860001723FB1800221A70934B1800934B9847AC
:10387000032200210120924B98470200914B1A60CD
:10388000904B1B68002B07D18F4B190003208F4BE7
:10389000984700208E4B98470C23FB1818008D4B3F
:1038A00098470C23FB181B780A2B04D00C23FB1819
:1038B0001B780D2B37D1884B1800804B9847874BCE
:1038C00000221A70864B00221A708649864B3122DC
:1038D0001800864B9847844B312200219954844923
:1038E000804B64221800834B984703003B61804B58
:1038F0006322002199547E4B1800704B98473B6916
:10390000002BECD11723FB1800221A70754B3222C2
:1039100000211800784B9847754B6422002118004D
:10392000754B9847B5E06D4B1B78002B59D06C4B0D
:103930001B78032B0CD86A4B1B785A1CD1B2684AEF
:1039400011701A000C23FB1819786C4B995405E080
:10395000624B00221A70624B00221A70604B1B7877
:10396000012B99D9664A654B11001800654B9847A1
:10397000031E2FD064495B4B1B221800634B9847F2
:10398000584B18004D4B98471723FB1800221A700C
:10399000544B322200211800574B98475249514B43
:1039A00031221800514B98474E4B1800584B9847FE
:1039B0000300302B06D84C4B1800554B984703009A
:1039C000DAB200E031221723FB181A70454B1800B9
:1039D0003A4B9847414B00221A70414B00221A7013
:1039E0005AE70C23FB181B780D2B00D154E70C234E
:1039F000FB181B78082B04D00C23FB181B787F2B9B
:103A00001CD10823FB18434A12681A600823FB18CC
:103A100018002A4B98471723FB181B78002B37D028
:103A20001723FB181A781723FB18013A1A7017236B
:103A3000FB181B782B4A0021D15429E00C23FB18DA
:103A40001B781B2B06D1254B01221A70244B002218
:103A50001A7021E71723FB181B78312B0ED8172378
:103A6000FB181B780C22BA1811781E4AD154172360
:103A7000FB181A781723FB1801321A700C23FB1855
:103A800000225A700C23FB1818000C4B984703E7D0
:103A9000C04601E73C2D020005590100AC2D020093
:103AA0004C2D02006C2D02005C2D02007C2D0200CA
:103AB0008C2D02009C2D0200182B0200E1B70100A2
:103AC000C57E0100803B0020682C0200CDB80100BB
:103AD000B19C0100193B0100882C02003404002035
:103AE000350400206C04002038040020412102002D
:103AF000A004002075590100A71E02000405002043
:103B00008C2C0200D5200200902C02009120020093
:103B100011210200982C020080B584B000AF7860BB
:103B20007B6818000C4B98470300FB600DE00B4BC3
:103B30001A6801235B4219001000094B98477B6803
:103B40001800054B98470300FB60FB680133EED07B
:103B5000C046BD4604B080BD7DB80100803B00205A
:103B60007D8E010080B500AF0A4B00221A600A4B1F
:103B70001B68084A11001800084B9847054B1B6842
:103B8000002B03D0064B802252051A60C046BD466A
:103B900080BDC04608050020803B0020F58701005D
:103BA00004ED00E090B587B000AFF860B9607A60CE
:103BB0001723FB181B221A701723FB181B78084ABF
:103BC00008480F21084CA047064AB968FB6818004E
:103BD000054B984700231800BD4607B090BDC0466E
:103BE0009C2C0200240400202D20020080B584B00B
:103BF00000AFF860B9607A600220034B9847002359
:103C00001800BD4604B080BD154F010080B584B0DA
:103C100000AFF860B9607A60034B98470023180042
:103C2000BD4604B080BDC0460538010080B586B0F1
:103C300000AFF860B9607A601023FB1806221A7092
:103C40001023FB181800094B984703007B617B6920
:103C5000012B05D1064AB968FB681800054B984747
:103C600000231800BD4606B080BDC046494F010084
:103C7000A42C02002D20020080B584B000AFF860B3
:103C8000B9607A600220034B984700231800BD46B4
:103C900004B080BDA14D010080B584B000AFF860D4
:103CA000B9607A600320034B984700231800BD4693
:103CB00004B080BDA14D010090B5ABB000AFF8607D
:103CC000B9607A60334B9847334B9847C046002021
:103CD000324B984703001A0020231340202BF6D1C3
:103CE0002F4B98470300A422BA181360A423FB1893
:103CF0001B689022BA18110018002A4B984790238D
:103D0000FB181B68284A502178184021274CA047EF
:103D10005023FB181800264B98479023FB181B686C
:103D20009AB29823FB181A809023FB185B689AB20A
:103D30009823FB185A809823FB1818001D4B9847AE
:103D40000300A022BA181360A023FB181B68012BE4
:103D500005D1194AB968FB681800144B9847174BEE
:103D600098479F23FB1864221A709F23FB181A7828
:103D700013491023FB181800124B9847124B1022BE
:103D8000B81808220021114CA04700231800BD4696
:103D90002BB090BD05490100A1490100ED4701008C
:103DA0005D4A0100814A0100BC2C02002D20020066
:103DB000E1B70100754F0100E02C02007D280100F1
:103DC000F82C0200912002000000002021270100B1
:103DD00090B58FB000AFF860B9607A601823FB1817
:103DE00000221A701823FB1800225A701823FB189F
:103DF00000221A701823FB1800225A701C23FB188B
:103E000000221A701C23FB181422BA189A601C2373
:103E1000FB180122DA811C23FB181822BA185A60F9
:103E20001C23FB1801229A812C4B18002C4B98471D
:103E300000237B6346E07B6B2A4A2B480F212B4CE7
:103E4000A047294B1800264B984700233B632FE0DF
:103E50007B6BDAB23B6BDBB2D318DBB2DB18DAB2C6
:103E60001C23FB181A701C23FB1864211800204B1C
:103E700098470300FB62FB6A002B0CD11C23FB1844
:103E80001B78184A18480F21184CA047164B1800E9
:103E9000134B984709E0144B164A11881980927801
:103EA0009A70114B18000E4B98473B6B01333B63E4
:103EB0003B6B0F2BCCDD104B1800094B98477B6BED
:103EC00010337B637B6B7F2BB5DD0B4B1800044BF2
:103ED000984700231800BD460FB090BDFC2C02008F
:103EE000E1B70100302D0200240400202D20020043
:103EF000F1440100382D0200882C020080B582B008
:103F000000AF0200FB1D1A70064BFA1D127811005B
:103F10001F220A40012191400A001A60C046BD4696
:103F200002B080BD00E100E080B584B000AF7860F1
:103F30007B681B68FB60FB68DB69072213405A1E25
:103F40009341DBB21800BD4604B080BD80B582B09D
:103F500000AF7860C0467B681800044B9847031E8A
:103F6000F9D1C046BD4602B080BDC046293F010020
:103F700080B582B000AF78607B6864221A607B688D
:103F80001B4A5A607B6800229A607B6800221A7381
:103F90007B6800221A767B68802292031A617B6814
:103FA00001225242DA827B68012252429A827B6865
:103FB0000022DA617B6800221A627B6824220021D9
:103FC00099547B6800229A627B682C2200219954C4
:103FD0007B682D22002199547B682E220021995460
:103FE0007B68D7221A86C046BD4602B080BDC04657
:103FF000480D000080B584B000AF78607B681B6816
:10400000BB600023FB607B681800144B9847BB68BB
:104010001B6802221A43BB681A607B681B68180081
:104020000F4B9847030018000E4B98470CE0FB68B5
:104030000133FB607B68DB881A00FB689A4203D877
:10404000BB6810225A8306E0BB685B8B9BB21A00E8
:1040500010231340EBD0BD4604B080BD4D3F01009E
:10406000B5C70100FD3E010080B582B000AF7860A9
:104070000A00FB1C1A707B685B7EDBB25AB2FB1C29
:104080001B78012199400B005BB213435BB2DAB29B
:104090007B685A76C046BD4602B080BD90B591B0EF
:1040A00000AF0023FB633A23FB1800221A703B1D6C
:1040B0001800214B98473B1D204ADA613B1D204ADE
:1040C0001A623B1DFA229200DA823B23FB1803227C
:1040D0001A701EE03A23FC183A1D1A491A4B1800B0
:1040E0001A4B9847030023703A23FB181B78002BC8
:1040F00004D13A23FB181B78FB630FE0124B180026
:10410000134B98473B23FB181A783B23FB18013AC3
:104110001A703B23FB181B78002BDBD1FB6B002BA9
:1041200004D1094B18000B4B984700E0C046FB6BCD
:104130001800BD4611B090BD713F0100020008009B
:104140000200090000080042883B0020655501007C
:1041500099560100F53F010080B584B000AF78604A
:104160000E4B00221A700D4B01229A600023FB6057
:104170000B4B1B680C22BA1811001800094B98470A
:10418000094B00221A70FB68002B03D0074B8022DA
:1041900052051A60C046BD4604B080BD100500201F
:1041A000B03B0020F58701000C05002004ED00E085
:1041B00080B584B000AF78600E4B00221A700D4BB2
:1041C00001229A600023FB600B4B1B680C22BA187B
:1041D00011001800094B9847094B00221A70FB6820
:1041E000002B03D0074B802252051A60C046BD4603
:1041F00004B080BD10050020B03B0020F587010011
:104200000C05002004ED00E080B584B000AF7860BC
:104210000E4B00221A700D4B01225A600023FB60E6
:104220000B4B1B680C22BA1811001800094B984759
:10423000094B01221A70FB68002B03D0074B802228
:1042400052051A60C046BD4604B080BD100500206E
:10425000B03B0020F58701000C05002004ED00E0D4
:1042600080B500AF1149124B00221800114B98473E
:104270000F4B00211800104B984710490C4B01229E
:1042800018000C4B98470A4B012118000A4B98471D
:104290000B49074B02221800064B9847044B02219A
:1042A0001800054B9847C046BD4680BD59410100E6
:1042B000883B0020B132010069400100B14101009A
:1042C0000942010080B582B000AF00237B60144B2F
:1042D000984703007B607B68002B1AD1114B9847ED
:1042E0000120114B98470200104B1A600322002155
:1042F00001200F4B984702000E4B1A600B4B1B68B6
:10430000002B03D00B4B1B68002B03D106237B60D3
:1043100000E0C0467B681800BD4602B080BDC046C4
:104320009D400100614201002D810100843B00207D
:10433000C57E0100B03B002090B585B000AF78602D
:104340000023FB607B68002B03D07B685B68002B3D
:1043500003D108235B42FB601FE07B681B789AB2A5
:10436000104B1A807B685A680E4B5A607B68DA895A
:104370000C4B5A800B23FC180A4A0B4B11001800F7
:104380000A4B9847030023700B23FB181B78002B64
:1043900003D006235B42FB60C046FB681800BD46A5
:1043A00005B090BDB43B0020883B002035350100AE
:1043B00090B585B000AF78600023FB607B68002B70
:1043C00003D07B685B68002B03D108235B42FB6052
:1043D0001FE07B681B789AB2104B1A807B689A6842
:1043E0000E4B5A607B689A890C4B5A800B23FC1841
:1043F0000A4A0B4B110018000A4B98470300237020
:104400000B23FB181B78002B03D006235B42FB60B9
:10441000C046FB681800BD4605B090BDB43B002007
:10442000883B00205134010090B583B000AF0023D9
:104430007B60094B1868002300220021074CA0472D
:104440000300012B02D014235B427B607B681800C1
:10445000BD4603B090BDC046843B00206D81010085
:1044600080B584B000AF78600023FB60084B1B6808
:104470007A6811001800074B98470300012B02D0FF
:104480001D235B42FB60FB681800BD4604B080BD85
:10449000843B00207D8E010080B584B000AF786041
:1044A0000023FB60044B1A687B681A60FB681800E5
:1044B000BD4604B080BDC046B03B002080B500AF13
:1044C000024B1B781800BD4680BDC0460C0500207D
:1044D00080B582B000AF0200FB1D1A70034BFA1DBD
:1044E00012781A70C046BD4602B080BD0C0500208F
:1044F00080B584B000AF786039600023FB60002392
:10450000BB6096235B001800284B98470300FB60B4
:10451000FB68002B38D10823FB181800244B984760
:104520000300FB60FB68002B30D17B681800214B37
:1045300098470300FB60FB68002B2AD1BB683A68F0
:10454000110018001C4B98470300012B11D11B4B85
:104550009847031E11D00020194B9847FB68002B89
:1045600003D021235B42FB6014E003235B42FB602A
:1045700010E003235B42FB600CE0124B9847020003
:10458000FB681343FB6002E0C04600E0C046FB68E6
:1045900007E0C0460B4B98470200FB681343FB60E3
:1045A000FB681800BD4604B080BDC04661440100F0
:1045B00099440100394301007D8E0100BD44010092
:1045C000D14401002944010080B586B000AFF860F5
:1045D000B9607A6000237B6100233B6196235B0016
:1045E0001800354B984703007B617B69002B55D140
:1045F0001023FB181800314B984703007B617B693F
:10460000002B4DD1FB6818002D4B984703007B61B0
:104610007B69002B47D13B697A6811001800294B50
:1046200098470300012B18D1274B9847031E06D04B
:104630000020264B984703235B427B6134E0BB6834
:104640001800234B9847FB681800224B984703003B
:104650007B617B69002B04D026E003235B427B61F6
:1046600022E03B697A6811001800164B9847030056
:10467000012B0AD1144B9847031E0AD00020134B7C
:10468000984703235B427B610EE003235B427B611F
:104690000AE0114B984703007B6102E0C04600E04E
:1046A000C0467B6903E0C0460B4B98477B69180006
:1046B000BD4606B080BDC04661440100994401007A
:1046C000394301007D8E0100BD440100D144010049
:1046D000D19B0100B14301002944010080B596B08F
:1046E00000AFF86008007A6019000B23FB18021C69
:1046F0001A700823FB180A1C1A8000233B65194B0B
:104700000B22BA1812781A7000237B650AE07B6DC1
:1047100001337A6D79688A181178124AD1547B6D09
:1047200001337B650823FB181A887B6D9A42EEDC07
:104730000D4B2A221A700C4B0A4A5A600823FB18A8
:104740001B8801339AB2084BDA81074B64211800A9
:10475000064B984703003B653B6D1800BD4616B0FD
:1047600080BDC046C43B0020043C0020F144010051
:1047700080B596B000AFF86008007A6019000B238E
:10478000FB18021C1A700823FB180A1C1A8000234D
:104790007B65134B2A221A70114B0822BA18128813
:1047A0009A810F4B7A689A600E4B0B22BA181278D6
:1047B0001A700C4B00225A70094B0A4A5A60084B77
:1047C0000122DA81064B642205211800064B984726
:1047D00003007B657B6D1800BD4616B080BDC046EA
:1047E000043C0020C43B0020C945010090B585B0C1
:1047F00000AF0200FB1D1A70074B1868074AFB1D2B
:1048000019780123064CA0470300FB60034B1B787B
:104810001800BD4605B090BDC03B00202405002017
:104820007147010090B585B000AF0200FB1D1A7002
:10483000BB1D0A1C1A70084B1868BA1DFB1D19789D
:104840000123064CA0470300FB60FB68DBB21800A5
:10485000BD4605B090BDC046C03B0020DD4601000E
:1048600090B583B000AFFB1D00221A70FC1D022022
:10487000214B984703002370FB1DFA1D1278072176
:104880008A431A70FB1DFA1D12781A70FB1D1B78E3
:1048900019000220194B9847FB1DFA1D12780421BC
:1048A0000A431A70FB1D1B7819000220134B98470E
:1048B0003220134B9847FC1D02200F4B98470300F2
:1048C0002370FB1D1B780422134000D0F0E7C04684
:1048D000FB1DFA1D127808210A401A70FB1D1B7877
:1048E0000822134000D0C1E7C0460120044B98477E
:1048F000C046BD4603B090BDED470100254801000C
:10490000A9BA010080B582B000AFFB1D00221A7069
:10491000FB1D01221A70FB1D1B78190000201D4B86
:10492000984701201C4B9847FB1D02221A70FB1D63
:104930001B7819000020174B98473220164B9847D8
:10494000FB1D27221A70FB1D1B7819000120114B3B
:1049500098470120104B9847FB1D86221A70FB1DBB
:104960001B78190000200B4B984701200A4B9847F1
:10497000FB1D30221A70FB1D1B7819001520054BFA
:1049800098470120044B9847044B9847C046BD46C2
:1049900002B080BD25480100A9BA010061480100AC
:1049A00090B583B000AFFB1D00221A70FC1D0020E3
:1049B000094B984703002370FB1DFA1D1278102144
:1049C0000A431A70FB1D1B7819000020034B9847FF
:1049D000C046BD4603B090BDED470100254801002B
:1049E00080B588B000AFBA607B600F23FB18021C53
:1049F0001A700E23FB180A1C1A700220144B9847D9
:104A00000300FB61FB69DBB219000220114B9847E0
:104A10000120114B984712200D4B98470300FB6172
:104A200013200B4B98470300BB611420084B984799
:104A300003007B61FB691A04BB691B021A437B6993
:104A400013433B613B691800BD4608B080BDC046BA
:104A5000ED47010025480100A9BA010090B583B0D7
:104A600000AF3A00032312212A20044CA047030080
:104A70007B607B681800BD4603B090BDE149010032
:104A8000B0B592B000AF7860396006208B4B984784
:104A900003001A002C23FB181A700720874B984735
:104AA00003001A002C23FB185A700820834B9847E8
:104AB00003001A002C23FB189A7009207F4B98479B
:104AC00003001A002C23FB18DA7003207B4B984755
:104AD00003001A002823FB181A700420774B98470C
:104AE00003001A002823FB185A700520734B9847BF
:104AF00003001A002823FB189A700023FB6302E0CE
:104B0000FB6B0133FB63FB6B032BF9DD1F23BB63E3
:104B10002CE0BB6B002B00DA0733DB105B42033366
:104B20002C22BA18D35C1900BB6B654A134004D51C
:104B3000013B082252421343013319410B00012269
:104B40001340BA6B173A5F494A43022191400A0069
:104B50005A435D4B10009847021C5C4B111C786C4B
:104B60009847031C7B64BB6B013BBB63BB6B002B97
:104B7000CFDA16237B632CE07B6B002B00DA073344
:104B8000DB105B4202332822BA18D35C19007B6B1E
:104B90004B4A134004D5013B0822524213430133D0
:104BA00019410B00012213407A6B173A45494A43D9
:104BB000022191400A005A43434B10009847021CBF
:104BC000424B111C386C9847031C3B647B6B013BC8
:104BD0007B637B6B002BCFDA2823FB181B78DB0968
:104BE000DBB21A0001239B1A01221A40364B100037
:104BF0009847021C364B111C386C9847031C3B64C9
:104C0000344B3549786C9847031C1C1C2E4B786834
:104C10009847051C2F4B3049386C9847031C1A1CC9
:104C20002E4B111C281C9847031C1A1C284B111CC6
:104C3000201C9847031C3B63294B386B98470300A3
:104C40009AB23B681A803B689C1C3B681B881A0020
:104C50001D4B10009847021C204B111C386B9847C5
:104C6000031C1A1C1A4B1C49101C9847031C1A1CC5
:104C70001C4B101C984703009BB223803B681B8889
:104C8000194A082178182021184CA0470823FB183E
:104C90001800174B98473B6802331B88154A0821B8
:104CA00078182021114CA0470823FB181800104B3E
:104CB0009847C046BD4612B0B0BDC046ED470100A2
:104CC0000700008010270000E90202007DF70100C4
:104CD00031FD0100A1FA010000401C4671FF0100F6
:104CE000A90202004DF70100BC2D02002D20020098
:104CF000E1B70100CC2D020080B584B000AF786030
:104D00007B681B68FB60C046FB689B6802221340FF
:104D1000FAD1FB681B6802221A43FB681A60C0467E
:104D2000BD4604B080BD000080B5AAB000AF154AF2
:104D30003B1D11001800144B98473B1D0222DA72EC
:104D40003B1D124A5A603B1D02221A763B1D104A37
:104D50005A623B1D9A22012199543B1D0A221A6670
:104D60003B1D8022052199503A1D0649094B180028
:104D7000094B9847074B1800084B9847C046BD465B
:104D80002AB080BD0020004281E401002EBA00005C
:104D9000175D0000143C0020DDEA0100F94C010021
:104DA00080B584B000AF7860074B796807489847B2
:104DB0000300FB60FA68064B02211800054B984778
:104DC000C046BD4604B080BD21F501002EBA0000EA
:104DD000143C00209DEF010090B59FB000AF7860BB
:104DE0003B4B18003B4B98473B4B984702203B4BB3
:104DF00098473B4B98473B4B3B48082200213B4C94
:104E0000A047384B3A4812220021384CA04777235C
:104E1000FB1800221A707623FB1800221A707423E4
:104E2000FB1800221A807223FB1800221A807123BB
:104E3000FB1800221A702F4B98472F4B9847C046FB
:104E400000202E4B984703001A0020231340202BEC
:104E5000F6D12B4B98470300FB66FB6E4C22BA1829
:104E600011001800274B98474C23FB181A88502331
:104E7000FB181A804C23FB185A885023FB185A80C1
:104E80007723FB181B78642B07D07723FB18772236
:104E9000BA18127801321A7016E07723FB18002234
:104EA0001A704C23FB181B881A004C23FB185B88D4
:104EB000154954203818154CA0470A4B5422B818ED
:104EC00008220021094CA0473220114B9847B4E733
:104ED000E02D0200E1B70100294D0100A14D0100C4
:104EE0007D28010000000020F42D02002127010090
:104EF000FC2D020005490100A1490100ED47010018
:104F00005D4A0100814A0100042E02009120020046
:104F1000D19B010090B583B000AF0200FB1D1A7059
:104F2000FB1D1B78032B06D8054B1868F91D0023C1
:104F30000A22044CA047C046BD4603B090BDC046FF
:104F4000280500206D81010090B585B000AF786024
:104F5000064B1868796800230A22054CA047030015
:104F6000FB60FB681800BD4605B090BD2C05002015
:104F70006D81010090B585B000AF7860064B186870
:104F8000796800230A22054CA0470300FB60FB68F8
:104F90001800BD4605B090BD300500206D810100B0
:104FA00080B582B000AF78607B6800221A70C0467E
:104FB000BD4602B080BD000080B582B000AF0200E7
:104FC0003960FB1D1A70FB1D1B78012B0AD0022BC8
:104FD0000FD0002B14D10E4B0D4A91693A680A4349
:104FE0009A610FE00A4B0A4AD1693A680A43DA61CA
:104FF00008E0074B064A116A3A680A431A6201E060
:10500000172300E000231800BD4602B080BDC04653
:105010000004004080B582B000AF78607B688022D9
:105020001A707B6800225A707B6801229A707B6834
:105030000022DA70C046BD4602B080BD80B500AF28
:10504000054B9B78DBB21A00022313405A1E934192
:10505000DBB21800BD4680BD0020004180B500AF26
:10506000024B9847C046BD4680BDC046D9BA010034
:1050700080B500AF024B9847C046BD4680BDC046D4
:105080002DBB010080B582B000AF0200FB1D1A707D
:10509000074AFB1D1B7819001F230B400121994073
:1050A0000B0019008023D150C046BD4602B080BD20
:1050B00000E100E080B584B000AF78607B681B68D9
:1050C000FB60FB68DB69072213405A1E9341DBB289
:1050D0001800BD4604B080BD80B582B000AF7860D6
:1050E000C0467B681800044B9847031EF9D1C046A0
:1050F000BD4602B080BDC046B550010080B584B049
:1051000000AF78607B681B68FB607B681B681800D9
:105110000D4B9847030018000C4B98477B6818000C
:105120000B4B9847FB6883221A75FB6883221A761B
:10513000FB681B68022293431A00FB681A60C04692
:10514000BD4604B080BDC046B5C701008550010012
:10515000D9500100F0B597B000AF786139610023F4
:10516000FB6300233B650023FB643B231022944632
:10517000BC44634400221A707B691B68BB637B6973
:105180001B687B6323231022BA18D4187B6B18008A
:10519000C04B9847030023700C2310229446BC4454
:1051A00063441800BC4B98473B69DB697B643B69EF
:1051B0001B6A3B647B6C002B06D17B6B00211800C3
:1051C000B64B984703007B647B6CDAB20C2310214A
:1051D0008C46BC4463441A700C2310229446BC4491
:1051E000634402225A707B6C1B0CDBB20C22102130
:1051F0008C46BC44624411001800A94B98473B6C94
:10520000002B06D17B6B01211800A44B98470300AB
:105210003B643B6CDAB20C2310218C46BC446344E3
:105220001A700C2310229446BC44634402225A7024
:105230003B6C1B0CDBB20C2210218C46BC4462443C
:1052400011001800964B98473B699A8A7B69DA806F
:105250003B69DA8A7B691A813B691B7E002B03D18B
:10526000904B9847031E02D080237B6501E000230A
:105270007B653B691B69002B04D03B691B697A6D18
:1052800013437B653B699B687A6D13437B653B6980
:1052900024229B5C002B04D07B6D8022D20513431B
:1052A0007B653B699B6A002B04D03B699B6A7A6DE6
:1052B00013437B653B692C229B5C002B05D13B692A
:1052C0009A6880239B049A4204D17B6D8022120548
:1052D00013437B653B692D229B5C002B04D07B6DC7
:1052E0008022120413437B653B692E229B5C002BBA
:1052F00004D07B6D8022D20313437B65BB6B1A689D
:105300007B6D1A43BB6B1A60BB6B802252005A60E4
:10531000232310229446BC4463441B781433DBB22D
:105320001800614B98470300FB623B691B68FA2237
:1053300092005343BB623B695B68FA22920053437D
:105340007B623B691B8E3B62584BF86A98470500AD
:105350000E00564BB86A9847B860F960534BF86A2C
:105360009847534C534A544BA04703000C003B60F2
:105370007C604E4B386A984702000B004C4C3868F2
:105380007968A04703000C00180021004B4C002254
:105390004B4BA04703000C001A002300444CB86894
:1053A000F968A04703000C001A002300454C2800B0
:1053B0003100A04703000C001D002600BB6A5A0004
:1053C0003A4B1000984702000B003C4C280031007B
:1053D000A04703000C00180021003A4C00223A4B71
:1053E000A04703000C001D002600BB6A5A002F4B8B
:1053F0001000984702000B00344C28003100A047F1
:1054000003000C0019002200314B080011009847DE
:105410000300FB633B699A6880239B049A426AD12C
:10542000224BF86A9847254C02000B00A047030066
:105430000C001D0026001D4B786A98471C4C00226A
:10544000244BA04703000C001A0023001F4C280027
:105450003100A04703000C0018002100194C002265
:10546000194BA04703000C0019002200184B08003C
:10547000110098470300FB64FB6C002B2ED0164BE9
:10548000796AF86A984703009A1EFB6CD31A3B6549
:1054900031E0C046E5C601001550010029C50100F4
:1054A00021E301003D500100E5E00100A51B0200E1
:1054B0001110020095D626E80B2E113E890302003A
:1054C00000002440111502000000F03FA90902006D
:1054D0003D1B0200000008400DF401007B6A5A00E9
:1054E000FB6AD3185A1E7B6A59001D4B100098475F
:1054F0000300013B3B65FB6BFF2B08DCFB6B002BC8
:1055000005DB3B6DFF2B02DC3B6D002B06DA3B23FA
:1055100010229446BC44634440221A703B2310225C
:105520009446BC4463441B78402B0ED0FB6BFF2297
:105530001A403B6D1B041900FF231B040B4013434F
:10554000FA6C12061A43BB6BDA603B2310229446B6
:10555000BC4463441B781800BD4617B0F0BDC0467C
:105560000DF4010090B58BB000AFF860B9607A60BF
:10557000FB68BA681A60FB681B687B62FB681B6883
:1055800018003B4B984703003B623B6A0233FB61C8
:105590003B6A1433BB610122FB699A401300190076
:1055A0000220344B98471423FB181800324B9847BD
:1055B0007B681A7B1423FB181A70BB69DBB21422B8
:1055C000BA18110018002D4B9847BB69DBB21800C0
:1055D0002B4B98477B681B7B00211800294B984771
:1055E0007B6A1B680222134001D01C233BE07B6ACC
:1055F0001B680122134001D0052334E0FB681B68BF
:105600001722BC1818001A4B9847030023701E4A33
:105610001723FB181B78110018001C4B9847172301
:10562000FB181A781A4B9200F968D150FB680022D7
:105630001A76FB6800225A76FB6800225A83FB68C0
:1056400000229A83FB68252200219954FB680022DE
:105650001A627B6A14221A607A68FB6811001800CB
:105660000C4B984703001800BD460BB090BDC046D8
:10567000E5C60100B94F0100A14F0100C1DF0100E3
:1056800005E001009DC401007535010049C7010016
:10569000404D00205551010080B584B000AF7860C6
:1056A0007B681B68FB607B6818000F4B98477B6822
:1056B00018000E4B98470E4B98477B681B681800E4
:1056C0000C4B9847030018000B4B98470B4B98471F
:1056D0007B681800044B9847FB6801221A60C0469B
:1056E000BD4604B080BDC046D9500100FD50010048
:1056F0005D500100B5C701003DE10100715001009E
:1057000080B584B000AF78607B681B68FB60FB6885
:105710001B7EDBB21A00022313400BD0FB6802226F
:105720001A76FB685B8B9BB21A000223134011D0E0
:10573000412310E0FB685B8B9BB21A0004231340EB
:1057400008D0FB685B68C02292021A43FB685A606B
:10575000182300E000231800BD4604B080BD80B5CA
:1057600084B000AF78607B681B68BB600E23FB18B9
:1057700000221A800FE00E23FB180E22BA1812889E
:1057800001321A807B681B890E22BA1812889A424D
:1057900001D312230EE0BB681B7EDBB21A0001238B
:1057A000134006D1BB681B7EDBB21A0002231340F4
:1057B000E1D000231800BD4604B080BD90B585B08F
:1057C00000AF78600A00FB1C1A707B681B68FB60E6
:1057D000FB685B688022D2021A43FB685A60FB1C9C
:1057E0001A78FB685A620B23FC187B681800074B79
:1057F000984703002370FB6801221A760B23FB18DD
:105800001B781800BD4605B090BDC0465F5701002B
:1058100080B500AF0020024B9847C046BD4680BD12
:105820004D58010080B500AF0120024B9847C0469B
:10583000BD4680BD4D58010080B500AF0220024B2F
:105840009847C046BD4680BD4D58010080B584B024
:1058500000AF0200FB1D1A70FB1D1A78284B920046
:10586000D358FB60FB681B689B7BDBB2FA68127E37
:105870001340DAB2FB68597E0B23FB180A401A70FA
:105880000B23FB181B780122134008D0FB689B6890
:10589000FA6810009847FB681B6801229A730B2373
:1058A000FB181B780222134008D0FB68DB68FA68FB
:1058B00010009847FB681B6802229A730B23FB18A1
:1058C0001B781022134008D0FB681B69FA6810008F
:1058D0009847FB681B6810229A730B23FB181B78F0
:1058E0002022134008D0FB685B69FA6810009847D3
:1058F000FB681B6820229A73C046BD4604B080BD79
:10590000543C002080B584B000AF78600023FB6079
:105910007B68002B01D172B6FEE70820114B984737
:105920000300BB60BB68002B01D172B6FEE7BB6809
:10593000002B12D00C4B9847BB687A681A60BB6882
:1059400000225A60094B1B68BA685A60074BBA6854
:105950001A60074B98470123FB60FB681800BD469F
:1059600004B080BD117D0100D97B0100280000201A
:10597000FD7B010080B588B000AFF860B9607A6047
:105980000123FB613D4B1B68002B44D13B4B3C4A40
:105990001A603AE0394B1B681B681B68BB61BB6926
:1059A0001800384B984703007B61FA687B69D3186D
:1059B0001B78202B05D0FA687B69D3181B78002B45
:1059C0001ED17A69B969FB6818002F4B9847031EEE
:1059D00016D12A4B1B681B681B7B5BB2002B19DBA3
:1059E000FB681800294B984703001A00234B1B68DB
:1059F0001B681B7B5BB29A420CD00023FB6109E061
:105A00001E4B1B685A681D4B1A601C4B1B68002BF1
:105A1000C0D100E0C046194B1B68002B0CD0FB69BD
:105A2000002B09D17A681A49BB681800194B9847AE
:105A3000124B00221A601CE0104B1B68002B10D088
:105A40000E4B1B681B689B68FA687968B8689847B2
:105A50000300FB61FB69002B0BD1084B00221A608D
:105A600007E07A680C49BB6818000A4B9847002386
:105A7000FB61FB691800BD4608B080BD34050020FD
:105A800020000020112102001F210200FD5A010008
:105A9000442E0200412102009C2E020080B586B0F7
:105AA00000AFF860B9607A60114B1B68002B02D11F
:105AB0000F4B104A1A600E4B1B681B685968BA6876
:105AC000FB6818000C4B9847094B1B685A68084B39
:105AD0001A60074B1B68002B02D100237B6101E099
:105AE00001237B617B691800BD4606B080BDC046BE
:105AF00038050020200000204121020080B584B03C
:105B000000AF78600F23FB1800221A700023BB60DF
:105B100018E07B681B78202B0FD1BB68012B0ED0BF
:105B20000F23FB181B785BB2DBB20133DAB20F2311
:105B3000FB181A700123BB6001E00023BB607B6887
:105B400001337B607B681B78002BE2D1BB68012BA3
:105B500009D10F23FB181B785BB2DBB2013BDAB231
:105B60000F23FB181A700F23FB181B785BB2180069
:105B7000BD4604B080BD000080B582B000AF786043
:105B80007B681800034B984703001800BD4602B01D
:105B900080BDC0463593010080B582B000AF78600B
:105BA0007B681800034B984703001800BD4602B0FD
:105BB00080BDC0466193010080B582B000AF7860BF
:105BC0007B681800034B984703009BB21800BD4642
:105BD00002B080BD4DA6010080B582B000AF7860F4
:105BE0007B681800044B984703001B0C9BB21800FD
:105BF000BD4602B080BDC0464DA6010080B582B052
:105C000000AF78600A00BB1C1A807B681800084B44
:105C1000984703001B0C1A04BB1C1B881A437B68A3
:105C200011001800034B9847C046BD4602B080BD26
:105C30004DA6010075A6010080B582B000AF786066
:105C40000A00BB1C1A807B681800094B98470300A8
:105C50001B041A0CBB1C1B881B041A437B68110015
:105C60001800044B9847C046BD4602B080BDC046F0
:105C70004DA6010075A6010080B582B000AF786026
:105C80007B681800034B984703009BB21800BD4681
:105C900002B080BD795B010080B582B000AF786052
:105CA0007B681800044B984703001B0C9BB218003C
:105CB000BD4602B080BDC046795B010080B582B0B0
:105CC00000AF78600A00BB1C1A807B681800084B84
:105CD000984703001B0C1A04BB1C1B881A437B68E3
:105CE00011001800034B9847C046BD4602B080BD66
:105CF000795B01004993010080B582B000AF786004
:105D00000A00BB1C1A807B681800094B98470300E7
:105D10001B041A0CBB1C1B881B041A437B68110054
:105D20001800044B9847C046BD4602B080BDC0462F
:105D3000795B01004993010080B584B000AF7860C1
:105D40000023FB600023BB6018E0144BBA68D2004C
:105D5000D358002B0FD1114BBA68D2007968D150BB
:105D60000E4ABB68DB00D3180433012252421A608A
:105D70000123FB6005E0BB680133BB60BB68092BF6
:105D8000E3DDFB68002B04D1054B1B685A1C044B58
:105D90001A60C046BD4604B080BDC0464005002024
:105DA0009005002090B585B000AF0023FB602B4B21
:105DB0001B68BB60294B1A68294BD200D358002BB3
:105DC00035D0264B1A68264BD200D3581800254BE5
:105DD000984703007B60214B1B68214ADB00D318E6
:105DE00004331A687B689A4207D91C4B1B681C4A0B
:105DF000DB00D31804337A681A60184B1A68184B02
:105E0000D200D3581800184B98470300DBB2190092
:105E1000124B1B68124ADB00D31804331B680A00BC
:105E20000321EA20114CA047FB680133FB600B4BB8
:105E30001B685A1C0E4B0A21100098470B001A00D1
:105E4000064B1A60FB68002B04DC044B1A68BB6825
:105E50009A42AFD1C046BD4605B090BD9405002022
:105E600040050020EDA70100B95B010001670100BA
:105E7000EDF6010080B500AF024B98470300180013
:105E8000BD4680BD99A8010090B585B002AF78608D
:105E9000144B98477B68012B02D1134B98470EE0B7
:105EA0007B68022B04D1114B1800114B984706E078
:105EB0007B68002B03D00F4B18000D4B98470E4BFF
:105EC0001B68002B0AD196235A000C490C480A4B38
:105ED00001930423009300230A4CA047C046BD460B
:105EE00003B090BDCD6D010025630100FC2E0200C2
:105EF000757401003C2F02003C050020702F020049
:105F0000095F01003598010080B582B000AF78606C
:105F1000044B9847031E01D0034B98470420034BC2
:105F20009847F5E769630100A55D0100D19B010079
:105F300080B500AF604B1B680922DA655E4B1B68B9
:105F400064220A2199545C4B1B6865220A219954EA
:105F5000594B1B6866220A219954574B1B686722CC
:105F60000F219954544B1B68682205219954524BB8
:105F70001B686922052199544F4B1B686A22052131
:105F800099544D4B1B686B22052199544A4B1B6851
:105F90006C2205219954484B1B6870220F2199549B
:105FA000454B1B6871220F219954434B1B68722289
:105FB0000F219954404B1B6873220F2199543E4B7B
:105FC0001B6874220F2199543B4B1B6875220F21CB
:105FD0009954394B1B6876220F219954364B1B6814
:105FE00077220F219954344B1B6878220F21995442
:105FF000314B1B687C22102199542F4B1B687D224A
:10600000102199542C4B1B687E22102199542A4B45
:106010001B687F2213219954274B1B688022112172
:106020009954254B1B68812210219954224B1B68DF
:10603000822213219954204B1B68832213219954E7
:106040001D4B1B688422132199541B4B1B6888220B
:1060500000219952184B1B688A22A0219952164B95
:106060001B688C22A02149009952134B1B688E2279
:10607000F02149009952104B1B6890220F49995208
:106080000D4B1B6892220E4999520B4B1B689422B0
:106090000C499952084B1B6896220B499952064BA2
:1060A0001B6898228C21C9009952034B1B68074A30
:1060B0001A66C046BD4680BD54060020FD020000A1
:1060C00052030000A203000001040000BF0400000E
:1060D00080B500AF2E4B00225A822D4B5A8A2C4B92
:1060E0001A802B4B0A229A82294B9A8A284B5A8073
:1060F000274B1422DA82264BDA8A254B9A80244BCE
:106100001E221A83224B1A8B214BDA80204B2D2220
:106110005A831F4B5A8B1E4B1A811D4B32229A8376
:106120001B4B9A8B1A4B5A81194B3722DA83184B27
:10613000DA8B174B9A81164B3C221A84144B1A8C1B
:10614000134BDA81124B41225A84114B5A8C104B5B
:106150001A820F4B09229A840D4B1322DA840C4BBE
:106160001D221A850A4B2C225A85094B31229A8509
:10617000074B3622DA85064B3B221A86044B402217
:106180005A86034B45229A86C046BD4680BDC0460E
:10619000C405002080B582B000AF0200FB1D1A705C
:1061A000FB1D1B78082B16D89A000D4BD3181B68C3
:1061B0009F460C4B10E00C4B0EE00C4B0CE00C4BD4
:1061C0000AE00C4B08E00C4B06E00C4B04E00C4BD7
:1061D00002E00C4B00E00C4B1800BD4602B080BD45
:1061E00078320200782F0200C02F0200083002002F
:1061F0005C300200A8300200F4300200403102009E
:1062000094310200EC3102004832020090B587B0B0
:1062100000AF1723FB1800221A70364B1B68002BA7
:106220000BD1344B1B68002B05D1334B1800334B7B
:106230009847002359E0002357E02E4B1B681B6B47
:10624000012B01D1012350E02D4B1B68002B49D1BC
:10625000EFF31083BB60BB683B610123FB60FB680D
:1062600083F31088274B1B685A1C264B1A60214B5E
:106270001B6801221A63244B984703001800234B24
:10628000984703001A001723FB181A701723FB18EE
:106290001B78002B16D11723FC1803201C4B9847A2
:1062A000030023701B4A1723FB181B7819000320D7
:1062B000194B98471723FB181B780022190003205D
:1062C000164B98471723FB181B781800144B984758
:1062D0000C4B1B685A1E0B4B1A603B697B607B683A
:1062E00083F31088034B1B681B6B1800BD4607B077
:1062F00090BDC046540600209C3202007574010017
:10630000B4050020AC050020755E0100B95B0100FA
:1063100059710100E032020089730100ED6A010049
:10632000D569010080B500AF024B9847C046BD4615
:1063300080BDC0460D62010080B500AF084B1B68F0
:10634000002B03D0064B1B6800221A63054B1B6809
:10635000002B02D0034B1B689847C046BD4680BD4A
:1063600054060020BC05002080B500AF054B1B681B
:10637000002B03D0034B1B681B6B00E000231800AD
:10638000BD4680BD5406002090B589B000AF020024
:10639000FB1D1A70FB1D1B78002B57D02E4B1B6862
:1063A000002B55D0FB1D1B780F2B04D92B4B18004D
:1063B0002B4B98474DE02B4B1B68002B04D02A4BEE
:1063C0001800274B984744E0EFF31083FB60FB680D
:1063D000FB6101233B613B6983F31088214B1B6800
:1063E0005A1C204B1A60214B1B681B6B002B22D0C0
:1063F0001A23FC181E4B18001E4B984703002380DD
:106400001923FB18FA1D12781A701B4B98470300CA
:106410007B617B69002B0ED07B6902221A707B693D
:106420001A22BA1812885A807B691922BA1812786F
:106430005A70124B98470B4B1B685A1E094B1A6037
:10644000FB69BB60BB6883F3108802E0C04600E0D4
:10645000C046BD4609B090BD340000204836020059
:1064600075740100AC050020883602005406002037
:10647000FFFF0000897601002D70010031760100D8
:1064800080B58EB000AFF860B9607A60484B1B6889
:10649000002B00D188E07B68002B03DA7B685B422D
:1064A0007B6301E07B687B63EFF31083BB61BB69B7
:1064B0003B630123FB61FB6983F310883D4B1B6841
:1064C0005A1C3C4B1A60BB68002B05D03A4B1A682B
:1064D0007B68D218384B1A60354B1B681B6B002B3E
:1064E00057D0FF20354B984703001A002F23FB1885
:1064F0001A707B6B324A19001000324B9847020029
:106500002C23FB181A80304B98470300BB62BB6AF0
:10651000002B3ED0BB6A2F22BA1812785A70BB6A81
:1065200000221A70BB6A2C22BA1812885A80274B94
:106530009847BB68224A19001000224B9847020076
:106540002623FB181A802523FB1800221A701E4BE5
:10655000984703003B623B6A002B1AD03B6A262215
:10656000BA1812885A803B6A2522BA1812785A70D3
:10657000FB68DBB20133DAB23B6A1A70FB68DAB24D
:10658000BB6A1A70114B9847094B1B680A4A12687C
:106590001A65084B1B685A1E064B1A603B6B7B61E1
:1065A0007B6983F3108800E0C046BD460EB080BD15
:1065B00054060020AC050020C005002089760100AB
:1065C000FFFF00004D6801002D70010031760100D1
:1065D00090B58BB000AFF8607A600B23FB180A1CF3
:1065E0001A70FB68FE2B04D9394B1800394B9847B9
:1065F0006BE00B23FB181B78082B04D9364B1800D3
:10660000344B984761E0354B1A680B23FB181B7815
:106610006421D3185B181B781A007B689A4204D255
:106620002F4B18002B4B98474FE02E4B1B68002B2D
:1066300004D02D4B1800274B984746E02B4B1B7876
:10664000002B41D0EFF310837B617B697B620123D8
:10665000BB61BB6983F31088224B1B685A1C214B1A
:106660001A601E4B1B681B6B002B22D02223FC18C8
:106670001F4B18001F4B9847030023802123FB1852
:106680007A681A701C4B98470300FB61FB69002B6A
:106690000FD0FB692222BA1812885A80FB68DAB23E
:1066A000FB691A70FB692122BA1812785A70134BD1
:1066B00098470C4B1B685A1E0A4B1A607B6A3B6159
:1066C0003B6983F3108800E0C046BD460BB090BD27
:1066D000F8360200757401003037020054060020BD
:1066E00078370200AC050020C0370200B805002052
:1066F000FFFF0000897601002D7001003176010056
:1067000080B58AB000AFF8607A603B600B23FB185D
:106710000A1C1A70FB68FE2B04D9404B1800404B32
:10672000984777E00B23FB181B78082B04D93D4BC7
:1067300018003B4B98476DE03B4B1A680B23FB1846
:106740001B786421D3185B181B781A007B689A4267
:1067500004D2364B1800324B98475BE0344B1B6831
:10676000002B04D0334B18002D4B984752E0EFF329
:1067700010837B617B697B620123BB61BB6983F30F
:1067800010882B4B1B685A1C294B1A60264B1B6820
:106790001B6B002B34D0284B1B78002B30D0FF20F4
:1067A000264B984703001A002323FB181A703B68F6
:1067B0001900FF20224B984702002223FB181A7071
:1067C0002123FB187A681A701E4B98470300FB615F
:1067D000FB69002B14D0FB692322BA181278DA70F7
:1067E000FB68DAB2FB691A70FB692122BA181278C9
:1067F0005A70FB692222BA1812789A70124B984785
:106800000B4B1B685A1E0A4B1A607B6A3B613B6943
:1068100083F31088BD460AB080BDC046F837020039
:1068200075740100383802005406002088380200D0
:10683000AC050020D8380200B80500208976010098
:106840004D6801002D7001003176010080B584B0E3
:1068500000AF786039607B68FF2B09D07B68194AEC
:10686000934205D0184B1800184B98473B6824E01A
:106870003A687B689A4201D83B681EE0144B9847FF
:106880000300FB60FB68002B14D0FB6801221A7028
:106890007B68DB433A6813401B0ADAB2FB685A7024
:1068A0007B68DB433A6813401B0C9AB2FB685A8042
:1068B000084B98473B687A6813401800BD4604B0FF
:1068C00080BDC046FFFF0000103902007574010052
:1068D0002D7001003176010080B58AB000AF78607C
:1068E00039602623FB1800221A807B68FE2B04D90E
:1068F0002D4B18002D4B984753E02D4B1B68002B58
:1069000004D02C4B1800294B98474AE0EFF3108332
:106910003B613B693B6201237B617B6983F31088A8
:10692000234B1B685A1C224B1A60234B1B681B6BA2
:10693000002B2CD0214B1B78002B28D0FF20204B84
:10694000984703001A001F23FB181A703B681D4A62
:10695000190010001C4B984702002623FB181A80D0
:106960001A4B98470300BB61BB69002B0FD0BB6972
:106970001F22BA1812785A707B68DAB2BB691A7093
:10698000BB692622BA1812885A80114B9847084BC7
:106990001B685A1E064B1A603B6AFB60FB6883F358
:1069A0001088BD460AB080BD4C39020075740100E4
:1069B000AC050020A439020054060020B8050020D0
:1069C00089760100FFFF00004D6801002D70010075
:1069D0003176010090B589B000AF0200FB1D1A703E
:1069E000FB1D1B780F2B04D9344B1800344B9847F0
:1069F00061E0EFF31083FB60FB68FB6101233B6107
:106A00003B6983F310882F4B1B685A1C2D4B1A606F
:106A10002D4B1B78FA1D12789A4242D02B4B1B68E3
:106A20001B6B002B3DD02A4B00221A601A23FC1846
:106A3000284B1800284B984703002380224BFA1D4F
:106A400012781A701923FB181F4A12781A70234BF8
:106A5000984703007B617B69002B22D01A4B1B787F
:106A6000190003201E4B98470300012B03D17B69BB
:106A700007221A7002E07B6906221A707B691A22CB
:106A8000BA1812885A807B691922BA1812785A707B
:106A90000D4B1B78012219000320124B9847124B13
:106AA0009847084B1B685A1E064B1A60FB69BB606F
:106AB000BB6883F31088BD4609B090BDDC39020085
:106AC00075740100AC050020B805002054060020B4
:106AD00098050020FFFF0000897601002D7001005D
:106AE000D16C01002D6C01003176010090B583B0AE
:106AF00000AF040008001100FB1D221C1A70BB1D12
:106B0000021C1A707B1D0A1C1A70FB1D1B78082BB7
:106B100004D91A4B18001A4B98472CE0194B1A68E5
:106B2000FB1D1B786421D3185B181B78BA1D1278E3
:106B30009A4204D9144B1800114B98471BE0114B93
:106B40001C68FB1D1A78BB1D1B78110018000F4B29
:106B50009847030018000B4B1A68FB1D1B78702127
:106B6000D3185B181B78C31801339C22E3189B18B9
:106B70007A1D12781A70BD4603B090BD703B0200BA
:106B80007574010054060020BC3B020081700100B6
:106B900090B583B000AF0200FB1D1A70BB1D0A1C2C
:106BA0001A70FB1D1B78082B05D91B4B18001B4BBB
:106BB000984700232BE01A4B1A68FB1D1B786421B1
:106BC000D3185B181B78BA1D12789A4205D9154B59
:106BD0001800124B9847002319E0114B1C68FB1D4D
:106BE0001A78BB1D1B78110018000F4B9847030043
:106BF00018000B4B1A68FB1D1B787021D3185B180B
:106C00001B78C31801339C22E3189B181B781800CB
:106C1000BD4603B090BDC046FC3B02007574010048
:106C200054060020483C02008170010090B583B0FA
:106C300000AF040008001100FB1D221C1A70BB1DD0
:106C4000021C1A707B1D0A1C1A70FB1D1B78082B76
:106C500004D91A4B18001A4B98472BE0194B1A68A5
:106C6000FB1D1B786421D3185B181B78BA1D1278A2
:106C70009A4204D9144B1800114B98471AE0114B53
:106C80001C68FB1D1A78BB1D1B78110018000F4BE8
:106C90009847030018000B4B1A68FB1D1B787021E6
:106CA000D3185B181B78C3189C22E3189B187A1D15
:106CB00012781A70BD4603B090BDC046883C0200F1
:106CC0007574010054060020CC3C02008170010064
:106CD00090B583B000AF0200FB1D1A70BB1D0A1CEB
:106CE0001A70FB1D1B78082B05D91A4B18001A4B7C
:106CF000984700232AE0194B1A68FB1D1B78642172
:106D0000D3185B181B78BA1D12789A4205D9144B18
:106D10001800114B9847002318E0104B1C68FB1D0E
:106D20001A78BB1D1B78110018000E4B9847030002
:106D300018000A4B1A68FB1D1B787021D3185B18CA
:106D40001B78C3189C22E3189B181B781800BD46BB
:106D500003B090BD083D0200757401005406002088
:106D60004C3D02008170010090B583B000AF02007D
:106D7000FB1D1A70114B1B6867229B5CFA1D127871
:106D80009A4204D90E4B18000E4B984713E00B4B58
:106D90001C68FB1D1B78032118000B4B9847030050
:106DA0001900064B1B6873229B5CCB189C22E318CE
:106DB0009B1800221A70BD4603B090BD54060020F7
:106DC000883D0200757401008170010080B500AF3C
:106DD000754B1B68002B03D1734B744A1A6006E095
:106DE000714B1B681B78DBB2012B00D1D8E0704BD4
:106DF0001A68704B1A606C4B1868BD231B011A008F
:106E000000216D4B9847684B1B686C4A9A81664B12
:106E10001B6805229A73644B1B680022DA73624B6D
:106E20001B68BD2212011A615F4B1B68962252003B
:106E30009A615D4B1B68624A5A655B4B1B68002276
:106E40009A65594B1B6800225A635E4B9847564B14
:106E50001B685D4A5D499950534B1A68AC23DB00AF
:106E6000C821D150504B1B68594A012199504E4BB3
:106E70001A68D723DB005749D1504B4B1B68564A41
:106E800094466344554950221800554B9847464B49
:106E90001B68544A54499950434B1B68534A0A2172
:106EA0009954414B1B68524A0B2199543E4B1B6825
:106EB000504A0C2199543C4B1B684F4A0D21995460
:106EC000394B1B684D4A71219954374B1B684C4A0A
:106ED00072219954344B1B684A4A73219954324B9E
:106EE0001B68494A742199542F4B1B68474AF1216A
:106EF00099542D4B1B68464AF22199542A4B1B6822
:106F0000444AF3219954284B1B68434AF42199546D
:106F1000424B9847244B1B68F422DA72224B1B68C1
:106F2000F3229A72204B1B68F2225A721E4B1B6886
:106F3000F1221A721C4B1B687422DA711A4B1B68FF
:106F400073229A71184B1B6872225A71164B1B6878
:106F500071221A71144B1B680422DA70124B1B68E1
:106F600003229A70104B1B6802225A700E4B1B684A
:106F700001221A702A4B1B68002B12D00A4B1B6887
:106F8000154A9818264B1B6850221900144B984735
:106F9000054B1B68234A01219950234B984700E079
:106FA000C046BD4680BDC04654060020603C00205F
:106FB00018E000E030480020A71E0200A11A0000DF
:106FC000F0F0F0F0315F01005C050000F1F1F1F14B
:106FD00064050000F2F2F2F2BC060000D03D0200AF
:106FE000417301000C070000F3F3F3F3C40B00003E
:106FF000C50B0000C60B0000C70B0000C80B00004B
:10700000C90B0000CA0B0000CB0B0000CC0B00002A
:10701000CD0B0000CE0B0000CF0B0000D1600100B3
:10702000B4050020B40600003963010080B500AF4C
:10703000104B1B681B6B002B01D1002317E00D4B7D
:107040001B68DA692C23FF339A4205D90A4B1800D2
:107050000A4B984700230AE0064B1A68054B1B6849
:10706000DB699B00E221C9008C466344D3181800F9
:10707000BD4680BD54060020E43D02007574010049
:1070800080B582B000AF0200FB1D1A70BB1D0A1C48
:107090001A70BB1D1B78082B05D92A4B18002A4BE8
:1070A0009847002349E0FB1D1B78002B0BD0274B92
:1070B0001A68BB1D1B786421D3185B181B78FA1D56
:1070C00012789A4205D9224B18001F4B984700238B
:1070D00033E0BB1D1B78082B2AD8FB1D1B78002B27
:1070E00026D01A4B1A68BB1D1B786421D3185B1875
:1070F0001B78FA1D12789A421AD8144B1A68BB1DD5
:107100001B7840335B00D31808331A880F4B19687B
:10711000BB1D1B787C20CB181B181B789BB2F91D5C
:107120000978013989B24B439BB2D3189BB204E072
:10713000084B1800044B984700231800BD4602B0C6
:1071400080BDC0460C3E020075740100540600204C
:107150004C3E02008C3E020080B588B000AF0200B9
:10716000FB1D1A705A4B1B68002B05D1594B180098
:10717000594B98470023A7E0FB1D1B78082B05D926
:10718000564B1800544B984700239DE0EFF31083B3
:10719000FB60FB68BB6101233B613B6983F31088A3
:1071A0004F4B1B685A1C4E4B1A60FB1D1A784D4BF7
:1071B0005200D35A1A004C4B1A604B4B1B68494A79
:1071C0004821D3185B181B78002B17D1464B1A683F
:1071D000454B1B68D9B2FB1D1B78424808335B0046
:1071E000C31802331B88DBB2CB1ADBB20133D8B22F
:1071F0003C4B48219B185B18021C1A703A4B1A68CA
:107200001F23FB18374948208A18121812781A7061
:10721000FB1D1A78334B5200D25AFB1D1B783149A3
:1072200010335B00CB1804331B889A420DD9FB1D29
:107230001B7818002D4B984703001800264B9847E1
:107240001F23FB1800221A7031E0FB1D1B78254A12
:1072500059008A5A013291B2224A5B009952FB1DB1
:107260001A78204B5200D35A1900FB1D1B781D4A77
:1072700008335B00D31802331B88CB1A7B61FB1DDC
:107280001B78184A18335B00D31806331B881A0082
:107290007B699A420BDAFB1D1B787A69D2B291B2F4
:1072A000104A18335B00D31806330A1C1A800C4BA3
:1072B0001B685A1E0A4B1A60BB69BB60BB6883F32C
:1072C00010881F23FB181B781800BD4608B080BD2E
:1072D00054060020EC32020075740100CC3E02001E
:1072E000AC050020C405002058060020956101006F
:1072F00090B585B000AF0200FB1D1A70BB1D0A1CC3
:107300001A700E23FC18FB1D1A78BB1D1B78110088
:107310001800094B984703002380084B1A680E2376
:10732000FB181B889C21D3185B1801221A70C046D9
:10733000BD4605B090BDC0468170010054060020D6
:1073400080B586B000AFF860B9607A6000237B61D9
:1073500010E0FA687B69D318B9687A698A181278DC
:107360001A70BA687B69D3181B78002B07D07B6929
:1073700001337B617A697B689A42EAD300E0C046B8
:10738000C046BD4606B080BD80B582B000AF3A6051
:10739000FB1D021C1A70BB1D0A1C1A703B68002BD7
:1073A00004D12A4B18002A4B98474BE0FB1D1B7851
:1073B000082B04D9274B1800254B984742E0BB1DEA
:1073C0001B78002B04D1244B1800214B984739E03F
:1073D000224B1A68FB1D1B786421D3185B181B789D
:1073E000BA1D12789A4209D9FB1D1B7818001C4B54
:1073F000984703001800164B984723E0FB1D1A78A6
:10740000BB1D1B7811001800164B984703001A008B
:10741000154B1A80154B1B68002B13D10F4B1A68A4
:10742000114B1B889833D318181D0C4B1A68FB1D81
:107430001B787021D3185B181B781A003B68190061
:107440000B4B9847BD4602B080BDC046D03F0200FE
:10745000757401000440020034400200540600200C
:1074600095610100817001005C060020B4050020D8
:107470004173010080B582B000AF7860114B1B688A
:10748000002B01D0104B9847104B1B68002B15D1D7
:107490000E4B7A681A600B4B1B68002B0ED0094B01
:1074A0001B680B4A9818094B1B6850221900094B9E
:1074B0009847044B1B68084A01219950C046BD46B5
:1074C00002B080BD5406002039630100B4050020DD
:1074D000BC06000041730100B406000080B586B010
:1074E00000AF0200FB1D1A7000237B6100233B618B
:1074F000FB1D1B78002B00D089E0494B1800494B3D
:1075000098478AE0484B1B68DA697B69D3183B616E
:10751000454B19683B699A00E223DB008A18D318AF
:107520001B78982B34D9404B19683B699A00E223A9
:10753000DB008A18D3181B78A72B29D83A4B196877
:107540003B699A00E223DB008A18D3181A780F23CC
:10755000FB1868321A700F23FB181A783B69D2188F
:10756000314B1B689B699A424DD22F4B1A683B697D
:107570009B00E221C9008C466344D0180F23FB18FE
:107580001B7801339B001A000021284B98473AE0F2
:10759000254B19683B699A00E223DB008A18D3184F
:1075A0001B78012B30D13B695A1C1F4B1B689B6910
:1075B0009A420ED21C4B1A683B699B00E221C9001B
:1075C0008C466344D318082200211800174B9847B3
:1075D0001AE0154B1B68E222D20094466344042251
:1075E00000211800114B98470F4B1A683B699B000C
:1075F000E221C9008C466344D318042200211800FC
:107600000A4B984700E0C0467B6901337B61FB1D54
:107610001A787B699A4200D974E7BD4606B080BDEE
:10762000944002007574010054060020A71E020059
:1076300080B500AF124B1B681B6B002B1CD0104B8E
:107640001B685A6901325A610D4B1B68DA690132B5
:10765000DA610B4B1B68DA692C23FF339A4207D996
:10766000074B1B6801221A62054B1B680022DA6176
:107670000120044B984700E0C046BD4680BDC0468F
:1076800054060020DD740100B0B586B000AF0200E2
:10769000BB1D1A8000237B6100233B610023FB603C
:1076A000BB1D1B88FF2B0AD0BB1D1B88604A934261
:1076B00005D0604B1800604B98470023B3E05F4B48
:1076C0001B685B6A002B18D15D4B1B68002B06D032
:1076D0005A4B1B685A4A126892085A620DE0594B7D
:1076E0001A68594B1B689A4207D0544B1C680020FB
:1076F000564B984703009B0863620C23FB18180045
:10770000534B9847FA68534B1B68D31A3B61FA688E
:10771000504B1A60494B1B685B6A002B44D0474BA7
:107720001B685A6A3B699A421ED2444B1C68434B01
:107730001B68DD6A414B1B685A6A474B1100386968
:1077400098470300EB18E3623C4B1C683B4B1B68FB
:107750009D6A3A4B1B68596A3A69404B100098473A
:107760000B00EB18A36207E0344B1B68334A126826
:10777000916A3A698A189A62304B1B689A6A2F4B51
:107780001B685B6A9A4213D32C4B1B68DA6A01327E
:10779000DA622A4B1B68294A1268916A274A1268E2
:1077A000526A8A1A9A6203E0244B1B68FA689A624A
:1077B000BB1D1A883B699A422FD2294B9847030078
:1077C0007B617B69002B28D0BB1D1B88184A934224
:1077D0000BD17B69A9221A703B691B0C9AB27B6999
:1077E0005A807B6900225A7015E0BB1D1B88FF2B55
:1077F0000DD17B69A8221A703B691B0A9AB27B697A
:107800005A803B691B0EDAB27B695A7003E0154B54
:107810001800094B9847144B98473B699BB2BA1D17
:10782000128813409BB21800BD4606B0B0BDC046DA
:10783000FFFF0000EC4002007574010054060020B8
:10784000B005002018E000E030480020E9DE01002B
:107850006D780100600600200DF4010019F50100AB
:107860002D7001002C4102003176010080B584B0FA
:1078700000AF78600023BB600023FB602D4B1B68CA
:10788000012B07D17B68002B4FD02B4B1A687B68EC
:107890001A604AE0294B1A68294B1B68D31A013336
:1078A000BB60284B1A68284B1B68D31A013B002B7E
:1078B00003DB244B1B68FB6002E0234B1B68FB606F
:1078C000204B1B68FA689A4207D1204B1B68BA68A4
:1078D0009A4202D2FB680133FB607B68002B16D012
:1078E000164B1B6801339B08FA685A43124B1A6007
:1078F000124B1B68013303221340FA685A43BB68DA
:10790000D3189A080C4B1B68D2180B4B1A600D4BFE
:10791000FA681A607B68002B03D0074B1A687B68F3
:107920001A600A4BBA681A6000E0C046BD4604B04F
:1079300080BDC046A0050020A405002014E000E0A2
:1079400018E000E0640600209C0500206806002086
:1079500080B582B000AF78607B6808331A007B681E
:107960005A607B68012252429A607B6808331A0091
:107970007B68DA607B6808331A007B681A617B6871
:1079800000221A60C046BD4602B080BD80B582B0FC
:1079900000AF78607B6800221A61C046BD4602B025
:1079A00080BD80B584B000AF786039607B685B686B
:1079B000FB603B68FA685A60FB689A683B689A60AB
:1079C000FB689B683A685A60FB683A689A603B6853
:1079D0007A681A617B681B685A1C7B681A60C0460B
:1079E000BD4604B080BD80B584B000AF786039601A
:1079F0003B681B68BB60BB68013303D17B681B69B4
:107A0000FB600CE07B680833FB6002E0FB685B68AE
:107A1000FB60FB685B681A68BB689A42F6D9FB6832
:107A20005A683B685A603B685B683A689A603B6892
:107A3000FA689A60FB683A685A603B687A681A612B
:107A40007B681B685A1C7B681A60C046BD4604B040
:107A500080BD80B584B000AF78607B681B69FB6037
:107A60007B685B687A6892689A607B689B687A68D2
:107A700052685A60FB685A687B689A4203D17B68F7
:107A80009A68FB685A607B6800221A61FB681B6871
:107A90005A1EFB681A60FB681B681800BD4604B0DC
:107AA00080BD000080B584B000AFF860B9607A6036
:107AB000FB68043BFB60FB68802252041A60FB6891
:107AC000043BFB60BA68FB681A60FB68043BFB6020
:107AD000084AFB681A60FB68143BFB607A68FB6825
