S0160000455345353136204D41494E2046572E7372656393
S214012000587C002099A0020091A1020091A1020033
S21401201000000000000000000000000000000000BA
S2140120200000000000000000000000009990010080
S2140120300000000000000000C191010009920100AB
S21401204091A1020091A1020091A10200BD600200CF
S214012050E955020091A10200092E010091A102009A
S2140120604D2F010061670200796702009167020047
S214012070A9670200C1670200D9670200E19F02005A
S214012080F59F020009A00200856D0100996D01000F
S214012090AD6D01000000000000000000912C010061
S2140120A091A10200CD2D010091A1020091A1020093
S2140120B00000000010B5064C2378002B07D1054B15
S2140120C0002B02D0044800E000BF0123237010BD9E
S2140120D0F002002000000000F09C0300084B10B541
S2140120E0002B03D00749084800E000BF07480368F3
S2140120F0002B00D110BD064B002BFBD09847F9E70B
S21401210000000000F4020020F09C0300F09C030095
S2140121100000000080B500AFC046BD4680BD80B55A
S21401212000AFC046BD4680BD80B500AF254B984781
S214012130254B9847AE20254B9847D520234B9847EB
S2140121408020224B9847A820204B98472F201F4BD2
S2140121509847D3201D4B984700201C4B984740209A
S2140121601A4B98478D20194B98471420174B9847C0
S214012170A620164B9847A420144B9847A120134B32
S2140121809847C820114B9847DA20104B98471220E1
S2140121900E4B984781200D4B98478F200B4B984745
S2140121A0D9200A4B9847F120084B9847DB20074B6C
S2140121B098474020054B9847AF20044B9847C046A8
S2140121C0BD4680BD1F21010015210100D12101005E
S2140121D080B584B000AF0200FB1D1A700C23FB18FB
S2140121E000221A700C23FB18FA1D12785A700C4B39
S2140121F03C221A700A4B0C22BA185A60084B02226B
S214012200DA81074B00229A60054B00229A81044B23
S21401221064211800034B9847C046BD4604B080BDF4
S21401222034470020F144010080B584B000AF0200BD
S214012230FB1D1A700C23FB1840221A700C23FB1886
S214012240FA1D12785A700C4B3C221A700A4B0C225B
S214012250BA185A60084B0222DA81074B00229A60AC
S214012260054B00229A81044B64211800034B9847C2
S214012270C046BD4604B080BD34470020F14401008D
S21401228080B582B000AF7860034B7A681A60C046AA
S214012290BD4602B080BDC0460C03002090B583B099
S2140122A000AF040008001100FB1D221C1A70BB1DA4
S2140122B0021C1A707B1D0A1C1A70084B1A68FB1D3B
S2140122C01B789B011900BB1D1B78CB18D3187A1DF0
S2140122D012781A70C046BD4603B090BD0C030020AC
S2140122E080B582B000AF0200FB1D1A70BB1D0A1C30
S2140122F01A70074B1A68FB1D1B789B011900BB1D42
S2140123001B78CB18D3181B781800BD4602B080BDC9
S2140123100C030020B0B584B000AF05000C0010001F
S2140123201900FB1D2A1C1A70BB1D221C1A707B1D6E
S214012330021C1A703B1D0A1C1A70FB1D1A787B1DA5
S2140123401B78D318402B05DD7B1DFA1D1278402122
S2140123508A1A1A700F23FB18BA1D1278D2081A703F
S214012360BB1D1A780F23FB181B78DB00D31A01223A
S2140123709A400E23FB181A707B1D1B78002B00D188
S214012380A4E03B1D1B78012B2FD0022B00D195E03A
S214012390002B61D09BE0FA1D7B1D12781B78D318A9
S2140123A0DAB20D23FC180F23FB181B781100180056
S2140123B0484B9847030023700D23FB180D22B918CC
S2140123C00E22BA18097812780A431A70FA1D7B1D74
S2140123D012781B78D318D9B20D23FB181A780F235D
S2140123E0FB18187800233C4CA0477B1D1B787A1DF0
S2140123F0591E1170002BCED169E0FA1D7B1D127893
S2140124001B78D318DAB20D23FC180F23FB181B78A0
S214012410110018002F4B9847030023700E23FB185A
S2140124201B785BB2DB435BB20D22BA18127852B24C
S21401243013405AB20D23FB181A70FA1D7B1D127831
S2140124401B78D318D9B20D23FB181A780F23FB1863
S21401245018780023204CA0477B1D1B787A1D591E37
S2140124601170002BC9D132E0FA1D7B1D12781B7842
S214012470D318DAB20D23FC180F23FB181B781100B2
S2140124801800144B9847030023700D23FB180D22E8
S214012490B9180E22BA18097812784A401A70FA1D2D
S2140124A07B1D12781B78D318D9B20D23FB181A7826
S2140124B00F23FB1818780023074CA0477B1D1B78B9
S2140124C07A1D591E1170002BCED100E0C046BD46C4
S2140124D004B0B0BD8D2A0100ED290100B0B582B06F
S2140124E000AF05000C0010001900FB1D2A1C1A7015
S2140124F0BB1D221C1A707B1D021C1A703B1D0A1C78
S2140125001A703B1D1B78002B18D00FE0BA1D3B1D1F
S21401251012781B78D318D9B21823FB181C787B1DA8
S2140125201A78FB1D18782300064CA0473B1D1B7824
S2140125303A1D591E1170002BE8D100E0C046BD4679
S21401254002B0B0BD1523010090B587B000AF0400FE
S214012550080011003B60FB1D221C1A70BB1D021CEB
S2140125601A707B1D0A1C1A701023FB18BA1D1278EC
S2140125701A700F23FB187A1D12781A703B681A7AA4
S2140125801323FB18D2081A703B681B7A07221340E4
S214012590DBB2002B06D01323FB181A781323FB1883
S2140125A001321A701323FB181B789BB23A68527AD1
S2140125B092B253439AB2FB1D1B783968897A5B1A2B
S2140125C099B20C23FB184A431A803B685A680C23BD
S2140125D0FB181B88D3187B611223FB183A68527AC2
S2140125E01A700E23FB1800221A700B23FB183A6888
S2140125F0127A1A701123FB1800221A7034E0112384
S214012600FB181B7807221340DBB2002B07D10E23E1
S214012610FB187A6912781A707B6901337B610E2385
S214012620FB181B785BB2002B09DA0F23FB1819780D
S2140126301023FB181B78012218001D4B9847102306
S214012640FB181022BA18127801321A700E23FA18E3
S2140126500E23FB181B78DB1813701123FB181A784E
S2140126601123FB1801321A701123FA180B23FB18D9
S21401267012781B789A42C2D30F23FB180F22BA187E
S214012680127801321A701023FB18BA1D12781A70CC
S2140126901223FB181A781223FB18013A1A70122318
S2140126A0FB181B78002B9CD1C046BD4607B090BDD9
S2140126B0F928010090B585B002AF040008001100AA
S2140126C03B60FB1D221C1A70BB1D021C1A707B1D71
S2140126D00A1C1A703B681A7A3B685C7A7B1D19786B
S2140126E0BB1D18780023009323000B4CA0473B68C2
S2140126F01B78002B00D00AE03C687B1D1A78BB1DB6
S2140127001978FB1D18782300044CA047C046C04624
S214012710BD4603B090BDC046DD2401004925010039
S21401272090B587B000AFF860080011007B600B23FE
S214012730FB18021C1A700A23FB180A1C1A701723AE
S214012740FB180B22BA1812781A70FB681B780A2B32
S21401275011D10B23FB181722BA1812781A707B684E
S2140127605A7A0A23FB181B78D318DAB20A23FB1805
S21401277001321A7018E0FB681B780D2B14D0FB6829
S21401278018787C680A23FB181A780B23FB1819782B
S21401279023000B4CA0477B68197A0B23FB180B22EE
S2140127A0BA1812788A181A70FB680133FB60FB6846
S2140127B01B78002BC9D1C046BD4607B090BDC046A8
S2140127C0B526010080B582B000AF0200FB1D1A706D
S2140127D0FB1DFA1D12780F210A401A70FB1D1B788B
S2140127E0502252421343DBB21800034B9847C046AF
S2140127F0BD4602B080BDC046D121010080B582B081
S21401280000AF0200FB1D1A70FB1DFA1D12787F2116
S2140128100A401A70FB1D1B781B09DBB210221343FA
S214012820DBB20233DBB21800064B9847FB1D1B7860
S2140128300F221340DBB21800024B9847C046BD4634
S21401284002B080BDD121010080B582B000AF020088
S214012850FB1D1A70FB1DFA1D12783F210A401A70E3
S214012860FB1D1B7840221343DBB21800024B98472E
S214012870C046BD4602B080BDD121010090B583B0EF
S21401288000AF184B1800184B9847184B9847002074
S214012890174B9847FB1D00221A701AE0BB1D002239
S2140128A01A700CE0BB1D1978FB1D18780123002255
S2140128B0104CA047BB1D1A78BB1D01321A70BB1DF8
S2140128C01B785BB2002BEDDAFB1D1A78FB1D01327B
S2140128D01A70FB1D1B78052BE0D9C046BD4603B018
S2140128E090BDC0461003002081220100292101006D
S2140128F049280100ED29010090B585B000AF04001C
S21401290008001100FB1D221C1A70BB1D021C1A7048
S2140129107B1D0A1C1A70FB1D1B783F2B5DD8BB1D47
S2140129201B782F2B59D80E23FB18BA1D1278D20804
S2140129301A70BB1D1A780E23FB181B78DB00D31AFE
S21401294001229A400D23FB181A700F23FC18FB1D59
S2140129501A780E23FB181B7811001800214B984794
S214012960030023707B1D1B78012B04D0022B1DD086
S214012970002B0BD025E00F23FB180F22B9180D22D0
S214012980BA18097812780A431A701AE00D23FB1850
S2140129901B785BB2DB435BB20F22BA18127852B2D5
S2140129A013405AB20F23FB181A700AE00F23FB18C4
S2140129B00F22B9180D22BA18097812784A401A70EF
S2140129C0C0460F23FB181A78FB1D19780E23FB1837
S2140129D018780023044CA04700E0C046BD4605B069
S2140129E090BDC0468D2A0100ED290100B0B582B028
S2140129F000AF05000C0010001900FB1D2A1C1A7000
S214012A00BB1D221C1A707B1D021C1A703B1D0A1C62
S214012A101A703B1D1B7801225340DBB2002B0DD0F0
S214012A20BB1D1A78FB1D1B7811001800124B984726
S214012A3003001A007B1D1B78934218D07B1D1A7861
S214012A40BB1D1978FB1D1B7818000C4B9847FB1D06
S214012A501B7818000A4B9847BB1D1B781800094BBA
S214012A6098477B1D1B781800074B984700E0C04627
S214012A70BD4602B0B0BDC046E12201009D22010064
S214012A80C5270100FD2701002922010080B582B07B
S214012A9000AF0200FB1D1A70BB1D0A1C1A70BB1D7D
S214012AA01A78FB1D1B7811001800034B984703008A
S214012AB01800BD4602B080BDE122010080B584B099
S214012AC000AF78607B681B68FB60FB685B7EDBB2EF
S214012AD05BB2002B01DA012300E000231800BD469B
S214012AE004B080BD80B584B000AF78607B681B6899
S214012AF0FB60C0467B6818000B4B9847031EF9D154
S214012B00FB681B7BDBB202221343DAB2FB681A7343
S214012B10C0467B681800044B9847031EF9D1C0468F
S214012B20BD4604B080BDC046BD2A010080B584B054
S214012B3000AF78600A00FB1C1A707B681B68FB609C
S214012B40FB68FA1C12789A75C046BD4604B080BD73
S214012B5080B584B000AF0200FB1D1A70FB1D1A7809
S214012B60474B9200D358FB60FB681B681B7EDAB2AA
S214012B70FB681B68DB7DDBB21340DBB2BB60BB6866
S214012B800122134045D0FB681B6801221A76C04615
S214012B90FB6818003B4B9847031EF9D1FB685B693D
S214012BA0991CFA685161FA681268528B92B21A80BF
S214012BB0FB681B8B9BB2013B9BB2FA68191C118305
S214012BC0002B08D0FB685B7F002B22D0FB68180027
S214012BD02D4B98471DE0FB68012118002B4B9847A9
S214012BE0FB681B7FDBB2052B13D1FB6800221A772B
S214012BF0FB68DB7E1A00012313400AD0FB689B7E2C
S214012C001A000123134004D0FB689B68FA68100081
S214012C109847BB680422134014D0FB681B68042243
S214012C201A76FB68DB7E1A00022313400AD0FB6883
S214012C309B7E1A000223134004D0FB68DB68FA6807
S214012C4010009847BB680222134014D0FB681B682B
S214012C5002221A76FB68DB7E1A00042313400AD090
S214012C60FB689B7E1A000423134004D0FB681B6993
S214012C70FA6810009847C046BD4604B080BDC046FD
S214012C8048470020BD2A0100E52A01002D2B01003E
S214012C9080B500AF0020024B9847C046BD4680BDB8
S214012CA0512B010080B582B000AF0200FB1D1A70E7
S214012CB0074AFB1D1B7819001F230B400121994071
S214012CC00B0019008023D150C046BD4602B080BD1E
S214012CD000E100E080B584B000AF0200FB1D1A7071
S214012CE0FB1D1A78374B9200D358FB60FB681B68B4
S214012CF0BB60BB689B79DBB21A00012313400ED080
S214012D00BB6801229A71FB681433002B07D0FB685D
S214012D105B7C002B03D0FB689B6900209847BB684F
S214012D209B79DBB21A000223134047D0BB6802220C
S214012D309A71FB689B899BB2002B33D0FB689A681B
S214012D40FB68DB899BB2591C88B2F968C8815B00B5
S214012D50D3181B889AB2BB689A81FB689B899BB281
S214012D60013B9AB2FB689A81FB689B899BB2002B58
S214012D7018D1FB68202200219954BB6802221A71DF
S214012D80BB6802229A7119200F4B9847FB681433CF
S214012D90002B07D0FB689B7C002B03D0FB68DB690C
S214012DA000209847FB681433002B07D0FB681B7C78
S214012DB0002B03D0FB685B6900209847C046BD46E0
S214012DC004B080BD4C470020A52C010080B500AFA3
S214012DD00020024B9847C046BD4680BDD52C010059
S214012DE080B500AF024B9847C046BD4680BDC04681
S214012DF04952020080B500AF024B9847C046BD4617
S214012E0080BDC0469D52020080B586B000AF494BDA
S214012E109847494B1B8C9BB2DAB21723FB180F213C
S214012E200A401A701723FB181A78444B9200D3589D
S214012E303B61414A3B691B780F210B40D9B23F23C6
S214012E40D1543D490F23FB184E228A5C1A703B6908
S214012E501B783B4A1B01D31802331B889BB2BB600D
S214012E603B691B78374A1B01D31802331B889BB278
S214012E707B60BA687B68D21A3B695A610F23FB18DC
S214012E801B780122134016D02B4A4E230121D15420
S214012E903B6910225A743B691B7C1A0001231340BC
S214012EA042D03B695B68002B3ED03B695B683A6960
S214012EB01000984738E00F23FB181B7802221340B6
S214012EC016D01D4A4E230221D1543B6900225A7462
S214012ED03B691B7C1A000223134025D03B699B6883
S214012EE0002B21D03B699B683A69100098471BE08C
S214012EF00F23FB181B780422134015D00E4A4E23CD
S214012F000421D1543B6906225A743B691B7C1A0082
S214012F100423134008D03B69DB68002B04D03B69CF
S214012F20DB683A6910009847074B9847C046BD468C
S214012F3006B080BDE12D010000480041E0040020FC
S214012F405047002090040020F52D010080B582B086
S214012F5000AF154B1B697B60144B9B693B60124BA2
S214012F609A683B681A43104B9A60104B104A9A6154
S214012F7008E07B685A687B681B68180090477B6886
S214012F809B687B607B68002BF3D1074BDB683B605B
S214012F90054B9B683A68D2431A40034B9A60C04679
S214012FA0BD4602B080BDC0460C00002000040042B1
S214012FB0FFFF0F0F80B582B000AF02003960FB1D26
S214012FC01A70FB1D1B78012B0AD0022B0FD0002B89
S214012FD014D10E4B0D4A91693A680A439A610FE083
S214012FE00A4B0A4AD1693A680A43DA6108E0074B94
S214012FF0064A116A3A680A431A6201E0172300E09A
S21401300000231800BD4602B080BDC0460004004043
S21401301080B500AF02210220074B9847074B0122DB
S2140130201A70C046054B1B78DBB21A000123134009
S214013030F8D1C046BD4680BDB52F01000004004250
S21401304080B584B000AF78607B681B68FB60FB6866
S214013050DB69072213405A1E9341DBB21800BD46B6
S21401306004B080BD80B582B000AF7860C0467B6892
S2140130701800044B9847031EF9D1C046BD4602B05E
S21401308080BDC0464130010080B584B000AF786095
S2140130907B681B68FB60FB681B681B01DB0FDBB2F0
S2140130A01A000B23FB18511E8A411A700823FB18BD
S2140130B07A68528B1A807B689B8B9AB20823FB181E
S2140130C00821791809888A1A1A807B689B8B9BB21B
S2140130D0013B9AB27B689A830B23FB181B78002B63
S2140130E010D07B68DB7A002B1CD07B689B8B9BB255
S2140130F0012B17D1FB685B688022D2021A43FB685A
S2140131005A600FE07B68DB7A002B0BD07B689B8BC9
S2140131109BB2002B06D1FB685B688022D2021A4361
S214013120FB685A607B689B8B9BB2002B0ED17B6839
S2140131309B7A002B0AD07B6818000E4B9847FB68D9
S2140131405B68C02292021A43FB685A607B681800CB
S214013150084B98477B681A6A0823FB181B88D31804
S214013160FA682821525CD2B21A70C046BD4604B035
S21401317080BDC0466530010080B584B000AF786080
S2140131807B681B68FB60FB685B8B9BB21A000423A1
S214013190134004D07B6825221E21995424E00A237B
S2140131A0FB187A68528B1A807B689B8B9AB20A232B
S2140131B0FB180A21791809888A1A1A807B689B8B62
S2140131C09BB2013B9AB27B689A837B681800084BD6
S2140131D098477B681A6A0A23FB181B88D3181B7842
S2140131E0D9B2FB6828229954BD4604B080BDC046BA
S2140131F06530010080B584B000AF78607B681B68DD
S214013200FB60FB681B7EDBB21A00012313402BD048
S214013210FB6801221A76FB685B8B9BB21A000223BD
S214013220134004D07B682522412199541CE0FB6899
S2140132305B8B9BB21A000423134015D07B682522B2
S214013240182199547B6800229A837B689B7A002B0D
S2140132500AD07B681800134B9847FB685B68C0224E
S21401326092021A43FB685A607B689B8B9AB27B6812
S2140132705A837B6825229B5CDBB2052B0ED17B68CB
S21401328024229B5CDBB2002B04D17B681800064B22
S214013290984703E07B681800044B9847C046BD4634
S2140132A004B080BD6530010079310100893001002C
S2140132B080B584B000AFF860B960FB1D1A70FB1DC5
S2140132C01B78FA6802339B00D3180433BA681A6075
S2140132D0FB681B7EDBB25AB2FB1D1B7801219940AD
S2140132E00B005BB213435BB2DAB2FB681A76C046D8
S2140132F0BD4604B080BD000090B587B000AF7860D1
S21401330039607B681B683B613B685A687B681A6258
S2140133103B685A887B689A837B68242201219954EA
S2140133207B682522052199543B691B681B01DB0F2D
S214013330DBB21A000F23FB18511E8A411A703B6834
S2140133405B7A002B06D03B689A7A7B6811001800DE
S2140133503B4B98470F23FB181B78002B0BD03B6881
S2140133605B88012B07D13B695B688022D2021A4336
S2140133703B695A6005E03B695B68324A1A403B6923
S2140133805A603B681B7A002B45D03B681B885A0065
S2140133903B685B7A9B0313431A0080231B021A4384
S2140133A03B695A621723FC187B681800264B98471E
S2140133B0030023703B695B68224A1A403B695A60E6
S2140133C01723FB181B78002B07D11723FC187B68E3
S2140133D018001E4B9847030023701723FB181B7811
S2140133E0002B14D13B6903229A753B681B881B0A84
S2140133F09BB2782213439BB25A003B685B7A9B03CD
S2140134001343012213431A003B695A6212E0172341
S214013410FB181B780FE03B6903229A753B681B88F3
S2140134205B0001221A433B685B7A9B0313431A0035
S2140134303B695A6200231800BD4607B090BDC046DE
S214013440316D0100FFFFFBFFD36C0100756C0100BD
S21401345080B582B000AF786039607B689B8B9BB289
S214013460002B01D005230CE07B6801229A727B6851
S2140134700122DA723A687B6811001800034B9847FC
S21401348003001800BD4602B080BDC046F9320100F7
S21401349080B584B000AF786039607B681B68FB60DC
S2140134A03B685B7A002B06D03B689A7A7B681100F2
S2140134B018001E4B9847FB685B681D4A1A40FB685C
S2140134C05A603B685A687B681A623B685A887B6810
S2140134D09A837B682422002199547B682522052142
S2140134E09954FB6803229A753B681B7A002B0DD012
S2140134F03B681B885A003B685B7A9B0313431A00A0
S21401350080231B021A43FB685A6209E03B681B884A
S2140135105A003B685B7A9B0313431A00FB685A62A6
S21401352000231800BD4604B080BDC046316D0100C1
S214013530FFFFFBFF80B582B000AF786039607B6823
S2140135409B8B9BB2002B01D005230CE07B680122EC
S2140135509A727B680122DA723A687B681100180059
S214013560034B984703001800BD4602B080BDC04615
S2140135709134010080B586B000AF0200FB1D1A70C1
S214013580FB1D1A78934B9200D3587B617B691B68AD
S2140135903B613B691B681B01DB0FDBB21A000F2383
S2140135A0FB18511E8A411A700E23FB187A69527E47
S2140135B01A707B691B7EDAB20E23FB180E2179186E
S2140135C009780A401A707B695B8B9BB2002B09D184
S2140135D07B699B8B9BB2002B04D07B6918007E4BCA
S2140135E0984770E07B695B8B9BB2002B39D07B6977
S2140135F09B8B9BB2002B34D17B6925229B5CDBB273
S214013600052B2ED17B6924229B5CDBB2002B28D1B3
S2140136103B6903221A757B6900225A837B6925223E
S214013620002199547B699B7A002B0BD07B6918008B
S2140136306A4B98473B695B68C02292021A433B6912
S2140136405A6002E03B6901221A760E23FB181B78AA
S2140136500122134037D07B69DB687A6910009847EE
S21401366031E07B695B8B9BB2002B2CD07B699B8BFB
S2140136709BB2002B27D03B695B8B9BB21A002023A1
S214013680134011D10F23FB181B7801225340DBB2E4
S214013690002B04D17B699B8B9BB2012B04D07B69E9
S2140136A02522412199540EE07B6924229B5CDBB2E2
S2140136B0002B04D17B691800494B984703E07B69CE
S2140136C01800484B98477B695B8B9BB2002B47D011
S2140136D07B699B8B9BB2002B42D17B6925229B5C2D
S2140136E0DBB2052B3CD17B6924229B5CDBB2012B30
S2140136F036D13B691B7EDBB21A000223134002D08F
S2140137003B6902221A763B6903221A757B690022FD
S2140137105A837B692522002199540E23FB181B78B6
S214013720022213400BD07B6924229B5CDBB2012B67
S21401373005D17B691B697A691000984710E00E2352
S214013740FB181B78012213400AD07B6924229B5C5C
S214013750DBB2002B04D17B69DB687A6910009847DD
S2140137607B6925229B5CDBB2052B2ED07B6925224B
S2140137709B5CDBB2002B28D03B6903221A757B6960
S21401378000225A837B6900229A837B6925229B5CEF
S214013790DBB2412B0ED07B699B7A002B0AD07B696A
S2140137A018000E4B98473B695B68E022D2021A4329
S2140137B03B695A600E23FB181B780422134004D081
S2140137C07B695B697A6910009847C046BD4606B0BA
S2140137D080BDC046CC5B0020F5310100653001009C
S2140137E0793101008930010080B500AFBFF34F8FFA
S2140137F0024B034ADA60BFF34F8FFEE700ED00E0AD
S2140138000400FA0580B500AF024B9847C046BD4696
S21401381080BDC046E937010080B586B000AF78604C
S2140138209C4B18009C4B98479C4B18009A4B98470A
S2140138309B4B1800984B98479A4B1800964B984705
S214013840994B1800944B9847984B1800924B984701
S214013850974B1800904B9847964B18008E4B9847FD
S2140138601723FB1800221A70934B1800934B9847A6
S214013870032200210120924B98470200914B1A60C7
S214013880904B1B68002B07D18F4B190003208F4BE1
S214013890984700208E4B98470C23FB1818008D4B39
S2140138A098470C23FB181B780A2B04D00C23FB1813
S2140138B01B780D2B37D1884B1800804B9847874BC8
S2140138C000221A70864B00221A708649864B3122D6
S2140138D01800864B9847844B31220021995484491D
S2140138E0804B64221800834B984703003B61804B52
S2140138F06322002199547E4B1800704B98473B6910
S214013900002BECD11723FB1800221A70754B3222BC
S21401391000211800784B9847754B64220021180047
S214013920754B9847B5E06D4B1B78002B59D06C4B07
S2140139301B78032B0CD86A4B1B785A1CD1B2684AE9
S21401394011701A000C23FB1819786C4B995405E07A
S214013950624B00221A70624B00221A70604B1B7871
S214013960012B99D9664A654B11001800654B98479B
S214013970031E2FD064495B4B1B221800634B9847EC
S214013980584B18004D4B98471723FB1800221A7006
S214013990544B322200211800574B98475249514B3D
S2140139A031221800514B98474E4B1800584B9847F8
S2140139B00300302B06D84C4B1800554B9847030094
S2140139C0DAB200E031221723FB181A70454B1800B3
S2140139D03A4B9847414B00221A70414B00221A700D
S2140139E05AE70C23FB181B780D2B00D154E70C2348
S2140139F0FB181B78082B04D00C23FB181B787F2B95
S214013A001CD10823FB18434A12681A600823FB18C6
S214013A1018002A4B98471723FB181B78002B37D022
S214013A201723FB181A781723FB18013A1A70172365
S214013A30FB181B782B4A0021D15429E00C23FB18D4
S214013A401B781B2B06D1254B01221A70244B002212
S214013A501A7021E71723FB181B78312B0ED8172372
S214013A60FB181B780C22BA1811781E4AD15417235A
S214013A70FB181A781723FB1801321A700C23FB184F
S214013A8000225A700C23FB1818000C4B984703E7CA
S214013A90C04601E7F85D0300796E0100685E030029
S214013AA0085E0300285E0300185E0300385E03000C
S214013AB0485E0300585E0300D45B0300A5CD0100F9
S214013AC045940100A0470020245D030091CE01002B
S214013AD031B20100193B0100445D030004050020DA
S214013AE0050500203C050020080500204B49030081
S214013AF070050020E96E01007F450300D405002013
S214013B00485D0300814803004C5D03003D48030007
S214013B101B490300545D030080B584B000AF786094
S214013B207B6818000C4B98470300FB600DE00B4BBD
S214013B301A6801235B4219001000094B98477B68FD
S214013B401800054B98470300FB60FB680133EED075
S214013B50C046BD4604B080BD41CE0100A04700204E
S214013B60FDA3010080B500AF0A4B00221A600A4B84
S214013B701B68084A11001800084B9847054B1B683C
S214013B80002B03D0064B802252051A60C046BD4664
S214013B9080BDC046D8050020A0470020759D0100C5
S214013BA004ED00E090B587B000AFF860B9607A60C8
S214013BB01723FB181B221A701723FB181B78084AB9
S214013BC008480F21084CA047064AB968FB68180048
S214013BD0054B984700231800BD4607B090BDC04668
S214013BE0585D0300F4040020D947030080B584B073
S214013BF000AFF860B9607A600220034B9847002353
S214013C001800BD4604B080BD8964010080B584B04B
S214013C1000AFF860B9607A60034B9847002318003C
S214013C20BD4604B080BDC0460538010080B586B0EB
S214013C3000AFF860B9607A601023FB1806221A708C
S214013C401023FB181800094B984703007B617B691A
S214013C50012B05D1064AB968FB681800054B984741
S214013C6000231800BD4606B080BDC046BD640100F5
S214013C70605D0300D947030080B584B000AFF860EB
S214013C80B9607A600220034B984700231800BD46AE
S214013C9004B080BD594D010080B584B000AFF86016
S214013CA0B9607A600320034B984700231800BD468D
S214013CB004B080BD594D010090B5ABB000AFF860BF
S214013CC0B9607A60334B9847334B9847C04600201B
S214013CD0324B984703001A0020231340202BF6D1BD
S214013CE02F4B98470300A422BA181360A423FB188D
S214013CF01B689022BA18110018002A4B9847902387
S214013D00FB181B68284A502178184021274CA047E9
S214013D105023FB181800264B98479023FB181B6866
S214013D209AB29823FB181A809023FB185B689AB204
S214013D309823FB185A809823FB1818001D4B9847A8
S214013D400300A022BA181360A023FB181B68012BDE
S214013D5005D1194AB968FB681800144B9847174BE8
S214013D6098479F23FB1864221A709F23FB181A7822
S214013D7013491023FB181800124B9847124B1022B8
S214013D80B81808220021114CA04700231800BD4690
S214013D902BB090BD05490100A1490100ED47010086
S214013DA05D4A0100814A0100785D0300D94703009E
S214013DB0A5CD0100E96401009C5D03007D2801009A
S214013DC0B45D03003D4803000000002021270100E8
S214013DD090B58FB000AFF860B9607A601823FB1811
S214013DE000221A701823FB1800225A701823FB1899
S214013DF000221A701823FB1800225A701C23FB1885
S214013E0000221A701C23FB181422BA189A601C236D
S214013E10FB180122DA811C23FB181822BA185A60F3
S214013E201C23FB1801229A812C4B18002C4B984717
S214013E3000237B6346E07B6B2A4A2B480F212B4CE1
S214013E40A047294B1800264B984700233B632FE0D9
S214013E507B6BDAB23B6BDBB2D318DBB2DB18DAB2C0
S214013E601C23FB181A701C23FB1864211800204B16
S214013E7098470300FB62FB6A002B0CD11C23FB183E
S214013E801B78184A18480F21184CA047164B1800E3
S214013E90134B984709E0144B164A118819809278FB
S214013EA09A70114B18000E4B98473B6B01333B63DE
S214013EB03B6B0F2BCCDD104B1800094B98477B6BE7
S214013EC010337B637B6B7F2BB5DD0B4B1800044BEC
S214013ED0984700231800BD460FB090BDB85D03009B
S214013EE0A5CD0100EC5D0300F4040020D9470300D2
S214013EF0F1440100F45D0300445D030080B582B027
S214013F0000AF0200FB1D1A70064BFA1D1278110055
S214013F101F220A40012191400A001A60C046BD4690
S214013F2002B080BD00E100E080B584B000AF7860EB
S214013F307B681B68FB60FB68DB69072213405A1E1F
S214013F409341DBB21800BD4604B080BD80B582B097
S214013F5000AF7860C0467B681800044B9847031E84
S214013F60F9D1C046BD4602B080BDC046293F01001A
S214013F7080B582B000AF78607B6864221A607B6887
S214013F801B4A5A607B6800229A607B6800221A737B
S214013F907B6800221A767B68802292031A617B680E
S214013FA001225242DA827B68012252429A827B685F
S214013FB00022DA617B6800221A627B6824220021D3
S214013FC099547B6800229A627B682C2200219954BE
S214013FD07B682D22002199547B682E22002199545A
S214013FE07B68D7221A86C046BD4602B080BDC04651
S214013FF0480D000080B584B000AF78607B681B6810
S214014000BB600023FB607B681800144B9847BB68B5
S2140140101B6802221A43BB681A607B681B6818007B
S2140140200F4B9847030018000E4B98470CE0FB68AF
S2140140300133FB607B68DB881A00FB689A4203D871
S214014040BB6810225A8306E0BB685B8B9BB21A00E2
S21401405010231340EBD0BD4604B080BD4D3F010098
S2140140601D670200FD3E010080B582B000AF78609A
S2140140700A00FB1C1A707B685B7EDBB25AB2FB1C23
S2140140801B78012199400B005BB213435BB2DAB295
S2140140907B685A76C046BD4602B080BD90B591B0E9
S2140140A000AF0023FB633A23FB1800221A703B1D66
S2140140B01800214B98473B1D204ADA613B1D204AD8
S2140140C01A623B1DFA229200DA823B23FB18032276
S2140140D01A701EE03A23FC183A1D1A491A4B1800AA
S2140140E01A4B9847030023703A23FB181B78002BC2
S2140140F004D13A23FB181B78FB630FE0124B180020
S214014100134B98473B23FB181A783B23FB18013ABD
S2140141101A703B23FB181B78002BDBD1FB6B002BA3
S21401412004D1094B18000B4B984700E0C046FB6BC7
S2140141301800BD4611B090BD713F01000200080095
S2140141400200090000080042A8470020D96A0100C1
S2140141500D6C0100F53F010080B584B000AF7860BA
S2140141600E4B00221A700D4B01229A600023FB6051
S2140141700B4B1B680C22BA1811001800094B984704
S214014180094B00221A70FB68002B03D0074B8022D4
S21401419052051A60C046BD4604B080BDE005002049
S2140141A0D0470020759D0100DC05002004ED00E0ED
S2140141B080B584B000AF78600E4B00221A700D4BAC
S2140141C001229A600023FB600B4B1B680C22BA1875
S2140141D011001800094B9847094B00221A70FB681A
S2140141E0002B03D0074B802252051A60C046BD46FD
S2140141F004B080BDE0050020D0470020759D010079
S214014200DC05002004ED00E080B584B000AF7860E6
S2140142100E4B00221A700D4B01225A600023FB60E0
S2140142200B4B1B680C22BA1811001800094B984753
S214014230094B01221A70FB68002B03D0074B802222
S21401424052051A60C046BD4604B080BDE005002098
S214014250D0470020759D0100DC05002004ED00E03C
S21401426080B500AF1149124B00221800114B984738
S2140142700F4B00211800104B984710490C4B012298
S21401428018000C4B98470A4B012118000A4B984717
S2140142900B49074B02221800064B9847044B022194
S2140142A01800054B9847C046BD4680BD59410100E0
S2140142B0A8470020B132010069400100B141010068
S2140142C00942010080B582B000AF00237B60144B29
S2140142D0984703007B607B68002B1AD1114B9847E7
S2140142E00120114B98470200104B1A60032200214F
S2140142F001200F4B984702000E4B1A600B4B1B68B0
S214014300002B03D00B4B1B68002B03D106237B60CD
S21401431000E0C0467B681800BD4602B080BDC046BE
S2140143209D40010061420100AD960100A4470020B6
S21401433045940100D047002090B585B000AF786065
S2140143400023FB607B68002B03D07B685B68002B37
S21401435003D108235B42FB601FE07B681B789AB29F
S214014360104B1A807B685A680E4B5A607B68DA8954
S2140143700C4B5A800B23FC180A4A0B4B11001800F1
S2140143800A4B9847030023700B23FB181B78002B5E
S21401439003D006235B42FB60C046FB681800BD469F
S2140143A005B090BDD4470020A84700203535010050
S2140143B090B585B000AF78600023FB607B68002B6A
S2140143C003D07B685B68002B03D108235B42FB604C
S2140143D01FE07B681B789AB2104B1A807B689A683C
S2140143E00E4B5A607B689A890C4B5A800B23FC183B
S2140143F00A4A0B4B110018000A4B9847030023701A
S2140144000B23FB181B78002B03D006235B42FB60B3
S214014410C046FB681800BD4605B090BDD4470020D5
S214014420A84700205134010090B583B000AF0023A7
S2140144307B60094B1868002300220021074CA04727
S2140144400300012B02D014235B427B607B681800BB
S214014450BD4603B090BDC046A4470020ED960100BE
S21401446080B584B000AF78600023FB60084B1B6802
S2140144707A6811001800074B98470300012B02D0F9
S2140144801D235B42FB60FB681800BD4604B080BD7F
S214014490A4470020FDA3010080B584B000AF78607A
S2140144A00023FB60044B1A687B681A60FB681800DF
S2140144B0BD4604B080BDC046D047002080B500AFE1
S2140144C0024B1B781800BD4680BDC046DC050020A7
S2140144D080B582B000AF0200FB1D1A70034BFA1DB7
S2140144E012781A70C046BD4602B080BDDC050020B9
S2140144F080B584B000AF786039600023FB6000238C
S214014500BB6096235B001800284B98470300FB60AE
S214014510FB68002B38D10823FB181800244B98475A
S2140145200300FB60FB68002B30D17B681800214B31
S21401453098470300FB60FB68002B2AD1BB683A68EA
S214014540110018001C4B98470300012B11D11B4B7F
S2140145509847031E11D00020194B9847FB68002B83
S21401456003D021235B42FB6014E003235B42FB6024
S21401457010E003235B42FB600CE0124B98470200FD
S214014580FB681343FB6002E0C04600E0C046FB68E0
S21401459007E0C0460B4B98470200FB681343FB60DD
S2140145A0FB681800BD4604B080BDC04661440100EA
S2140145B09944010039430100FDA30100BD440100F7
S2140145C0D14401002944010080B586B000AFF860EF
S2140145D0B9607A6000237B6100233B6196235B0010
S2140145E01800354B984703007B617B69002B55D13A
S2140145F01023FB181800314B984703007B617B6939
S214014600002B4DD1FB6818002D4B984703007B61AA
S2140146107B69002B47D13B697A6811001800294B4A
S21401462098470300012B18D1274B9847031E06D045
S2140146300020264B984703235B427B6134E0BB682E
S2140146401800234B9847FB681800224B9847030035
S2140146507B617B69002B04D026E003235B427B61F0
S21401466022E03B697A6811001800164B9847030050
S214014670012B0AD1144B9847031E0AD00020134B76
S214014680984703235B427B610EE003235B427B6119
S2140146900AE0114B984703007B6102E0C04600E048
S2140146A0C0467B6903E0C0460B4B98477B69180000
S2140146B0BD4606B080BDC046614401009944010074
S2140146C039430100FDA30100BD440100D1440100AE
S2140146D051B10100B14301002944010080B596B0F3
S2140146E000AFF86008007A6019000B23FB18021C63
S2140146F01A700823FB180A1C1A8000233B65194B05
S2140147000B22BA1812781A7000237B650AE07B6DBB
S21401471001337A6D79688A181178124AD1547B6D03
S21401472001337B650823FB181A887B6D9A42EEDC01
S2140147300D4B2A221A700C4B0A4A5A600823FB18A2
S2140147401B8801339AB2084BDA81074B64211800A3
S214014750064B984703003B653B6D1800BD4616B0F7
S21401476080BDC046E447002024480020F1440100F3
S21401477080B596B000AFF86008007A6019000B2388
S214014780FB18021C1A700823FB180A1C1A80002347
S2140147907B65134B2A221A70114B0822BA1812880D
S2140147A09A810F4B7A689A600E4B0B22BA181278D0
S2140147B01A700C4B00225A70094B0A4A5A60084B71
S2140147C00122DA81064B642205211800064B984720
S2140147D003007B657B6D1800BD4616B080BDC046E4
S2140147E024480020E4470020C945010090B585B063
S2140147F000AF0200FB1D1A70074B1868074AFB1D25
S21401480019780123064CA0470300FB60034B1B7875
S2140148101800BD4605B090BDE0470020F405002015
S2140148207147010090B585B000AF0200FB1D1A70FC
S214014830BB1D0A1C1A70084B1868BA1DFB1D197897
S2140148400123064CA0470300FB60FB68DBB218009F
S214014850BD4605B090BDC046E0470020DD460100DC
S21401486090B583B000AFFB1D00221A70FC1D02201C
S214014870214B984703002370FB1DFA1D1278072170
S2140148808A431A70FB1DFA1D12781A70FB1D1B78DD
S21401489019000220194B9847FB1DFA1D12780421B6
S2140148A00A431A70FB1D1B7819000220134B984708
S2140148B03220134B9847FC1D02200F4B98470300EC
S2140148C02370FB1D1B780422134000D0F0E7C0467E
S2140148D0FB1DFA1D127808210A401A70FB1D1B7871
S2140148E00822134000D0C1E7C0460120044B984778
S2140148F0C046BD4603B090BDED4701002548010006
S2140149005DF1010080B582B000AFFB1D00221A7078
S214014910FB1D01221A70FB1D1B78190000201D4B80
S214014920984701201C4B9847FB1D02221A70FB1D5D
S2140149301B7819000020174B98473220164B9847D2
S214014940FB1D27221A70FB1D1B7819000120114B35
S21401495098470120104B9847FB1D86221A70FB1DB5
S2140149601B78190000200B4B984701200A4B9847EB
S214014970FB1D30221A70FB1D1B7819001520054BF4
S21401498098470120044B9847044B9847C046BD46BC
S21401499002B080BD254801005DF1010061480100BB
S2140149A090B583B000AFFB1D00221A70FC1D0020DD
S2140149B0094B984703002370FB1DFA1D127810213E
S2140149C00A431A70FB1D1B7819000020034B9847F9
S2140149D0C046BD4603B090BDED4701002548010025
S2140149E080B588B000AFBA607B600F23FB18021C4D
S2140149F01A700E23FB180A1C1A700220144B9847D3
S214014A000300FB61FB69DBB219000220114B9847DA
S214014A100120114B984712200D4B98470300FB616C
S214014A2013200B4B98470300BB611420084B984793
S214014A3003007B61FB691A04BB691B021A437B698D
S214014A4013433B613B691800BD4608B080BDC046B4
S214014A50ED470100254801005DF1010090B583B0E6
S214014A6000AF3A00032312212A20044CA04703007A
S214014A707B607B681800BD4603B090BDE14901002C
S214014A80B0B592B000AF7860396006207D4B98478C
S214014A9003001A002C23FB181A700720794B98473D
S214014AA003001A002C23FB185A700820754B9847F0
S214014AB003001A002C23FB189A700920714B9847A3
S214014AC003001A002C23FB18DA7003206D4B98475D
S214014AD003001A002823FB181A700420694B984714
S214014AE003001A002823FB185A700520654B9847C7
S214014AF003001A002823FB189A700023FB6302E0C8
S214014B00FB6B0133FB63FB6B032BF9DD1F23BB63DD
S214014B102CE0BB6B002B00DA0733DB105B42033360
S214014B202C22BA18D35C1900BB6B574A134004D524
S214014B30013B082252421343013319410B00012263
S214014B401340BA6B173A51494A43022191400A0071
S214014B505A434F4B10009847021C4E4B111C786C61
S214014B609847031C7B64BB6B013BBB63BB6B002B91
S214014B70CFDA16237B632CE07B6B002B00DA07333E
S214014B80DB105B4202332822BA18D35C19007B6B18
S214014B903D4A134004D5013B0822524213430133D8
S214014BA019410B00012213407A6B173A37494A43E1
S214014BB0022191400A005A43354B10009847021CC7
S214014BC0344B111C386C9847031C3B647B6B013BD0
S214014BD07B637B6B002BCFDA2823FB181B78DB0962
S214014BE0DBB21A0001239B1A01221A40284B10003F
S214014BF09847021C284B111C386C9847031C3B64D1
S214014C00264B2749786C9847031C1C1C204B786858
S214014C109847051C214B2249386C9847031C1A1CDF
S214014C20204B111C281C9847031C1A1C1A4B111CDC
S214014C30201C9847031C3B631B4B386B98470300AB
S214014C409AB23B681A803B689C1C3B681B881A001A
S214014C500F4B10009847021C124B111C386B9847DB
S214014C60031C1A1C0C4B0E49101C9847031C1A1CDB
S214014C700E4B101C984703009BB22380C046BD46CE
S214014C8012B0B0BDED4701000700008010270000FC
S214014C90A1290300351E0300E9230300592103005F
S214014CA000401C462926030061290300051E030057
S214014CB080B584B000AF78607B681B68FB60C04637
S214014CC0FB689B6802221340FAD1FB681B6802222C
S214014CD01A43FB681A60C046BD4604B080BD00009A
S214014CE080B5AAB000AF154A3B1D11001800144B41
S214014CF098473B1D0222DA723B1D124A5A603B1D41
S214014D0002221A763B1D104A5A623B1D9A22012145
S214014D1099543B1D0A221A663B1D80220521995093
S214014D203A1D0649094B1800094B9847074B1800CE
S214014D30084B9847C046BD462AB080BD00200042B9
S214014D409D9302002EBA0000175D00003448002033
S214014D50F9990200B14C010080B584B000AF7860CB
S214014D60074B7968074898470300FB60FA68064BCB
S214014D7002211800054B9847C046BD4604B080BDC9
S214014D80D91B03002EBA000034480020B99E020049
S214014D9090B59FB000AF7860404B1800404B9847E5
S214014DA0404B98470220404B9847404B9847404B12
S214014DB0404808220021404CA0473D4B3F48122264
S214014DC000213D4CA0477723FB1800221A7076235A
S214014DD0FB1800221A707423FB1800221A80722313
S214014DE0FB1800221A807123FB1800221A70344B1C
S214014DF09847344B9847C0460020334B98470300EA
S214014E001A0020231340202BF6D1304B984703007D
S214014E10FB66FB6E4822BA18110018002C4B984707
S214014E204823FB181A884C23FB181A804823FB18C2
S214014E305A884C23FB185A804C23FB181800254B24
S214014E4098470300BB667723FB181B78642B07D0B3
S214014E507723FB187722BA18127801321A7016E0F7
S214014E607723FB1800221A704823FB181B881A00A8
S214014E704823FB185B88184950203818174CA04760
S214014E800B4B5022B818082200210B4CA047FA23DE
S214014E905B001800124B9847ABE7C046785E0300EC
S214014EA0A5CD0100E14C0100594D01007D2801000E
S214014EB0000000208C5E030021270100945E0300A1
S214014EC005490100A1490100ED4701005D4A0100C5
S214014ED0814A0100E96401009C5E03003D4803002D
S214014EE051B1010080B500AFBFF34F8F024B034AAB
S214014EF0DA60BFF34F8FFEE700ED00E00400FA052D
S214014F0080B584B000AF0200FB1D1A700F23FB189A
S214014F10FA1D1278D2091A700E23FB18FA1D1278A0
S214014F2052091A700D4BBB600F23FB181B78002B20
S214014F300FD10F23FB181B789B0010229446BC440C
S214014F406344083B1A680E23FB181B78DB01D31851
S214014F5000E000231800BD4604B080BD00440041B7
S214014F6080B500AF024B9847C046BD4680BDC046DF
S214014F70E54E010080B582B000AF0200FB1D1A703D
S214014F80FB1D1B781800034B984703001800BD460D
S214014F9002B080BD014F010080B584B000AF0200B1
S214014FA0FB1D1A70BB1D0A1C1A70FB1D1B7818000E
S214014FB00D4B98470300FB60FB1D1B781F22134017
S214014FC001229A401300BB60BB1D1B78002B03D047
S214014FD0FB68BA689A6102E0FB68BA685A61C04623
S214014FE0BD4604B080BDC046754F010080B500AF18
S214014FF0024B00221A70C046BD4680BD0506002041
S21401500080B582B000AF0200FB1D1A70FB1D1B7835
S2140150105BB2DB435BB2064A127852B213405BB214
S214015020DAB2034B1A70C046BD4602B080BDC04618
S2140150300506002080B582B000AF0200FB1D1A7085
S214015040054B1A78FB1D1B781343DAB2024B1A7014
S214015050C046BD4602B080BD0506002080B582B0C0
S21401506000AF0200FB1D1A70064B1B78FA1D127862
S2140150701340DBB25A1E9341DBB21800BD4602B0A4
S21401508080BDC0460506002090B585B000AF7860AB
S21401509039607B68002B02D03B68002B01D10023CE
S2140150A013E00F23FC1839680A4B002218000A4B3C
S2140150B0984703002370074B1800084B98470F23A7
S2140150C0FB181B785A425341DBB21800BD4605B0A7
S2140150D090BDC04638080020CDCA0200CDD40200DB
S2140150E080B59EB000AFF860B960FB1D1A707623DC
S2140150F0FB1801221A807423FB1800221A806E23E3
S214015100FB1800221A807223FB1800221A8024231F
S214015110FB18180041231A000021924B98471823C8
S214015120FB18180009231A0000218E4B98471423F8
S214015130FB1800221A600023BB667123FB180022AD
S2140151401A70BB68002B01D1002306E1BA68FB6820
S21401515011001800844B984703001A00012353409E
S214015160DBB2002B01D00123F7E0BB6818007F4BB0
S21401517098470300402B01D90023EEE0BB682E219F
S21401518018007B4B98470300BB66BB6E002B52D0C2
S214015190BB6E1800754B984702006E23FB181A80E9
S2140151A06E23FB181B88072B37D87123FB180122A7
S2140151B01A70BA6E1823FB18110018006D4B984729
S2140151C0BB681800694B984702006E23FB181B88C2
S2140151D0D31A3C2B11D97423FB186E22BA181288E5
S2140151E03C218A1A1A807423FB181A88B96824236A
S2140151F0FB181800604B98472AE0BA6EBB68D21AB3
S2140152007423FB181A807423FB181A88B9682423A0
S214015210FB181800584B98471AE07423FB183C22D9
S2140152201A807423FB181A88B9682423FB181800FF
S214015230514B98470CE07423FB183C221A807423C8
S214015240FB181A88B9682423FB1818004A4B98479C
S2140152507423FB181B887422BA18591C11801A0073
S2140152602423FB182D2199547623FB1800221A803B
S2140152707223FB1801221A8010E07223FA18722397
S214015280FB181B88191C8900CB18DB1813807623A2
S214015290FB181A887623FB1801321A807623FB182E
S2140152A01B88022BE9D97623FB1801221A804BE0D2
S2140152B07623FB181A8831491423FB181800304B43
S2140152C098477423FB181B882422BA18D318142273
S2140152D0B91803221800284B98477123FB181B782E
S2140152E0002B0CD07423FB181B8803332422BA1816
S2140152F0D3181822BA18110018001E4B98472423F9
S214015300FA18FB6811001800174B984703001A009B
S21401531001235340DBB2002B0FD0FB1D1A78BB686C
S214015320002118000F4B98472423FA18BB68110078
S2140153301800104B984701230FE07623FB181A88B4
S2140153407623FB1801321A807623FA187223FB188B
S21401535012881B889A42ABD300231800BD461EB0A4
S21401536080BDC0467F450300895001001B490300EC
S21401537075490300D14803004B490300B85E03009A
S2140153803D48030090B583B002AF0120224B9847F9
S21401539003001A0001235340DBB2002B05D01F4B3C
S2140153A0190001201E4B984732E002201A4B9847FD
S2140153B003001A0001235340DBB2002B05D0194B22
S2140153C019000120164B984722E00420124B9847FB
S2140153D0031E05D0144B19000120114B984717E006
S2140153E008200D4B9847031E05D0104B19000120CD
S2140153F00B4B98470CE00E4B19000120084B9847C1
S2140154000C490D4800230093002301220B4CA047B2
S214015410BD4601B090BDC0465D500100C05E0300B0
S21401542091CE0100EC5E0300185F0300445F0300A9
S214015430705F03009C5F0300CC480020210103003D
S214015440B0B586B000AF786039607B68002B02D0BB
S2140154503B68002B05D1584B19000120574B984744
S214015460A6E00820564B984703001A000123534034
S214015470DBB2002B55D000237B61524B30221A70D1
S214015480504B3A225A70504B7B6102E07B69013BDC
S2140154907B617B691B782F2BF8D17B6918004B4BFE
S2140154A098470300012B24D97B6901337B617A6914
S2140154B0474B11001800474B98474249464B40223C
S2140154C01800464B98473F4A454B190001203B4B75
S2140154D098471323FC183B493F4B0A221800414BBF
S2140154E09847030023701323FB181B78002B12D058
S2140154F008E03D4B19000120304B984720203B4BDC
S214015500984755E01323FB181A78394B19000120E8
S2140155102A4B98474CE0374B00221A600820334B41
S21401552098477B68002B43D00023FB601323FC18AD
S2140155300C23FB183A68796827482F4DA8470300C3
S21401554023701323FB181B78002B0CD0224B18005A
S2140155502A4B98472020254B9847294B19000120B4
S214015560164B984724E0234B1A68FB68D218214B48
S2140155701A60204B1A68234B1B68234901200F4CE5
S214015580A0471C4B1A681F4B1B689A4210D3124B3C
S21401559018001A4B98471D4B19000120074B9847D6
S2140155A0002117201A4B98471020104B9847C046E9
S2140155B0BD4606B0B0BDC046BC5F030091CE01003B
S2140155C05D500100A4000020BB5F03001B490300DF
S2140155D0A6000020D148030038080020E150010051
S2140155E020600300CDCA0200E05F030035500100D1
S2140155F04860030060080020FDCF0200CDD4020001
S2140156007C6003005C080020B8600300EC600300C7
S214015610994F010090B585B000AFF860B9607A6027
S214015620BB68042B00D977E0BB689A003C4BD318C3
S2140156301B689F463B4B190001203B4B98476BE08C
S2140156403A4B19000120384B98470420384B9847AD
S21401565062E07B681B881A007B685B68354901201D
S214015660314CA0477B681B88C82B0DD17B685A68D4
S214015670314B1A60314B00221A607B685A688023CE
S2140156809B009A4243D803E02020294B984743E0E9
S2140156907B689A687B685B6819001000284B9847FE
S2140156A01020234B984732E07B685A687B681B685A
S2140156B019001000224B98477B681B7A002B28D0D4
S2140156C010201B4B984724E07B681A681D4B190075
S2140156D00120154B98477B681B680B331BD10820AC
S2140156E0194B9847031E06D0184B1800184B9847BD
S2140156F00820184B98470420134B9847031E02D0E6
S2140157000420144B9847144B9847C04603E0C04604
S21401571002E0C04600E0C046BD4605B090BDC046AA
S214015720606703002061030091CE01005861030009
S21401573035500100846103005C08002060080020E9
S21401574041540100C06103005D500100380800208B
S214015750CDD40200015001008553010080B582B00E
S21401576000AF3A60FB1D021C1A70BB1D0A1C1A70A2
S2140157703A68BB1D1978FB1D1B785BB21800034BFA
S2140157809847C046BD4602B080BDC04631FE020005
S214015790B0B586B004AF786039603B68FF2213402D
S2140157A01C003B681B0A1A00FF2313403A68120CC0
S2140157B01100FF220A403968090E0D007868094970
S2140157C0029501920093230002000120064CA04797
S2140157D03A687B6811001800044B9847C046BD46DE
S2140157E002B0B0BDF061030091CE010095FF02004A
S2140157F090B587B002AF02003960FB1D1A70FB1D21
S2140158001B782C2B02D0322B3DD06FE03B68FB601F
S214015810FB681B78012B07D1364B19000120364B4C
S2140158209847364B98475EE0FB681B78002B5AD1A9
S214015830334B19000120304B98470220314B9847D3
S2140158400820314B9847031E06D0304B1800304BCA
S214015850984708202B4B984704202B4B9847031E4C
S21401586002D00420274B98472A4B012118002A4BC7
S21401587098472A4A2A48FF2300931300022202214E
S214015880284CA0472FE03B68BB60BB681B7818001C
S214015890BB6801331B781C00BB6802331B781A00F7
S2140158A0BB6803331B782049019300922300020052
S2140158B00120114CA04702201C4B98471C4B1B781B
S2140158C0012B02D11B4B98470FE01B4A114B1100CD
S2140158D018001A4B9847031E07D0194B19000120D0
S2140158E0054B984701E0C04600E0C046C046BD46AD
S2140158F005B090BD2062030091CE0100D5140200D0
S21401590040620300015001005D500100380800208C
S214015910CDD4020064080020DDEA020064620300C0
S214015920706203000110020074620300355001002A
S2140159300406002085530100A45E0300A9E90200C5
S2140159409C62030090B583B000AF294B9847294B62
S21401595019000120284B9847FC1D0020274B98472B
S21401596003002370FB1D1B78012B10D1244B19005B
S2140159700120214B9847234B190001201E4B9847C5
S214015980C0460020204B98470300022BF9D1FB1D8F
S2140159901B78002BE0D11D4B19000120164B9847B0
S2140159A08C239A001A4B002118001A4B9847BC1DED
S2140159B0174B19000020184B984703002370BB1D96
S2140159C01B780B2B07D1BB1D1A78144B190001202D
S2140159D0094B984708E0124B19000120064B9847DF
S2140159E00120104B9847C046BD4603B090BDC04647
S2140159F0A9DC0100C062030091CE010085E101002F
S214015A00F862030020630300F9DC0100546303001D
S214015A10080600207F45030075CA0200786303006C
S214015A20A86303003550010080B582B000AF3B1D6E
S214015A301800084B98473A1D074B11001800074BF2
S214015A409847054B1800064B9847C046BD4602B01E
S214015A5080BDC046C515030074480020E915030043
S214015A60D516030080B588B000AF3B001800124B76
S214015A7098473B00802292001A613B000F4A5A6009
S214015A803A000F4B110018000E4B98470300FB61BC
S214015A90FB69002B06DAFA690B4B190001200B4B48
S214015AA09847FEE70A4A064B11001800094B98472B
S214015AB0C046BD4608B080BD59FC020074480020AF
S214015AC0CC480020A5FC0200CC63030091CE010067
S214015AD01556010091FD020080B582B000AF3A6014
S214015AE0FB1D021C1A70BB1D0A1C1A703A68BB1DEE
S214015AF01978FB1D1B785BB21800034B9847C0460C
S214015B00BD4602B080BDC04651E9020080B582B0F4
S214015B1000AF786039603A687B6811001800034B63
S214015B209847C046BD4602B080BDC04685E9020022
S214015B3090B583B000AF78607B685B685A687B6815
S214015B405B689B6820490120204CA047204B190028
S214015B5001201E4B98477B681B68DA687B681B68C8
S214015B609B681C490120194CA0477B685B689868B4
S214015B707B681B68DA68184B1900184B9847031E98
S214015B801ED17B681B6898687B681B68DA68144BB3
S214015B901900124B9847031E03D10220114B984758
S214015BA00EE07B681B6898687B681B68DA680E4B9A
S214015BB019000A4B9847031E02D10320094B984748
S214015BC0C046BD4603B090BD1464030091CE0100EB
S214015BD01C64030024640300506403002949030085
S214015BE040640300594D01004864030090B58BB032
S214015BF006AFF860B9607A60BB68012B3BD0052B15
S214015C0052D0002B00D055E07B681B68002B25DBAB
S214015C102A4B190001202A4B98472A492A4AF86834
S214015C200023059300230493002303930023029388
S214015C3000230193244B00930B000121234CA04722
S214015C40031E05D0224B190001201D4B984731E059
S214015C50204B190001201A4B98472BE01E4A1F4B78
S214015C6019000120164B98471B4AFB6811001800C3
S214015C701B4B98471EE07B681B78002B0BD1194BFA
S214015C801949F8680222194CA047194B190001203E
S214015C900B4B98470EE07B681B781A00154B1900D2
S214015CA00120074B984705E0134B19000120044BD0
S214015CB09847C046C046BD4605B090BD6464030023
S214015CC091CE01008064030090640300F1E90200B4
S214015CD09C640300C4640300A45E0300E064030044
S214015CE0A9E90200315B01005064030091EB020058
S214015CF0186503002C6503006065030080B588B055
S214015D0000AF3B1D18001F4B98473B1D1E4A9A606B
S214015D103B1D80229200DA603B1D1C4A1A613B1D26
S214015D20802292005A613B1D194A1A803B1D194A6E
S214015D309A803A1D184B11001800184B984703001B
S214015D40FB61FB69002B06DAFA69154B1900012085
S214015D50144B9847FEE7144A0F4B11001800134BDB
S214015D6098470300FB61FB69002B06DAFA69104BC2
S214015D70190001200B4B9847FEE7C046BD4608B008
S214015D8080BDC046E9E802009C0800209C0A00206D
S214015D905B070000701700006408002039E8020065
S214015DA07465030091CE0100ED5B010029E9020054
S214015DB0A865030080B584B000AF3B1D18000B4BEF
S214015DC098473B1D37221A603B1D00225A603B1D37
S214015DD001221A723B1D0222DA723B1D19000720AE
S214015DE0034B9847C046BD4604B080BDF558020037
S214015DF02959020080B500AF064B00220721180082
S214015E00054B984700210720044B9847C046BD46DE
S214015E1080BDC046215E0100F554020059550200BE
S214015E20B0B500AF0C4B1B685A1C0B4B1A600A4BE3
S214015E301B68282B02D9084B01221A60064B1B68E7
S214015E40064A07483F21074CA047074B01221A7014
S214015E50C046BD46B0BDC046A0000020DC650300BC
S214015E6060000020D94703009C0C002080B500AFDD
S214015E70154A164B11001800154B9847031E08D0FB
S214015E80144B19000120144B984702E00020134BD5
S214015E9098470E4B34229B5C002BF7D1104B98474A
S214015EA0104B01221A70104A104B11001800104BAB
S214015EB09847104B9847104B9847104B03221A707F
S214015EC0C046BD4680BDC046A45E030064080020EF
S214015ED0DDEA02009C62030091CE0100E50F02009C
S214015EE0A145020004060020915701005D570100FC
S214015EF0E94502005145020085530100F5050020E1
S214015F0090B585B000AF09E00020304B9847304B84
S214015F101800304B984705202F4B984710202F4BE1
S214015F20984703001A0001235340DBB2002B09D027
S214015F3020202A4B984703001A0001235340DBB266
S214015F40002BE1D1264B9847FA239B001800224BE1
S214015F509847244B00221A703B00234A13CA13C3E6
S214015F603B0030221A700F23FC1839001F4B0A22FF
S214015F7018001F4B9847030023700F23FC183900A5
S214015F801A4B0A2218001A4B9847030023700F2356
S214015F90FB181B78002B08D00F23FB181A78154B1B
S214015FA019000020144B984703E0144B1800144BBB
S214015FB098476420084B9847124B9847124B00228B
S214015FC01A70C046BD4605B090BDC046E50F02003A
S214015FD0744800200518030051B101005D5001000E
S214015FE0A1450200040600201466030038080020BC
S214015FF0CDCA0200F065030091CE010000660300E1
S214016000A5CD0100614F0100F505002080B500AF68
S214016010184B9847184B9847184A194B1100180007
S214016020184B9847184B9847184B34229B5C012213
S2140160305340DBB2002B0CD0154A144B110018004C
S214016040144B9847031E04D0134B19000120134B21
S21401605098470E4B34229B5C002B04D0104B190042
S21401606001200E4B98470F4B01221A70C046BD46C1
S21401607080BDC046A1450200FD5C01000D5B01002C
S214016080D95A0100E9450200514502006408002082
S214016090A45E0300A9E902009C62030091CE010000
S2140160A020660300F505002080B500AF00200B4BED
S2140160B098470B4B18000B4B98470B4B98470B4BCD
S2140160C098470B4B34229B5C002B04D0084B642171
S2140160D01800084B9847C046BD4680BDE50F020034
S2140160E07448002005180300F96001006D61010085
S2140160F064080020D9EB020090B585B002AF124BC0
S2140161001B68391D00221800104B98470300012B0D
S21401611015D13B1D1B780E4A0E483F210E4CA04759
S2140161200C4B18000D4B984704000A4A0C490D48C1
S214016130002301930123009323000B4CA047C04684
S214016140BD4603B090BDC046FC050020A59F0100DA
S2140161503C66030020000020D94703001B490300CA
S2140161604C6603006408002025EB020090B585B05C
S21401617002AF164B1B68391D00221800144B9847B6
S2140161800300012B1ED13B1D1B8819003B1D5B889C
S214016190104A114800930B003F21104CA0470E4BAC
S2140161A018000F4B984704000B4A0E490E4800236F
S2140161B001930123009323000C4CA0470C4B1800BD
S2140161C00C4B9847C046BD4603B090BD0006002064
S2140161D0A59F01006066030020000020D947030048
S2140161E01B4903007C6603006408002025EB0200BF
S2140161F090660300A5CD010090B58DB002AF786022
S2140162006420734B9847734B98470022042105205E
S214016210714B98470200714B1A600022012105203C
S2140162206D4B984702006E4B1A6000220421052030
S214016230694B984702006B4B1A60684B1B68002B32
S21401624007D0674B1B68002B03D0664B1B68002BDF
S21401625003D1654B1800654B9847654B1800634B97
S2140162609847644B9847644B9847644B9847644BF0
S2140162709847644B9847644B98470C23FB181822A1
S21401628000211800614B9847614B98470C23FB1877
S214016290604A1A602723FC180C23FB1818005E4B73
S2140162A09847030023702723FB181B785BB2002B4B
S2140162B009D02723FB1800229A56584B19000120B3
S2140162C0574B9847FEE7574A574B19000120544B46
S2140162D09847564B9847564A564B11001800564B4E
S2140162E09847564A4F48FF23009313000222022183
S2140162F0534CA04706E00020524B9847524B1800DB
S214016300524B98470220524B984703001A0001232C
S2140163105340DBB2002BEED1FA239B0018002C4B26
S21401632098474C4B01221A704A4B1B785BB2012BE3
S2140163300BD002DC002B05D010E0022B08D0032B7B
S21401634009D00BE0444B98470CE0444B984709E0D2
S214016350434B984706E0434B984703E03D4B0022EA
S2140163601A70C0460B23FB1800221A701B4B1B68C1
S2140163700B22B918002218003B4B98470300012B4B
S21401638005D10B23FB181B785AB2324B1A70374BC8
S2140163901B78DBB2002B17D0354B1800354B9847CE
S2140163A00400334A344935480023019301230093FE
S2140163B02300334CA0472E4A324B19000120184BBC
S2140163C098472A4B00221A706420014B9847ABE786
S2140163D051B10100ED4F010045940100F805002080
S2140163E0FC05002000060020A0660300A5CD0100E4
S2140163F0C8660300295A0100655A0100FD5C0100C8
S21401640045590100B55D0100F55D01007F450300BA
S21401641019F30100F1570100F10D0200E4660300D3
S21401642091CE01007062030010670300514502001F
S2140164300D5B0100D95A0100E945020064620300C0
S21401644001100200E50F0200744800200518030041
S2140164505D500100F50500200D600100A9600100F6
S2140164606D5E0100015F0100A59F01009C0C0020EC
S214016470600000201B490300346703006408002005
S21401648025EB02005067030090B583B000AF020011
S214016490FB1D1A70FB1D1B78032B06D8054B1868CD
S2140164A0F91D00230A22044CA047C046BD4603B08E
S2140164B090BDC046F8050020ED96010090B585B068
S2140164C000AF7860064B1868796800230A22054CED
S2140164D0A0470300FB60FB681800BD4605B090BDF1
S2140164E0FC050020ED96010090B585B000AF786000
S2140164F0064B1868796800230A22054CA04703005A
S214016500FB60FB681800BD4605B090BD0006002084
S214016510ED96010080B582B000AF78607B680022FE
S2140165201A70C046BD4602B080BD000080B582B07C
S21401653000AF02003960FB1D1A70FB1D1B78012B92
S2140165400AD0022B0FD0002B14D10E4B0D4A9169A5
S2140165503A680A439A610FE00A4B0A4AD1693A68D7
S2140165600A43DA6108E0074B064A116A3A680A43A9
S2140165701A6201E0172300E000231800BD4602B0AE
S21401658080BDC0460004004080B582B000AF786090
S2140165907B6880221A707B6800225A707B68012211
S2140165A09A707B680022DA70C046BD4602B080BD94
S2140165B080B500AF054B9B78DBB21A00022313406F
S2140165C05A1E9341DBB21800BD4680BD0020004133
S2140165D080B500AF024B9847C046BD4680BDC04659
S2140165E04952020080B500AF024B9847C046BD46EF
S2140165F080BDC0469D52020080B582B000AF020049
S214016600FB1D1A70074AFB1D1B7819001F230B4040
S214016610012199400B0019008023D150C046BD4688
S21401662002B080BD00E100E080B584B000AF7860C4
S2140166307B681B68FB60FB68DB69072213405A1EF8
S2140166409341DBB21800BD4604B080BD80B582B070
S21401665000AF7860C0467B681800044B9847031E5D
S214016660F9D1C046BD4602B080BDC04629660100CC
S21401667080B584B000AF78607B681B68FB607B6880
S2140166801B6818000D4B9847030018000C4B9847E1
S2140166907B6818000B4B9847FB6883221A75FB68CA
S2140166A083221A76FB681B68022293431A00FB6852
S2140166B01A60C046BD4604B080BDC0461D670200D4
S2140166C0F96501004D660100F0B597B000AF78613D
S2140166D039610023FB6300233B650023FB643B23F6
S2140166E010229446BC44634400221A707B691B68DE
S2140166F0BB637B691B687B6323231022BA18D418FB
S2140167007B6B1800C04B9847030023700C231022A4
S2140167109446BC4463441800BC4B98473B69DB690C
S2140167207B643B691B6A3B647B6C002B06D17B6BED
S21401673000211800B64B984703007B647B6CDAB2E5
S2140167400C2310218C46BC4463441A700C2310227F
S2140167509446BC44634402225A707B6C1B0CDBB229
S2140167600C2210218C46BC44624411001800A94B2F
S21401677098473B6C002B06D17B6B01211800A44B7C
S214016780984703003B643B6CDAB20C2310218C461D
S214016790BC4463441A700C2310229446BC446344E0
S2140167A002225A703B6C1B0CDBB20C2210218C4669
S2140167B0BC44624411001800964B98473B699A8A7C
S2140167C07B69DA803B69DA8A7B691A813B691B7EC1
S2140167D0002B03D1904B9847031E02D080237B6584
S2140167E001E000237B653B691B69002B04D03B69F4
S2140167F01B697A6D13437B653B699B687A6D13430E
S2140168007B653B6924229B5C002B04D07B6D802238
S214016810D20513437B653B699B6A002B04D03B6919
S2140168209B6A7A6D13437B653B692C229B5C002B2C
S21401683005D13B699A6880239B049A4204D17B6DFB
S2140168408022120513437B653B692D229B5C002B3E
S21401685004D07B6D8022120413437B653B692E2294
S2140168609B5C002B04D07B6D8022D20313437B6597
S214016870BB6B1A687B6D1A43BB6B1A60BB6B8022BD
S21401688052005A60232310229446BC4463441B786A
S2140168901433DBB21800614B98470300FB623B6977
S2140168A01B68FA2292005343BB623B695B68FA227B
S2140168B0920053437B623B691B8E3B62584BF86ADE
S2140168C0984705000E00564BB86A9847B860F960BD
S2140168D0534BF86A9847534C534A544BA04703000E
S2140168E00C003B607C604E4B386A984702000B00F8
S2140168F04C4C38687968A04703000C00180021004A
S2140169004B4C00224B4BA04703000C001A002300FF
S214016910444CB868F968A04703000C001A0023002D
S214016920454C28003100A04703000C001D0026003E
S214016930BB6A5A003A4B1000984702000B003C4CC9
S21401694028003100A04703000C00180021003A4C33
S21401695000223A4BA04703000C001D002600BB6A2C
S2140169605A002F4B1000984702000B00344C2800A9
S2140169703100A04703000C0019002200314B08002B
S214016980110098470300FB633B699A6880239B04C8
S2140169909A426AD1224BF86A9847254C02000B00AE
S2140169A0A04703000C001D0026001D4B786A98477F
S2140169B01C4C0022244BA04703000C001A002300A5
S2140169C01F4C28003100A04703000C0018002100CE
S2140169D0194C0022194BA04703000C001900220095
S2140169E0184B0800110098470300FB64FB6C002B52
S2140169F02ED0164B796AF86A984703009A1EFB6CEC
S214016A00D31A3B6531E0C0464D6602008965010038
S214016A10916402003D920200B165010001900200FE
S214016A205D420300C936030095D626E80B2E113EBB
S214016A30412A030000002440C93B03000000F03F48
S214016A4061300300F541030000000840C51A030049
S214016A507B6A5A00FB6AD3185A1E7B6A59001D4B83
S214016A60100098470300013B3B65FB6BFF2B08DCDE
S214016A70FB6B002B05DB3B6DFF2B02DC3B6D002B1C
S214016A8006DA3B2310229446BC44634440221A7023
S214016A903B2310229446BC4463441B78402B0ED003
S214016AA0FB6BFF221A403B6D1B041900FF231B04DE
S214016AB00B401343FA6C12061A43BB6BDA603B2396
S214016AC010229446BC4463441B781800BD4617B098
S214016AD0F0BDC046C51A030090B58BB000AFF86094
S214016AE0B9607A60FB68BA681A60FB681B687B62EB
S214016AF0FB681B6818003B4B984703003B623B6AE8
S214016B000233FB613B6A1433BB610122FB699A4085
S214016B10130019000220344B98471423FB18180061
S214016B20324B98477B681A7B1423FB181A70BB6993
S214016B30DBB21422BA18110018002D4B9847BB6916
S214016B40DBB218002B4B98477B681B7B0021180093
S214016B50294B98477B6A1B680222134001D01C23ED
S214016B603BE07B6A1B680122134001D0052334E019
S214016B70FB681B681722BC1818001A4B98470300BD
S214016B8023701E4A1723FB181B78110018001C4B94
S214016B9098471723FB181A781A4B9200F968D150B8
S214016BA0FB6800221A76FB6800225A76FB680022F0
S214016BB05A83FB6800229A83FB6825220021995498
S214016BC0FB6800221A627B6A14221A607A68FB68E4
S214016BD0110018000C4B984703001800BD460BB077
S214016BE090BDC0464D6602002D6501001565010089
S214016BF0DD8E0200218F020005640200753501005A
S214016C00B1660200CC5B0020C966010080B584B085
S214016C1000AF78607B681B68FB607B6818000F4BD1
S214016C2098477B6818000E4B98470E4B98477B6831
S214016C301B6818000C4B9847030018000B4B98472D
S214016C400B4B98477B681800044B9847FB6801225A
S214016C501A60C046BD4604B080BDC0464D66010000
S214016C6071660100D16501001D670200599002009E
S214016C70E565010080B584B000AF78607B681B686D
S214016C80FB60FB681B7EDBB21A00022313400BD0AD
S214016C90FB6802221A76FB685B8B9BB21A00022302
S214016CA0134011D0412310E0FB685B8B9BB21A00A6
S214016CB00423134008D0FB685B68C02292021A4383
S214016CC0FB685A60182300E000231800BD4604B094
S214016CD080BD80B584B000AF78607B681B68BB6000
S214016CE00E23FB1800221A800FE00E23FB180E223B
S214016CF0BA18128801321A807B681B890E22BA18CC
S214016D0012889A4201D312230EE0BB681B7EDBB2C7
S214016D101A000123134006D1BB681B7EDBB21A00A2
S214016D2002231340E1D000231800BD4604B080BD05
S214016D3090B585B000AF78600A00FB1C1A707B68BE
S214016D401B68FB60FB685B688022D2021A43FB6803
S214016D505A60FB1C1A78FB685A620B23FC187B6886
S214016D601800074B984703002370FB6801221A7628
S214016D700B23FB181B781800BD4605B090BDC04616
S214016D80D36C010080B500AF0020024B9847C04687
S214016D90BD4680BDC16D010080B500AF0120024B2C
S214016DA09847C046BD4680BDC16D010080B500AFA5
S214016DB00220024B9847C046BD4680BDC16D01000A
S214016DC080B584B000AF0200FB1D1A70FB1D1A7857
S214016DD0284B9200D358FB60FB681B689B7BDBB299
S214016DE0FA68127E1340DAB2FB68597E0B23FB1851
S214016DF00A401A700B23FB181B780122134008D097
S214016E00FB689B68FA6810009847FB681B680122BC
S214016E109A730B23FB181B780222134008D0FB68D9
S214016E20DB68FA6810009847FB681B6802229A73B1
S214016E300B23FB181B781022134008D0FB681B6934
S214016E40FA6810009847FB681B6810229A730B2398
S214016E50FB181B782022134008D0FB685B69FA6890
S214016E6010009847FB681B6820229A73C046BD46EF
S214016E7004B080BDB449002080B584B000AF78600E
S214016E800023FB607B68002B01D172B6FEE7082069
S214016E90114B98470300BB60BB68002B01D172B64B
S214016EA0FEE7BB68002B12D00C4B9847BB687A688C
S214016EB01A60BB6800225A60094B1B68BA685A60A0
S214016EC0074BBA681A60074B98470123FB60FB68BB
S214016ED01800BD4604B080BD919201005991010091
S214016EE0F00000207D91010080B588B000AFF86009
S214016EF0B9607A600123FB613D4B1B68002B44D1CE
S214016F003B4B3C4A1A603AE0394B1B681B681B68CE
S214016F10BB61BB691800384B984703007B61FA6870
S214016F207B69D3181B78202B05D0FA687B69D318A8
S214016F301B78002B1ED17A69B969FB6818002F4BA4
S214016F409847031E16D12A4B1B681B681B7B5BB236
S214016F50002B19DBFB681800294B984703001A0021
S214016F60234B1B681B681B7B5BB29A420CD0002329
S214016F70FB6109E01E4B1B685A681D4B1A601C4BCF
S214016F801B68002BC0D100E0C046194B1B68002BC4
S214016F900CD0FB69002B09D17A681A49BB68180026
S214016FA0194B9847124B00221A601CE0104B1B68C5
S214016FB0002B10D00E4B1B681B689B68FA6879681B
S214016FC0B86898470300FB61FB69002B0BD1084B9F
S214016FD000221A6007E07A680C49BB6818000A4B61
S214016FE098470023FB61FB691800BD4608B080BDC9
S214016FF0A00C0020E80000201B49030029490300DB
S21401700071700100AC6703004B490300046803007C
S21401701080B586B000AFF860B9607A60114B1B6826
S214017020002B02D10F4B104A1A600E4B1B681B68CF
S2140170305968BA68FB6818000C4B9847094B1B68DF
S2140170405A68084B1A60074B1B68002B02D10023B5
S2140170507B6101E001237B617B691800BD4606B0B8
S21401706080BDC046A40C0020E80000204B49030068
S21401707080B584B000AF78600F23FB1800221A7029
S2140170800023BB6018E07B681B78202B0FD1BB6800
S214017090012B0ED00F23FB181B785BB2DBB201333A
S2140170A0DAB20F23FB181A700123BB6001E000233C
S2140170B0BB607B6801337B607B681B78002BE2D169
S2140170C0BB68012B09D10F23FB181B785BB2DBB21F
S2140170D0013BDAB20F23FB181A700F23FB181B783B
S2140170E05BB21800BD4604B080BD000080B582B01A
S2140170F000AF78607B681800034B984703001800C0
S214017100BD4602B080BDC046B5A8010080B582B0BC
S21401711000AF78607B681800034B9847030018009F
S214017120BD4602B080BDC046E1A8010080B582B070
S21401713000AF78607B681800034B984703009BB24A
S2140171401800BD4602B080BD11BC010080B582B0FA
S21401715000AF78607B681800044B984703001B0C4F
S2140171609BB21800BD4602B080BDC04611BC0100EE
S21401717080B582B000AF78600A00BB1C1A807B68BD
S2140171801800084B984703001B0C1A04BB1C1B88ED
S2140171901A437B6811001800034B9847C046BD464A
S2140171A002B080BD11BC010039BC010080B582B0BF
S2140171B000AF78600A00BB1C1A807B681800094B78
S2140171C0984703001B041A0CBB1C1B881B041A439C
S2140171D07B6811001800044B9847C046BD4602B0B4
S2140171E080BDC04611BC010039BC010080B582B02B
S2140171F000AF78607B681800034B984703009BB28A
S2140172001800BD4602B080BDED70010080B582B0A9
S21401721000AF78607B681800044B984703001B0C8E
S2140172209BB21800BD4602B080BDC046ED7001009D
S21401723080B582B000AF78600A00BB1C1A807B68FC
S2140172401800084B984703001B0C1A04BB1C1B882C
S2140172501A437B6811001800034B9847C046BD4689
S21401726002B080BDED700100C9A8010080B582B0F2
S21401727000AF78600A00BB1C1A807B681800094BB7
S214017280984703001B041A0CBB1C1B881B041A43DB
S2140172907B6811001800044B9847C046BD4602B0F3
S2140172A080BDC046ED700100C9A8010080B584B05C
S2140172B000AF78600023FB600023BB6018E0144B2E
S2140172C0BA68D200D358002B0FD1114BBA68D2003E
S2140172D07968D1500E4ABB68DB00D318043301220B
S2140172E052421A600123FB6005E0BB680133BB60B4
S2140172F0BB68092BE3DDFB68002B04D1054B1B683B
S2140173005A1C044B1A60C046BD4604B080BDC04638
S214017310AC0C0020FC0C002090B585B000AF00231B
S214017320FB602B4B1B68BB60294B1A68294BD200AC
S214017330D358002B35D0264B1A68264BD200D3588B
S2140173401800254B984703007B60214B1B68214A98
S214017350DB00D31804331A687B689A4207D91C4BA2
S2140173601B681C4ADB00D31804337A681A60184B72
S2140173701A68184BD200D3581800184B98470300C8
S214017380DBB21900124B1B68124ADB00D318043318
S2140173901B680A000321EA20114CA047FB68013351
S2140173A0FB600B4B1B685A1C0E4B0A2110009847BA
S2140173B00B001A00064B1A60FB68002B04DC044B1A
S2140173C01A68BB689A42AFD1C046BD4605B090BDAB
S2140173D0000D0020AC0C0020B1BD01002D71010094
S2140173E0757C0100A51D030080B500AF024B9847D0
S2140173F003001800BD4680BD5DBE010090B585B096
S21401740002AF7860144B98477B68012B02D1134B6F
S21401741098470EE07B68022B04D1114B1800114BE4
S214017420984706E07B68002B03D00F4B18000D4BE6
S21401743098470E4B1B68002B0AD196235A000C491D
S2140174400C480A4B01930423009300230A4CA047DF
S214017450C046BD4603B090BD418301009978010046
S21401746064680300E9890100A4680300A80C0020F1
S214017470D86803007D740100B5AD010080B582B007
S21401748000AF7860044B9847031E01D0034B984722
S2140174900420034B9847F5E7DD78010019730100D6
S2140174A051B1010080B500AF604B1B680922DA6557
S2140174B05E4B1B6864220A2199545C4B1B6865224B
S2140174C00A219954594B1B6866220A219954574B35
S2140174D01B6867220F219954544B1B6868220521AB
S2140174E09954524B1B686922052199544F4B1B68CE
S2140174F06A22052199544D4B1B686B22052199542C
S2140175004A4B1B686C2205219954484B1B68702214
S2140175100F219954454B1B6871220F219954434BF7
S2140175201B6872220F219954404B1B6873220F214E
S21401753099543E4B1B6874220F2199543B4B1B6890
S21401754075220F219954394B1B6876220F219954C5
S214017550364B1B6877220F219954344B1B687822CF
S2140175600F219954314B1B687C22102199542F4BC3
S2140175701B687D22102199542C4B1B687E221021FA
S21401758099542A4B1B687F2213219954274B1B6859
S214017590802211219954254B1B6881221021995470
S2140175A0224B1B68822213219954204B1B6883228D
S2140175B0132199541D4B1B688422132199541B4B8C
S2140175C01B68882200219952184B1B688A22A02129
S2140175D09952164B1B688C22A02149009952134BD5
S2140175E01B688E22F02149009952104B1B6890228D
S2140175F00F4999520D4B1B6892220E4999520B4B1B
S2140176001B6894220C499952084B1B6896220B4919
S2140176109952064B1B6898228C21C9009952034B3C
S2140176201B68074A1A66C046BD4680BDC00D0020CD
S214017630FD02000052030000A20300000104000046
S214017640BF04000080B500AF2E4B00225A822D4B9E
S2140176505A8A2C4B1A802B4B0A229A82294B9A8AD9
S214017660284B5A80274B1422DA82264BDA8A254B7E
S2140176709A80244B1E221A83224B1A8B214BDA80C6
S214017680204B2D225A831F4B5A8B1E4B1A811D4BA2
S21401769032229A831B4B9A8B1A4B5A81194B3722EB
S2140176A0DA83184BDA8B174B9A81164B3C221A84D5
S2140176B0144B1A8C134BDA81124B41225A84114B0C
S2140176C05A8C104B1A820F4B09229A840D4B1322A7
S2140176D0DA840C4B1D221A850A4B2C225A85094B3B
S2140176E031229A85074B3622DA85064B3B221A86CB
S2140176F0044B40225A86034B45229A86C046BD4615
S21401770080BDC046300D002080B582B000AF0200BB
S214017710FB1D1A70FB1D1B78082B16D89A000D4B03
S214017720D3181B689F460C4B10E00C4B0EE00C4B1D
S2140177300CE00C4B0AE00C4B08E00C4B06E00C4B43
S21401774004E00C4B02E00C4B00E00C4B1800BD466D
S21401775002B080BDE06B0300E06803002869030007
S21401776070690300C4690300106A03005C6A0300C1
S214017770A86A0300FC6A0300546B0300B06B0300A5
S21401778090B587B000AF1723FB1800221A70364B4E
S2140177901B68002B0BD1344B1B68002B05D1334BD8
S2140177A01800334B9847002359E0002357E02E4B2F
S2140177B01B681B6B012B01D1012350E02D4B1B686D
S2140177C0002B49D1EFF31083BB60BB683B610123FB
S2140177D0FB60FB6883F31088274B1B685A1C264BFB
S2140177E01A60214B1B6801221A63244B9847030039
S2140177F01800234B984703001A001723FB181A702A
S2140178001723FB181B78002B16D11723FC1803200F
S2140178101C4B9847030023701B4A1723FB181B7841
S21401782019000320194B98471723FB181B780022D1
S21401783019000320164B98471723FB181B781800CE
S214017840144B98470C4B1B685A1E0B4B1A603B692E
S2140178507B607B6883F31088034B1B681B6B1800E7
S214017860BD4607B090BDC046C00D0020046C0300A5
S214017870E9890100200D0020180D0020E9730100A0
S2140178802D710100CD860100486C0300FD880100C2
S21401789061800100497F010080B500AF024B984727
S2140178A0C046BD4680BDC0468177010080B500AFA9
S2140178B0084B1B68002B03D0064B1B6800221A637B
S2140178C0054B1B68002B02D0034B1B689847C0462C
