:020000021000EC
:10200000D878002001BC0200F9BC0200F9BC020033
:1020100000000000000000000000000000000000C0
:1020200000000000000000000000000031AD0100D1
:10203000000000000000000051AE010099AE010058
:10204000F9BC0200F9BC0200F9BC0200517D02009B
:102050007D720200F9BC0200B9300100F9BC020037
:10206000FD310100F58302000D8402002584020089
:102070003D840200558402006D84020049BB0200C9
:102080005DBB020071BB02001D8A0100318A0100A4
:10209000458A01000000000000000000412F0100FF
:1020A000F9BC02007D300100F9BC0200F9BC02005D
:1020B0000000000010B5064C2378002B07D1054B1B
:1020C000002B02D0044800E000BF0123237010BDA4
:1020D000000300200000000008B10300084B10B509
:1020E000002B03D00749084800E000BF07480368F9
:1020F000002B00D110BD064B002BFBD09847F9E711
:10210000000000000403002008B1030008B1030030
:102110000000000080B500AFC046BD4680BD80B560
:1021200000AFC046BD4680BD80B500AF254B984787
:10213000254B9847AE20254B9847D520234B9847F1
:102140008020224B9847A820204B98472F201F4BD8
:102150009847D3201D4B984700201C4B98474020A0
:102160001A4B98478D20194B98471420174B9847C6
:10217000A620164B9847A420144B9847A120134B38
:102180009847C820114B9847DA20104B98471220E7
:102190000E4B984781200D4B98478F200B4B98474B
:1021A000D9200A4B9847F120084B9847DB20074B72
:1021B00098474020054B9847AF20044B9847C046AE
:1021C000BD4680BD1F21010015210100D121010064
:1021D00080B584B000AF0200FB1D1A700C23FB1801
:1021E00000221A700C23FB18FA1D12785A700C4B3F
:1021F0003C221A700A4B0C22BA185A60084B022271
:10220000DA81074B00229A60054B00229A81044B29
:1022100064211800034B9847C046BD4604B080BDFA
:10222000A8430020A54F010080B584B000AF020094
:10223000FB1D1A700C23FB1840221A700C23FB188C
:10224000FA1D12785A700C4B3C221A700A4B0C2261
:10225000BA185A60084B0222DA81074B00229A60B2
:10226000054B00229A81044B64211800034B9847C8
:10227000C046BD4604B080BDA8430020A54F010064
:1022800080B582B000AF7860034B7A681A60C046B0
:10229000BD4602B080BDC0461C03002090B583B08F
:1022A00000AF040008001100FB1D221C1A70BB1DAA
:1022B000021C1A707B1D0A1C1A700A4B1968FB1D40
:1022C0001A7813001B019B189B001A00BB1D1B787A
:1022D000D318CB187A1D12781A70C046BD4603B0C9
:1022E00090BDC0461C03002080B582B000AF020044
:1022F000FB1D1A70BB1D0A1C1A70094B1968FB1DC7
:102300001A7813001B019B189B001A00BB1D1B7839
:10231000D318CB181B781800BD4602B080BDC0464C
:102320001C030020B0B584B000AF05000C00100005
:102330001900FB1D2A1C1A70BB1D221C1A707B1D64
:10234000021C1A703B1D0A1C1A707B1D1B78002B87
:1023500000D1A7E0BA1D7B1D12781B78D318DAB222
:102360000F23FB18013A1A70BA1D0F23FB181278BD
:102370001B789A4209D13B1D1A78BB1D1978FB1DA9
:102380001B781800494B98478DE00F23FB181B78EA
:102390002E2B03D90F23FB182F221A700E23FB18A4
:1023A000BA1D1278D2081A700D23FB180F22BA1822
:1023B0001278D2081A700C23FB18BA1D1278072164
:1023C0000A401A700B23FB180F22BA181278072143
:1023D0000A401A700C23FB181B78FF229A400A232C
:1023E000FB181A700B23FB181B780722D31AFF2245
:1023F0001A410923FB181A700E23FA180D23FB1833
:1024000012781B789A4217D10823FB180A22BA18AF
:1024100009217918127809780A401A703B1D1C7836
:102420000823FB181A78FB1D19780E23FB1818785F
:1024300023001F4CA04736E03B1D1C780A23FB18E5
:102440001A78FB1D19780E23FB1818782300184CF6
:10245000A0470AE03B1D1A78FB1D19780E23FB18D4
:1024600018781300FF22124CA0470E23FB180E22EF
:10247000BA18127801321A700E23FA180D23FB18BD
:1024800012781B789A42E5D33B1D1C780923FB1870
:102490001A78FB1D19780D23FB1818782300044CBB
:1024A000A04700E0C046BD4604B0B0BDED2A010023
:1024B000B12C0100B0B584B000AF05000C001000D5
:1024C0001900FB1D2A1C1A70BB1D221C1A707B1DD3
:1024D000021C1A703B1D0A1C1A70FA1D7B1D127813
:1024E0001B789A421BD90A23FB18FA1D12781A701E
:1024F000FB1D7A1D12781A707B1D0A22BA181278F9
:102500001A700923FB18BA1D12781A70BB1D3A1DE8
:1025100012781A703B1D0922BA1812781A707A1DA7
:10252000FB1D12781B78D31ADAB20A23FB181A7033
:102530003A1DBB1D12781B78D31ADAB20923FB1897
:102540001A700E23FB18FA1D12781A700D23FB184F
:10255000BA1D12781A700A23FB181B787F2B0CD92E
:102560000C23FB18FF221A700A23FB181B785B420E
:10257000DAB20A23FB181A7003E00C23FB180122BD
:102580001A700923FB181B787F2B0CD90B23FB181F
:10259000FF221A700923FB181B785B42DAB2092369
:1025A000FB181A7003E00B23FB1801221A700A2390
:1025B000FA180923FB18127852B21B785BB29A42C0
:1025C0005BDD0923FB181A780A23FB181B78D31A42
:1025D000DAB20823FB181A700F23FB1800221A70B6
:1025E00041E02023FB181A780D23FB1819780E23DD
:1025F000FB181B781800504B98470823FB181B78D2
:102600007F2B14D80823FB181A780A23FB181B7891
:10261000D31ADAB20823FB181A700B23FB181978A7
:102620000D23FB180D22BA1812788A181A70082385
:10263000FB181A780923FB181B78D318DAB2082381
:10264000FB181A700C23FB1819780E23FB180E22A6
:10265000BA1812788A181A700F23FB181A780F23E9
:10266000FB1801321A700F23FB181A780A23FB1883
:102670001B785BB29A42B4DD5AE00A23FB181A7841
:102680000923FB181B78D31ADAB20823FB181A7037
:102690000F23FB1800221A7041E02023FB181A7840
:1026A0000D23FB1819780E23FB181B781800224BFA
:1026B00098470823FB181B787F2B14D80823FB1896
:1026C0001A780923FB181B78D31ADAB20823FB18EF
:1026D0001A700C23FB1819780E23FB180E22BA1857
:1026E00012788A181A700823FB181A780A23FB1824
:1026F0001B78D318DAB20823FB181A700B23FB18C7
:1027000019780D23FB180D22BA1812788A181A703E
:102710000F23FB181A780F23FB1801321A700F23AE
:10272000FB181A780923FB181B785BB29A42B4DDB8
:10273000C046BD4604B0B0BDED2A0100B0B584B0BE
:1027400000AF05000C0010001900FB1D2A1C1A70B8
:10275000BB1D221C1A707B1D021C1A703B1D0A1C1B
:102760001A707B1D1B78002B09D13B1D1A78BB1DED
:102770001978FB1D1B7818008F4B984718E10F2321
:10278000FB1800221A700E23FB187A1D12781A709B
:102790007B1D1B789BB2DB189BB20322D31A9AB223
:1027A0000C23FB181A80FAE02023FB181B78032265
:1027B00013402DD0FA1D0E23FB1812781B78D31866
:1027C000D8B2BA1D0F23FB1812781B78D31AD9B2CE
:1027D0000F23FB181B780133DAB23B1D1B78774CB3
:1027E000A047FA1D0F23FB1812781B78D318D8B214
:1027F000BA1D0E23FB1812781B78D31AD9B20E23F8
:10280000FB181B780133DAB23B1D1B786B4CA047D9
:102810002023FB181B780C2213402DD0FA1D0E2309
:10282000FB1812781B78D31AD8B2BA1D0F23FB18E5
:1028300012781B78D31AD9B20F23FB181B780133F7
:10284000DAB23B1D1B785D4CA047FA1D0F23FB1825
:1028500012781B78D31AD8B2BA1D0E23FB1812783F
:102860001B78D31AD9B20E23FB181B780133DAB2C6
:102870003B1D1B78514CA0472023FB181B783022AE
:10288000134025D0FA1D0E23FB1812781B78D31A9B
:10289000D8B20F23FB181B780133DAB23B1D1C782A
:1028A000BB1D19782300454CA047FA1D0F23FB18C8
:1028B00012781B78D31AD8B20E23FB181B78013379
:1028C000DAB23B1D1C78BB1D197823003B4CA04796
:1028D0002023FB181B78C022134025D0FA1D0E239D
:1028E000FB1812781B78D318D8B20F23FB181B786B
:1028F0000133DAB23B1D1C78BB1D197823002F4C25
:10290000A047FA1D0F23FB1812781B78D318D8B2F2
:102910000E23FB181B780133DAB23B1D1C78BB1D5C
:1029200019782300254CA0470C23FB1800229B5E3E
:10293000002B10DA0F23FB181B789BB29B009AB276
:102940000C23FB181B88D3189BB206339AB20C23B6
:10295000FB181A801CE00F23FB181B789AB20E2379
:10296000FB181B789BB2D31A9BB29B009AB20C2324
:10297000FB181B88D3189BB20A339AB20C23FB189E
:102980001A800E23FB180E22BA181278013A1A7018
:102990000F23FB180F22BA18127801321A700F2376
:1029A000FA180E23FB1812781B789A4200D8FBE61F
:1029B000BD4604B0B0BDC046ED2A0100252301008C
:1029C00080B582B000AF0200FB1D1A70FB1DFA1D1E
:1029D00012780F210A401A70FB1D1B7850225242B8
:1029E0001343DBB21800034B9847C046BD4602B004
:1029F00080BDC046D121010080B582B000AF020089
:102A0000FB1D1A70FB1DFA1D12787F210A401A70F7
:102A1000FB1D1B781B09DBB210221343DBB218002D
:102A2000064B9847FB1D1B780F221340DBB21800A2
:102A3000024B9847C046BD4602B080BDD12101007F
:102A400080B582B000AF0200FB1D1A70FB1DFA1D9D
:102A500012783F210A401A70FB1D1B784022134355
:102A6000DBB21800024B9847C046BD4602B080BD9D
:102A7000D121010090B583B000AF174B1800174B60
:102A80009847174B98470020164B9847FB1D00228C
:102A90001A7019E0BB1D00221A700CE0BB1D1978DA
:102AA000FB1D18780123FF220F4CA047BB1D1A788D
:102AB000BB1D01321A70BB1D1B78432BEED9FB1DC9
:102AC0001A78FB1D01321A70FB1D1B78052BE1D90A
:102AD000C046BD4603B090BD200300208122010006
:102AE00029210100412A0100E12B010090B585B0A8
:102AF00000AF040008001100FB1D221C1A70BB1D52
:102B0000021C1A707B1D0A1C1A70FB1D1B78432BBC
:102B10005DD8BB1D1B782F2B59D80E23FB18BA1D6F
:102B20001278D2081A70BB1D1A780E23FB181B7876
:102B3000DB00D31A01229A400D23FB181A700F23D1
:102B4000FC18FB1D1A780E23FB181B7811001800C7
:102B5000214B9847030023707B1D1B78012B04D069
:102B6000022B1DD0002B0BD025E00F23FB180F22CA
:102B7000B9180D22BA18097812780A431A701AE0A7
:102B80000D23FB181B785BB2DB435BB20F22BA1834
:102B9000127852B213405AB20F23FB181A700AE08F
:102BA0000F23FB180F22B9180D22BA1809781278D2
:102BB0004A401A70C0460F23FB181A78FB1D19787B
:102BC0000E23FB1818780023044CA04700E0C046F1
:102BD000BD4605B090BDC046812C0100E12B01002F
:102BE000B0B582B000AF05000C0010001900FB1D4D
:102BF0002A1C1A70BB1D221C1A707B1D021C1A7025
:102C00003B1D0A1C1A703B1D1B7801225340DBB28E
:102C1000002B0DD0BB1D1A78FB1D1B78110018006E
:102C2000124B984703001A007B1D1B78934218D063
:102C30007B1D1A78BB1D1978FB1D1B7818000C4BE7
:102C40009847FB1D1B7818000A4B9847BB1D1B7843
:102C50001800094B98477B1D1B781800074B9847B5
:102C600000E0C046BD4602B0B0BDC046E92201004A
:102C70009D220100C1290100F9290100292201003A
:102C800080B582B000AF0200FB1D1A70BB1D0A1C8C
:102C90001A70BB1D1A78FB1D1B7811001800034B1E
:102CA000984703001800BD4602B080BDE92201002C
:102CB000B0B584B000AF05000C0010001900FB1D7A
:102CC0002A1C1A70BB1D221C1A707B1D021C1A7054
:102CD0003B1D0A1C1A700F23FC18BB1D1A78FB1D24
:102CE0001B78110018001F4B9847030023703B1DF1
:102CF0001B78012B04D0022B1BD0002B0AD022E022
:102D00000F23FB180F22B9187A1D097812780A438D
:102D10001A7018E07B1D1B785BB2DB435BB20F229D
:102D2000BA18127852B213405AB20F23FB181A7015
:102D300009E00F23FB180F22B9187A1D09781278C1
:102D40004A401A70C0460F23FB181A78BB1D197829
:102D5000FB1D18780023044CA047C046BD4604B0B4
:102D6000B0BDC046812C0100E12B010080B584B0CC
:102D700000AF78607B681B68FB60FB685B7EDBB242
:102D80005BB2002B01DA012300E000231800BD46EE
:102D900004B080BD80B584B000AF78607B681B68EC
:102DA000FB60C0467B6818000B4B9847031EF9D1A7
:102DB000FB681B7BDBB202221343DAB2FB681A7397
:102DC000C0467B681800044B9847031EF9D1C046E3
:102DD000BD4604B080BDC0466D2D010080B584B0F5
:102DE00000AF78600A00FB1C1A707B681B68FB60F0
:102DF000FB68FA1C12789A75C046BD4604B080BDC7
:102E000080B584B000AF0200FB1D1A70FB1D1A785C
:102E1000474B9200D358FB60FB681B681B7EDAB2FD
:102E2000FB681B68DB7DDBB21340DBB2BB60BB68B9
:102E30000122134045D0FB681B6801221A76C04668
:102E4000FB6818003B4B9847031EF9D1FB685B6990
:102E5000991CFA685161FA681268528B92B21A8012
:102E6000FB681B8B9BB2013B9BB2FA68191C118358
:102E7000002B08D0FB685B7F002B22D0FB6818007A
:102E80002D4B98471DE0FB68012118002B4B9847FC
:102E9000FB681B7FDBB2052B13D1FB6800221A777E
:102EA000FB68DB7E1A00012313400AD0FB689B7E7F
:102EB0001A000123134004D0FB689B68FA681000D5
:102EC0009847BB680422134014D0FB681B68042297
:102ED0001A76FB68DB7E1A00022313400AD0FB68D7
:102EE0009B7E1A000223134004D0FB68DB68FA685B
:102EF00010009847BB680222134014D0FB681B687F
:102F000002221A76FB68DB7E1A00042313400AD0E3
:102F1000FB689B7E1A000423134004D0FB681B69E6
:102F2000FA6810009847C046BD4604B080BDC04650
:102F3000BC4300206D2D0100952D0100DD2D010009
:102F400080B500AF0020024B9847C046BD4680BD0B
:102F5000012E010080B582B000AF0200FB1D1A7087
:102F6000074AFB1D1B7819001F230B4001219940C4
:102F70000B0019008023D150C046BD4602B080BD71
:102F800000E100E080B584B000AF0200FB1D1A70C4
:102F9000FB1D1A78374B9200D358FB60FB681B6807
:102FA000BB60BB689B79DBB21A00012313400ED0D3
:102FB000BB6801229A71FB681433002B07D0FB68B1
:102FC0005B7C002B03D0FB689B6900209847BB68A3
:102FD0009B79DBB21A000223134047D0BB68022260
:102FE0009A71FB689B899BB2002B33D0FB689A686F
:102FF000FB68DB899BB2591C88B2F968C8815B0009
:10300000D3181B889AB2BB689A81FB689B899BB2D4
:10301000013B9AB2FB689A81FB689B899BB2002BAB
:1030200018D1FB68202200219954BB6802221A7132
:10303000BB6802229A7119200F4B9847FB68143322
:10304000002B07D0FB689B7C002B03D0FB68DB695F
:1030500000209847FB681433002B07D0FB681B7CCB
:10306000002B03D0FB685B6900209847C046BD4633
:1030700004B080BDC0430020552F010080B500AFD3
:103080000020024B9847C046BD4680BD852F0100F9
:1030900080B500AF024B9847C046BD4680BDC046D4
:1030A000DD6E020080B500AF024B9847C046BD46BA
:1030B00080BDC046316F020080B586B000AF494B7D
:1030C0009847494B1B8C9BB2DAB21723FB180F2190
:1030D0000A401A701723FB181A78444B9200D358F1
:1030E0003B61414A3B691B780F210B40D9B23F231A
:1030F000D1543D490F23FB184E228A5C1A703B695C
:103100001B783B4A1B01D31802331B889BB2BB6060
:103110003B691B78374A1B01D31802331B889BB2CB
:103120007B60BA687B68D21A3B695A610F23FB182F
:103130001B780122134016D02B4A4E230121D15473
:103140003B6910225A743B691B7C1A00012313400F
:1031500042D03B695B68002B3ED03B695B683A69B3
:103160001000984738E00F23FB181B780222134009
:1031700016D01D4A4E230221D1543B6900225A74B5
:103180003B691B7C1A000223134025D03B699B68D6
:10319000002B21D03B699B683A69100098471BE0DF
:1031A0000F23FB181B780422134015D00E4A4E2320
:1031B0000421D1543B6906225A743B691B7C1A00D6
:1031C0000423134008D03B69DB68002B04D03B6923
:1031D000DB683A6910009847074B9847C046BD46E0
:1031E00006B080BD9130010000480041100500206C
:1031F000D0430020C0040020A530010080B582B07B
:1032000000AF154B1B697B60144B9B693B60124BF5
:103210009A683B681A43104B9A60104B104A9A61A7
:1032200008E07B685A687B681B68180090477B68D9
:103230009B687B607B68002BF3D1074BDB683B60AE
:10324000054B9B683A68D2431A40034B9A60C046CC
:10325000BD4602B080BDC046000000200004004210
:10326000FFFF0F0F80B582B000AF02003960FB1D79
:103270001A70FB1D1B78012B0AD0022B0FD0002BDC
:1032800014D10E4B0D4A91693A680A439A610FE0D6
:103290000A4B0A4AD1693A680A43DA6108E0074BE7
:1032A000064A116A3A680A431A6201E0172300E0ED
:1032B00000231800BD4602B080BDC0460004004097
:1032C00080B500AF02210220074B9847074B01222F
:1032D0001A70C046054B1B78DBB21A00012313405D
:1032E000F8D1C046BD4680BD6532010000040042F1
:1032F00080B584B000AF78607B681B68FB60FB68BA
:10330000DB69072213405A1E9341DBB21800BD4609
:1033100004B080BD80B582B000AF7860C0467B68E5
:103320001800044B9847031EF9D1C046BD4602B0B1
:1033300080BDC046F132010080B584B000AF786036
:103340007B681B68FB60FB681B681B01DB0FDBB243
:103350001A000B23FB18511E8A411A700823FB1810
:103360007A68528B1A807B689B8B9AB20823FB1871
:103370000821791809888A1A1A807B689B8B9BB26E
:10338000013B9AB27B689A830B23FB181B78002BB6
:1033900010D07B68DB7A002B1CD07B689B8B9BB2A8
:1033A000012B17D1FB685B688022D2021A43FB68AD
:1033B0005A600FE07B68DB7A002B0BD07B689B8B1D
:1033C0009BB2002B06D1FB685B688022D2021A43B5
:1033D000FB685A607B689B8B9BB2002B0ED17B688D
:1033E0009B7A002B0AD07B6818000E4B9847FB682D
:1033F0005B68C02292021A43FB685A607B6818001F
:10340000084B98477B681A6A0823FB181B88D31857
:10341000FA682821525CD2B21A70C046BD4604B088
:1034200080BDC0461533010080B584B000AF786020
:103430007B681B68FB60FB685B8B9BB21A000423F4
:10344000134004D07B6825221E21995424E00A23CE
:10345000FB187A68528B1A807B689B8B9AB20A237E
:10346000FB180A21791809888A1A1A807B689B8BB5
:103470009BB2013B9AB27B689A837B681800084B29
:1034800098477B681A6A0A23FB181B88D3181B7895
:10349000D9B2FB6828229954BD4604B080BDC0460D
:1034A0001533010080B584B000AF78607B681B687D
:1034B000FB60FB681B7EDBB21A00012313402BD09C
:1034C000FB6801221A76FB685B8B9BB21A00022311
:1034D000134004D07B682522412199541CE0FB68ED
:1034E0005B8B9BB21A000423134015D07B68252206
:1034F000182199547B6800229A837B689B7A002B61
:103500000AD07B681800134B9847FB685B68C022A1
:1035100092021A43FB685A607B689B8B9AB27B6865
:103520005A837B6825229B5CDBB2052B0ED17B681E
:1035300024229B5CDBB2002B04D17B681800064B75
:10354000984703E07B681800044B9847C046BD4687
:1035500004B080BD15330100293401003933010066
:1035600080B584B000AFF860B960FB1D1A70FB1D18
:103570001B78FA6802339B00D3180433BA681A60C8
:10358000FB681B7EDBB25AB2FB1D1B780121994000
:103590000B005BB213435BB2DAB2FB681A76C0462B
:1035A000BD4604B080BD000090B587B000AF786024
:1035B00039607B681B683B613B685A687B681A62AC
:1035C0003B685A887B689A837B682422012199543E
:1035D0007B682522052199543B691B681B01DB0F81
:1035E000DBB21A000F23FB18511E8A411A703B6888
:1035F0005B7A002B06D03B689A7A7B681100180032
:103600003B4B98470F23FB181B78002B0BD03B68D4
:103610005B88012B07D13B695B688022D2021A4389
:103620003B695A6005E03B695B68324A1A403B6976
:103630005A603B681B7A002B45D03B681B885A00B8
:103640003B685B7A9B0313431A0080231B021A43D7
:103650003B695A621723FC187B681800264B984771
:10366000030023703B695B68224A1A403B695A6039
:103670001723FB181B78002B07D11723FC187B6836
:1036800018001E4B9847030023701723FB181B7864
:10369000002B14D13B6903229A753B681B881B0AD7
:1036A0009BB2782213439BB25A003B685B7A9B0320
:1036B0001343012213431A003B695A6212E0172395
:1036C000FB181B780FE03B6903229A753B681B8847
:1036D0005B0001221A433B685B7A9B0313431A0089
:1036E0003B695A6200231800BD4607B090BDC04632
:1036F000C9890100FFFFFBFF6B8901000D890100F3
:1037000080B582B000AF786039607B689B8B9BB2DC
:10371000002B01D005230CE07B6801229A727B68A4
:103720000122DA723A687B6811001800034B98474F
:1037300003001800BD4602B080BDC046A935010097
:1037400080B584B000AF786039607B681B68FB602F
:103750003B685B7A002B06D03B689A7A7B68110045
:1037600018001E4B9847FB685B681D4A1A40FB68AF
:103770005A603B685A687B681A623B685A887B6863
:103780009A837B682422002199547B682522052195
:103790009954FB6803229A753B681B7A002B0DD065
:1037A0003B681B885A003B685B7A9B0313431A00F3
:1037B00080231B021A43FB685A6209E03B681B889E
:1037C0005A003B685B7A9B0313431A00FB685A62FA
:1037D00000231800BD4604B080BDC046C989010061
:1037E000FFFFFBFF80B582B000AF786039607B6877
:1037F0009B8B9BB2002B01D005230CE07B68012240
:103800009A727B680122DA723A687B6811001800AC
:10381000034B984703001800BD4602B080BDC04668
:103820004137010080B586B000AF0200FB1D1A7061
:10383000FB1D1A78934B9200D3587B617B691B6800
:103840003B613B691B681B01DB0FDBB21A000F23D6
:10385000FB18511E8A411A700E23FB187A69527E9A
:103860001A707B691B7EDAB20E23FB180E217918C1
:1038700009780A401A707B695B8B9BB2002B09D1D7
:103880007B699B8B9BB2002B04D07B6918007E4B1D
:10389000984770E07B695B8B9BB2002B39D07B69CA
:1038A0009B8B9BB2002B34D17B6925229B5CDBB2C6
:1038B000052B2ED17B6924229B5CDBB2002B28D107
:1038C0003B6903221A757B6900225A837B69252292
:1038D000002199547B699B7A002B0BD07B691800DF
:1038E0006A4B98473B695B68C02292021A433B6966
:1038F0005A6002E03B6901221A760E23FB181B78FE
:103900000122134037D07B69DB687A691000984741
:1039100031E07B695B8B9BB2002B2CD07B699B8B4E
:103920009BB2002B27D03B695B8B9BB21A002023F4
:10393000134011D10F23FB181B7801225340DBB237
:10394000002B04D17B699B8B9BB2012B04D07B693C
:103950002522412199540EE07B6924229B5CDBB235
:10396000002B04D17B691800494B984703E07B6921
:103970001800484B98477B695B8B9BB2002B47D064
:103980007B699B8B9BB2002B42D17B6925229B5C80
:10399000DBB2052B3CD17B6924229B5CDBB2012B83
:1039A00036D13B691B7EDBB21A000223134002D0E2
:1039B0003B6902221A763B6903221A757B69002251
:1039C0005A837B692522002199540E23FB181B780A
:1039D000022213400BD07B6924229B5CDBB2012BBB
:1039E00005D17B691B697A691000984710E00E23A6
:1039F000FB181B78012213400AD07B6924229B5CB0
:103A0000DBB2002B04D17B69DB687A691000984730
:103A10007B6925229B5CDBB2052B2ED07B6925229E
:103A20009B5CDBB2002B28D03B6903221A757B69B3
:103A300000225A837B6900229A837B6925229B5C42
:103A4000DBB2412B0ED07B699B7A002B0AD07B69BD
:103A500018000E4B98473B695B68E022D2021A437C
:103A60003B695A600E23FB181B780422134004D0D4
:103A70007B695B697A6910009847C046BD4606B00D
:103A800080BDC04648580020A53401001533010010
:103A9000293401003933010080B500AFBFF34F8FE7
:103AA000024B034ADA60BFF34F8FFEE700ED00E000
:103AB0000400FA0580B500AF024B9847C046BD46EA
:103AC00080BDC046993A010080B586B000AF7860ED
:103AD000A04B1800A04B9847A04B18009E4B98474E
:103AE0009F4B18009C4B98479E4B18009A4B984749
:103AF0009D4B1800984B98479C4B1800964B984745
:103B00009B4B1800944B98479A4B1800924B984740
:103B1000994B1800904B9847984B18008E4B98473C
:103B20001723FB1800221A70954B1800954B9847E5
:103B3000032200210120944B98470200934B1A6006
:103B4000924B1B68002B07D1914B19000320914B1E
:103B500098470020904B98470C23FB1818008F4B78
:103B600098470C23FB181B780A2B04D00C23FB1856
:103B70001B780D2B37D18A4B1800824B9847894B05
:103B800000221A70884B00221A708849884B312213
:103B90001800884B9847864B31220021995486495A
:103BA000824B64221800854B984703003B61824B8F
:103BB000632200219954804B1800724B98473B694F
:103BC000002BECD11723FB1800221A70774B3222FE
:103BD000002118007A4B9847774B64220021180087
:103BE000774B9847B5E06F4B1B78002B59D06E4B45
:103BF0001B78032B0CD86C4B1B785A1CD1B26A4A29
:103C000011701A000C23FB1819786E4B995405E0BB
:103C1000644B00221A70644B00221A70624B1B78AE
:103C2000012B99D9684A674B11001800674B9847D8
:103C3000031E2FD066495D4B1B221800654B984729
:103C40005A4B18004F4B98471723FB1800221A7045
:103C5000564B322200211800594B98475449534B78
:103C600031221800534B9847504B18005A4B984735
:103C70000300302B06D84E4B1800574B98470300D3
:103C8000DAB200E031221723FB181A70474B1800F4
:103C90003C4B9847434B00221A70434B00221A704A
:103CA0005AE70C23FB181B780D2B00D154E70C238B
:103CB000FB181B78082B04D00C23FB181B787F2BD8
:103CC0001CD10823FB18454A12681A600823FB1808
:103CD00018002C4B98471723FB181B78002B37D064
:103CE0001723FB181A781723FB18013A1A701723A9
:103CF000FB181B782D4A0021D15429E00C23FB1816
:103D00001B781B2B06D1274B01221A70264B002251
:103D10001A7021E71723FB181B78312B0ED81723B5
:103D2000FB181B780C22BA181178204AD15417239B
:103D3000FB181A781723FB1801321A700C23FB1892
:103D400000225A700C23FB1818000E4B984703E70B
:103D5000C04601E7A86E0300118B0100986E0300B6
:103D6000286F0300B86E0300C86E0300D86E03000E
:103D7000E86E0300F86E0300186F0300086F03007D
:103D8000E46A030039EA0100D9B0010020440020B0
:103D9000206D030025EB0100C5CE0100E13D0100CF
:103DA000406D030034050020350500206C0500201F
:103DB00038050020EF5A0300A0050020818B010088
:103DC0000757030004060020446D0300095A03004E
:103DD000486D0300C5590300BF5A0300506D03002E
:103DE00080B584B000AF78607B6818000C4B9847B2
:103DF0000300FB600DE00B4B1A6801235B421900C6
:103E00001000094B98477B681800054B9847030042
:103E1000FB60FB680133EED0C046BD4604B080BDF8
:103E2000D5EA01002044002091C0010080B500AF18
:103E30000A4B00221A600A4B1B68084A110018003E
:103E4000084B9847054B1B68002B03D0064B80227C
:103E500052051A60C046BD4680BDC0460806002017
:103E60002044002009BA010004ED00E0B0B588B09C
:103E700002AFF860B9607A602E4B984703007B610F
:103E80001323FA187B69110018002B4B9847132352
:103E9000FB181B78002B41D0284B0622002118006C
:103EA000274B9847254A7B6911001800254B9847F6
:103EB000224B00229B5E1800234B9847021C234B89
:103EC0001A601E4B02229B5E18001F4B9847021C73
:103ED0001E4B5A60194B04229B5E18001A4B9847E0
:103EE000021C1A4B9A60194B1A68194B101C984700
:103EF0000500164B5A68164B101C98470400134BCC
:103F00009A68134B101C98470300124AB968F86866
:103F1000019300942B00104CA04705E00F4AB968AC
:103F2000FB6818000C4B984700231800BD4606B0EC
:103F3000B0BDC046E55E0100915901000C060020AD
:103F400007570300CD59010021520100140600203B
:103F5000AD3C0300546D030061590300786D03000C
:103F600090B587B000AFF860B9607A601723FB188E
:103F70001B221A701723FB181B78084A08480F21C8
:103F8000084CA047064AB968FB681800054B9847DB
:103F900000231800BD4607B090BDC0468C6D0300DD
:103FA000240500206159030080B584B000AFF8609B
:103FB000B9607A600220034B984700231800BD4681
:103FC00004B080BDF580010080B584B000AFF8601A
:103FD000B9607A60034B984700231800BD4604B0CF
:103FE00080BDC046B53A010080B584B000AFF8602E
:103FF000B9607A60054AB968FB681800044B9847B5
:1040000000231800BD4604B080BDC046946D030077
:104010006159030090B599B000AFF860B9607A605B
:104020005F23FC18364B9847030023705F23FB186F
:104030001B78002B5DD01023FB1801211800314B99
:1040400098470300BB65BB6D002B50D11023FB18B4
:104050001A785723FB1803210A401A701023FB1803
:104060001A785623FB1892081A705623FB181B78EF
:10407000DB08DBB29A005623FB181B7807210B40A4
:10408000D3183B655723FB181B78022B15D13B6DCA
:10409000002B00DA0733DB109A003B6D1A490B4006
:1040A00004D5013B082149420B430133D318174A79
:1040B000B968F868164CA04719E05723FB181B781D
:1040C000032B14D13B6D002B00DA0733DB109A0071
:1040D0003B6D0D490B4004D5013B082149420B4380
:1040E0000133D3180B4AB968F868094CA04701237B
:1040F00002E00023FB6000231800BD4619B090BD0C
:10410000E56001004D61010007000080AC6D030017
:1041100061590300C86D030090B587B000AFF86027
:10412000B9607A601223FB1800221A801223FB1850
:1041300064211800194B984703007B617B69002BB1
:1041400006D07B69164AB968F868164CA04707E0A4
:104150001223FB181B88144AB968F868114CA04751
:104160001223FB181800114B984703007B617B69F1
:10417000012B0ED1FB6818000D4B984703001A0065
:10418000FB689A180B4B100019001A231A000A4BEF
:10419000984700231800BD4607B090BDAD47010009
:1041A000E06D030061590300F46D030029810100F3
:1041B000BF5A0300086E0300D156030080B58AB0D1
:1041C00000AFF860B9607A601023FB1800221A7003
:1041D0001023FB1801225A701023FB1802229A7038
:1041E0001023FB180322DA701023FB1804221A7123
:1041F0001023FB1805225A711023FB1806229A710E
:104200001023FB180722DA711023FB1808221A72F8
:104210001023FB1809225A721023FB18FF229A72EE
:104220001023FB181800094B984703007B627B6A38
:10423000012B05D1064AB968FB681800054B984761
:1042400000231800BD460AB080BDC046558101005C
:10425000246E03006159030080B586B000AFF8609A
:10426000B9607A601023FB1806221A701023FB181D
:104270001800094B984703007B617B69012B05D12E
:10428000064AB968FB681800054B984700231800D8
:10429000BD4606B080BDC04681810100406E03006E
:1042A0006159030090B58FB000AFF860B9607A60D3
:1042B0001823FB1800221A701823FB1800225A70CA
:1042C0001823FB1800221A701823FB1800225A70BA
:1042D0001C23FB1800221A701C23FB181422BA1886
:1042E0009A601C23FB180122DA811C23FB18182278
:1042F000BA185A601C23FB1801229A812C4B180013
:104300002C4B984700237B6346E07B6B2A4A2B4863
:104310000F212B4CA047294B1800264B9847002310
:104320003B632FE07B6BDAB23B6BDBB2D318DBB2C3
:10433000DB18DAB21C23FB181A701C23FB1864214B
:104340001800204B98470300FB62FB6A002B0CD13E
:104350001C23FB181B78184A18480F21184CA0473B
:10436000164B1800134B984709E0144B164A118856
:10437000198092789A70114B18000E4B98473B6B3E
:1043800001333B633B6B0F2BCCDD104B1800094B0B
:1043900098477B6B10337B637B6B7F2BB5DD0B4BBF
:1043A0001800044B984700231800BD460FB090BD7D
:1043B000586E030039EA01008C6E030024050020CA
:1043C00061590300A54F0100946E0300406D030086
:1043D00080B588B000AF7860334B1800334B9847F6
:1043E000002214210220324B98470200314B1A6000
:1043F0000022032102202E4B984702002E4B1A6008
:104400002C4B1B68002B03D02B4B1B68002B03D1BC
:104410002A4B1800254B9847294B00221A70284B2D
:104420001B78012B1DD0022B35D0002B2FD1214B17
:104430001B680C22B91800221800224B9847030071
:10444000012B2AD1204B19000120204B98470C2327
:10445000FB1818001E4B9847194B01221A70C046D2
:104460001BE01C4B9847031E19D01B4B98470300B9
:1044700018001A4B98470300012B04D0184B190061
:104480000120124B98470E4B00221A7007E00C4B8C
:1044900000221A7004E0C04602E0C04600E0C046B8
:1044A0002820104B9847BAE7386F030039EA01001B
:1044B000D9B001002006002024060020586F030018
:1044C0002444002039BC0100846F030025EB010067
:1044D00085670100C1670100D567010055810100B2
:1044E000AC6F0300E5CD010090B585B000AF7860FA
:1044F000064B1868796800230A22054CA047030080
:10450000FB60FB681800BD4605B090BD200600208A
:1045100081B3010080B582B000AF0200FB1D1A70AC
:10452000064BFA1D127811001F220A40012191400A
:104530000A001A60C046BD4602B080BD00E100E03E
:1045400080B584B000AF78607B681B68FB60FB6857
:10455000DB695A1E9341DBB21800BD4604B080BD32
:1045600080B582B000AF7860C0467B681800044B0D
:104570009847031EF9D1C046BD4602B080BDC04673
:104580004145010080B582B000AF78607B68802231
:10459000D2051A607B6800225A607B68FF221A816C
:1045A0007B6800229A727B680022DA727B6896220E
:1045B00092011A627B682422012199547B6825228A
:1045C000012199547B682622002199547B68272277
:1045D000002199547B6800229A627B6888225203EA
:1045E000DA607B682C22002199547B682D220021FF
:1045F00099547B6800221A637B6800225A637B68A7
:1046000000229A637B680022DA637B6800225A6189
:104610007B6800221A827B680022DA767B6800229F
:104620001A767B6800221A777B6800225A767B68AC
:1046300013229A767B6800225A77C046BD4602B0A4
:1046400080BD000080B584B000AF78607B681B68D7
:10465000FB607B681B681800094B98470300180033
:10466000084B98477B681800074B9847FB681B6806
:1046700002221A43FB681A60C046BD4604B080BDE2
:10468000B1830200154501006145010080B582B08B
:1046900000AF78600A00FB1C1A707B6831229B5CBB
:1046A0005AB2FB1C1B78012199400B005BB21343EB
:1046B0005BB2D9B27B6831229954C046BD4602B084
:1046C00080BD000080B584B000AF78600023FB603F
:1046D000094B1B680C22BA1811001800074B9847A9
:1046E000FB68002B03D0064B802252051A60C0469F
:1046F000BD4604B080BDC0462C44002009BA01006C
:1047000004ED00E080B584B000AF78600023FB606A
:10471000094B1B680C22BA1811001800074B984768
:10472000FB68002B03D0064B802252051A60C0465E
:10473000BD4604B080BDC0462C44002009BA01002B
:1047400004ED00E080B500AF104B9847104B984740
:104750000120104B984702000F4B1A6003220021E2
:1047600001200E4B984702000D4B1A600A4B1B6844
:10477000002B03D00A4B1B68002B03D1094B1800F8
:10478000094B9847C046BD4680BDC0467D480100E4
:10479000F548010041B3010030440020D9B00100C8
:1047A0002C440020DC6F030039EA010080B584B09E
:1047B00000AF786039600023FB6096235B0018002F
:1047C000254B98470300FB60FB68002B39D1234B36
:1047D00055221A702149224B01221800214B98477B
:1047E000031E30D1204B1B683A68110018001F4B84
:1047F00098470300012B03D003235B42FB6023E0B7
:104800001B49174B022218001A4B9847164B1B687E
:104810003A6811001800154B98470300012B0CD182
:10482000134B1B789BB21B029AB2114B5B789BB265
:10483000D3189AB27B681A8006E003235B42FB60C0
:1048400002E0C04600E0C0460B4B9847FB681800EA
:10485000BD4604B080BDC046794901002A4400200D
:1048600034440020119C02002C44002091C001001F
:1048700028440020599C02004149010080B590B0B5
:1048800000AF3B001800144B98473B009622920162
:104890001A623B0080225203DA603B000F4A1A631F
:1048A0003B000F4A5A633B00012252429A633B008D
:1048B00001225242DA63C0463A000A490A4B180004
:1048C0000A4B9847031EF7D1074B1800084B98472F
:1048D000C046BD4610B080BD8545010003002200E2
:1048E00003002300001C00423444002015980200FD
:1048F0004546010080B500AF0C490D4B0022180061
:104900000C4B98470C490A4B01221800094B984759
:10491000074B00211800094B9847054B012118004F
:10492000064B9847C046BD4680BDC046C5460100FF
:1049300034440020C99B0200054701008D46010058
:1049400090B583B000AF00237B60094B186800234B
:1049500000220021074CA0470300012B02D01423A2
:104960005B427B607B681800BD4603B090BDC046CB
:104970003044002081B3010080B584B000AF78607E
:104980000023FB60084B1B687A6811001800074B76
:1049900098470300012B02D01D235B42FB60FB689C
:1049A0001800BD4604B080BD3044002091C0010015
:1049B00080B582B000AF0200FB1D1A70064BFA1DD5
:1049C000127811001F220A40012191400A001A604A
:1049D000C046BD4602B080BD00E100E080B584B0B5
:1049E00000AF78607B681B68FB60FB68DB690722AF
:1049F00013405A1E9341DBB21800BD4604B080BD7F
:104A000080B582B000AF7860C0467B681800044B68
:104A10009847031EF9D1C046BD4602B080BDC046CE
:104A2000DD49010080B582B000AF78607B68642208
:104A30001A607B681B4A5A607B6800229A607B6818
:104A400000221A737B6800221A767B688022920308
:104A50001A617B6801225242DA827B68012252424B
:104A60009A827B680022DA617B6800221A627B6886
:104A70002422002199547B6800229A627B682C22B0
:104A8000002199547B682D22002199547B682E22A5
:104A9000002199547B68D7221A86C046BD4602B0D1
:104AA00080BDC046480D000080B584B000AF78607E
:104AB0007B681B68BB600023FB607B681800144B9D
:104AC0009847BB681B6802221A43BB681A607B6860
:104AD0001B6818000F4B9847030018000E4B9847AF
:104AE0000CE0FB680133FB607B68DB881A00FB6825
:104AF0009A4203D8BB6810225A8306E0BB685B8BDE
:104B00009BB21A0010231340EBD0BD4604B080BD09
:104B1000014A0100B1830200B149010080B582B0B1
:104B200000AF78600A00FB1C1A707B685B7EDBB20A
:104B30005AB2FB1C1B78012199400B005BB2134356
:104B40005BB2DAB27B685A76C046BD4602B080BD21
:104B500090B591B000AF0023FB633A23FB1800220D
:104B60001A703B1D1800214B98473B1D204ADA6103
:104B70003B1D204A1A623B1DFA229200DA823B2337
:104B8000FB1803221A701EE03A23FC183A1D1A493A
:104B90001A4B18001A4B9847030023703A23FB184E
:104BA0001B78002B04D13A23FB181B78FB630FE022
:104BB000124B1800134B98473B23FB181A783B23E2
:104BC000FB18013A1A703B23FB181B78002BDBD132
:104BD000FB6B002B04D1094B18000B4B984700E0EE
:104BE000C046FB6B1800BD4611B090BD254A0100C0
:104BF0000200080002000900000800426C44002086
:104C000071870100A5880100A94A010080B584B020
:104C100000AF78600E4B00221A700D4B01229A6093
:104C20000023FB600B4B1B680C22BA181100180004
:104C3000094B9847094B00221A70FB68002B03D0E0
:104C4000074B802252051A60C046BD4604B080BDA5
:104C50002C0600209444002009BA010028060020F8
:104C600004ED00E080B584B000AF78600E4B002208
:104C70001A700D4B01229A600023FB600B4B1B68DE
:104C80000C22BA1811001800094B9847094B002252
:104C90001A70FB68002B03D0074B802252051A6064
:104CA000C046BD4604B080BD2C06002094440020C0
:104CB00009BA01002806002004ED00E080B584B0A8
:104CC00000AF78600E4B00221A700D4B01225A6023
:104CD0000023FB600B4B1B680C22BA181100180054
:104CE000094B9847094B01221A70FB68002B03D02F
:104CF000074B802252051A60C046BD4604B080BDF5
:104D00002C0600209444002009BA01002806002047
:104D100004ED00E080B500AF1149124B00221800ED
:104D2000114B98470F4B00211800104B9847104922
:104D30000C4B012218000C4B98470A4B012118001C
:104D40000A4B98470B49074B02221800064B98471D
:104D5000044B02211800054B9847C046BD4680BD54
:104D60000D4C01006C440020613501001D4B010019
:104D7000654C0100BD4C010080B582B000AF00233E
:104D80007B60144B984703007B607B68002B1AD133
:104D9000114B98470120114B98470200104B1A60A5
:104DA0000322002101200F4B984702000E4B1A608E
:104DB0000B4B1B68002B03D00B4B1B68002B03D144
:104DC00006237B6000E0C0467B681800BD4602B049
:104DD00080BDC046514B0100154D010041B301009B
:104DE00068440020D9B001009444002090B585B0FB
:104DF00000AF78600023FB607B68002B03D07B68EA
:104E00005B68002B03D108235B42FB601FE07B68DB
:104E10001B789AB2104B1A807B685A680E4B5A6006
:104E20007B68DA890C4B5A800B23FC180A4A0B4B1F
:104E3000110018000A4B9847030023700B23FB183E
:104E40001B78002B03D006235B42FB60C046FB6847
:104E50001800BD4605B090BD984400206C44002069
:104E6000E537010090B585B000AF78600023FB60A6
:104E70007B68002B03D07B685B68002B03D1082381
:104E80005B42FB601FE07B681B789AB2104B1A8074
:104E90007B689A680E4B5A607B689A890C4B5A80E3
:104EA0000B23FC180A4A0B4B110018000A4B9847B9
:104EB000030023700B23FB181B78002B03D0062361
:104EC0005B42FB60C046FB681800BD4605B090BD64
:104ED000984400206C4400200137010090B583B055
:104EE00000AF00237B60094B1868002300220021DB
:104EF000074CA0470300012B02D014235B427B60C8
:104F00007B681800BD4603B090BDC04668440020D1
:104F100081B3010080B584B000AF78600023FB60EE
:104F2000084B1B687A6811001800074B984703006C
:104F3000012B02D01D235B42FB60FB681800BD46BD
:104F400004B080BD6844002091C0010080B584B0E9
:104F500000AF78600023FB60044B1A687B681A601E
:104F6000FB681800BD4604B080BDC04694440020D4
:104F700080B500AF024B1B781800BD4680BDC0460F
:104F80002806002080B582B000AF0200FB1D1A7019
:104F9000034BFA1D12781A70C046BD4602B080BDA0
:104FA0002806002080B584B000AF78603960002307
:104FB000FB600023BB6096235B001800284B9847DA
:104FC0000300FB60FB68002B38D10823FB18180096
:104FD000244B98470300FB60FB68002B30D17B68B3
:104FE0001800214B98470300FB60FB68002B2AD177
:104FF000BB683A68110018001C4B98470300012B4E
:1050000011D11B4B9847031E11D00020194B984714
:10501000FB68002B03D021235B42FB6014E00323D9
:105020005B42FB6010E003235B42FB600CE0124B31
:1050300098470200FB681343FB6002E0C04600E0B3
:10504000C046FB6807E0C0460B4B98470200FB6870
:105050001343FB60FB681800BD4604B080BDC0462A
:10506000154F01004D4F0100ED4D010091C00100B1
:10507000714F0100854F0100DD4E010080B586B003
:1050800000AFF860B9607A6000237B6100233B6168
:1050900096235B001800364B984703007B617B69C1
:1050A000002B55D11023FB181800324B98470300F2
:1050B0007B617B69002B4DD1FB6818002E4B984714
:1050C00003007B617B69002B47D13B697A68110043
:1050D00018002A4B98470300012B18D1284B9847FA
:1050E000031E06D00020274B984703235B427B61B9
:1050F00034E0BB681800244B9847FB681800234B2A
:10510000984703007B617B69002B04D026E00323D2
:105110005B427B6122E03B697A6811001800174B03
:1051200098470300012B0AD1154B9847031E0AD05C
:105130000020144B984703235B427B610EE003235E
:105140005B427B610AE0124B984703007B6102E0FF
:10515000C04600E0C0467B6905E0C0460C4B98475E
:1051600003007B617B691800BD4606B080BDC04668
:10517000154F01004D4F0100ED4D010091C00100A0
:10518000714F0100854F0100E5CD0100654E010022
:10519000DD4E0100B0B586B000AFF86008007A605F
:1051A00019000B23FB18021C1A700823FB180A1C99
:1051B0001A80FB685C68FB6898680823FB181D88E8
:1051C0007A680B23FB1819782B00A04703007B613A
:1051D0007B691800BD4606B0B0BDB0B586B000AF63
:1051E000F86008007A6019000B23FB18021C1A7083
:1051F0000823FB180A1C1A80FB681C68FB68986867
:105200000823FB181D887A680B23FB1819782B00DC
:10521000A04703007B617B691800BD4606B0B0BDA6
:1052200080B582B000AF0200BB1D1A80BB1D0022FA
:105230009A5E064B10009847021C054B0549101C4E
:105240009847031C181CBD4602B080BDED3C03000E
:105250006D3A030023DB793D90B585B000AF7860EF
:105260000A00FB1C1A700823FA1878680123102121
:10527000124CA0470300FB60FB68002B19D1FB1CFC
:105280001B7803221340DAB20823FB1803210A40DB
:1052900090001A780C218A43111C021C0A431A70D0
:1052A0000823FA18786801231021054CA047030051
:1052B000FB60FB681800BD4605B090BD955101002C
:1052C000DB51010090B587B000AF78600A00FB1C8D
:1052D0001A701723FB18FA1C12781A700C23FA188C
:1052E0007B6811001800A44B984703003B613B69A1
:1052F000002B00D013E10C23FB181B78DB07DB0F1E
:10530000DAB20C23FB181B789B07DB0FDBB21343CD
:10531000DAB20C23FB181B785B07DB0FDBB21343FD
:10532000DAB20C23FB181B781B07DB0FDBB213432D
:10533000DAB20C23FB181B78DB06DB0FDBB213435E
:10534000DAB20C23FB181B789B06DB0FDBB213438E
:10535000DAB20C23FB181B785B06DB0FDBB21343BE
:10536000DAB20C23FB181B781B06DB0FDBB21343EE
:10537000DAB20C23FB185B78DB07DB0FDBB21343DD
:10538000DAB20C23FB185B789B07DB0FDBB213430D
:10539000DAB20C23FB185B785B07DB0FDBB213433D
:1053A000DAB20C23FB185B781B07DB0FDBB213436D
:1053B000DAB20C23FB185B78DB06DB0FDBB213439E
:1053C000DAB20C23FB185B789B06DB0FDBB21343CE
:1053D000DAB20C23FB185B785B06DB0FDBB21343FE
:1053E000DAB20C23FB185B781B06DB0FDBB213432E
:1053F000DBB2012B00D092E00B23FA187B6811007E
:1054000018005E4B984703003B613B69002B00D0BE
:1054100085E00B23FB181B78012B17D002DC002B37
:1054200005D076E0022B29D0032B48D071E0FB1C7D
:105430001B78002B04D11723FB1801221A706EE091
:105440001723FB18FA1C12781A7068E0FB1C1B78F3
:10545000002B04D11723FB1802221A705FE0FB1CFB
:105460001B78012B04D11723FB1802221A7056E077
:105470001723FB18FA1C12781A7050E0FB1C1B78DB
:10548000002B04D11723FB1803221A7047E0FB1CE2
:105490001B78012B04D11723FB1803221A703EE05E
:1054A000FB1C1B78022B04D11723FB1803221A7054
:1054B00035E01723FB18FA1C12781A702FE0FB1C3A
:1054C0001B78002B04D11723FB1804221A7026E046
:1054D000FB1C1B78012B04D11723FB1804221A7024
:1054E0001DE0FB1C1B78022B04D11723FB180422A0
:1054F0001A7014E0FB1C1B78032B04D11723FB1834
:1055000004221A700BE01723FB18FA1C12781A7089
:1055100005E01723FB18FA1C12781A70C0463B6985
:10552000002B08D10823FA18786801231021144CA5
:10553000A04703003B613B69002B18D11723FB18E0
:105540001B780F221340DAB20823FB1810011A78D7
:105550000F210A40111C021C0A431A700823FA1872
:10556000786801231021074CA04703003B613B6989
:105570001800BD4607B090BDA15D0100F55D0100BA
:1055800095510100DB51010090B585B000AF786006
:105590000A00FB1C1A700823FA18786801231121ED
:1055A000124CA0470300FB60FB68002B19D1FB1CC9
:1055B0001B7807221340DAB20823FB1807210A40A0
:1055C00090181A780E218A43111C021C0A431A7083
:1055D0000823FA18786801231121054CA04703001D
:1055E000FB60FB681800BD4605B090BD95510100F9
:1055F000DB51010090B587B000AF78600A00FB1C5A
:105600001A701723FB18FA1C12781A700C23FA1858
:105610007B6811001800A44B984703003B613B696D
:10562000002B00D013E10C23FB181B78DB07DB0FEA
:10563000DAB20C23FB181B789B07DB0FDBB213439A
:10564000DAB20C23FB181B785B07DB0FDBB21343CA
:10565000DAB20C23FB181B781B07DB0FDBB21343FA
:10566000DAB20C23FB181B78DB06DB0FDBB213432B
:10567000DAB20C23FB181B789B06DB0FDBB213435B
:10568000DAB20C23FB181B785B06DB0FDBB213438B
:10569000DAB20C23FB181B781B06DB0FDBB21343BB
:1056A000DAB20C23FB185B78DB07DB0FDBB21343AA
:1056B000DAB20C23FB185B789B07DB0FDBB21343DA
:1056C000DAB20C23FB185B785B07DB0FDBB213430A
:1056D000DAB20C23FB185B781B07DB0FDBB213433A
:1056E000DAB20C23FB185B78DB06DB0FDBB213436B
:1056F000DAB20C23FB185B789B06DB0FDBB213439B
:10570000DAB20C23FB185B785B06DB0FDBB21343CA
:10571000DAB20C23FB185B781B06DB0FDBB21343FA
:10572000DBB2012B00D092E00B23FA187B6811004A
:1057300018005E4B984703003B613B69002B00D08B
:1057400085E00B23FB181B78012B17D002DC002B04
:1057500005D076E0022B29D0032B48D071E0FB1C4A
:105760001B78002B04D11723FB1801221A706EE05E
:105770001723FB18FA1C12781A7068E0FB1C1B78C0
:10578000002B04D11723FB1802221A705FE0FB1CC8
:105790001B78012B04D11723FB1802221A7056E044
:1057A0001723FB18FA1C12781A7050E0FB1C1B78A8
:1057B000002B04D11723FB1803221A7047E0FB1CAF
:1057C0001B78012B04D11723FB1803221A703EE02B
:1057D000FB1C1B78022B04D11723FB1803221A7021
:1057E00035E01723FB18FA1C12781A702FE0FB1C07
:1057F0001B78002B04D11723FB1804221A7026E013
:10580000FB1C1B78012B04D11723FB1804221A70F0
:105810001DE0FB1C1B78022B04D11723FB1804226C
:105820001A7014E0FB1C1B78032B04D11723FB1800
:1058300004221A700BE01723FB18FA1C12781A7056
:1058400005E01723FB18FA1C12781A70C0463B6952
:10585000002B08D10823FA18786801231121144C71
:10586000A04703003B613B69002B18D11723FB18AD
:105870001B780F221340DAB20823FB1810011A78A4
:105880000F210A40111C021C0A431A700823FA183F
:10589000786801231121074CA04703003B613B6955
:1058A0001800BD4607B090BDA15D0100F55D010087
:1058B00095510100DB51010090B585B000AF7860D3
:1058C0000A00FB1C1A700823FA18786801231221B9
:1058D000124CA0470300FB60FB68002B19D1FB1C96
:1058E0001B7801221340DAB20823FB1801210A4079
:1058F00090011A7840218A43111C021C0A431A7035
:105900000823FA18786801231221054CA0470300E8
:10591000FB60FB681800BD4605B090BD95510100C5
:10592000DB51010090B585B000AF78600A00FB1C28
:105930001A700823FA18786801231521124CA04721
:105940000300FB60FB68002B19D1FB1C1B780122B4
:105950001340DAB20823FB1801210A40D0001A785C
:1059600008218A43111C021C0A431A700823FA18E2
:10597000786801231521054CA0470300FB60FB68F4
:105980001800BD4605B090BD95510100DB510100E6
:1059900090B585B000AF786039600823FA18786850
:1059A00001231E21084CA0470300FB600823FB18BD
:1059B0001B78DB07DB0FDBB21A003B681A70FB6851
:1059C0001800BD4605B090BD9551010090B587B057
:1059D00000AF786039600C23FA1878680623282114
:1059E000264CA04703007B610C23FB185B781AB29E
:1059F0003B681A803B6800229B5E9BB21B029AB2F6
:105A00000C23FB181B789BB2D3189BB21AB23B68CD
:105A10001A803B6802330C22BA18D27812B21A806C
:105A20003B6802333A6802320021525E92B212029F
:105A300091B20C22BA18927892B28A1892B212B22B
:105A40001A803B6804330C22BA18527912B21A80B9
:105A50003B6804333A6804320021525E92B212026B
:105A600091B20C22BA18127992B28A1892B212B27A
:105A70001A807B691800BD4607B090BD95510100A2
:105A800090B585B000AF78600A00FB1C1A7008233F
:105A9000FA18786801230121114CA0470300FB602C
:105AA000FB68002B17D1FB1C1B7803221340DAB2D2
:105AB0000823FB1890011A783F210A40111C021C90
:105AC0000A431A700823FA18786801230121054C4B
:105AD000A0470300FB60FB681800BD4605B090BD01
:105AE00095510100DB51010090B585B000AF7860A1
:105AF00039603A68786801230F21044CA0470300FD
:105B0000FB60FB681800BD4605B090BD95510100D3
:105B100090B585B000AF78600A00FB1C1A700823AE
:105B2000FA18786801231221124CA0470300FB6089
:105B3000FB68002B19D1FB1C1B7801221340DAB241
:105B40000823FB1801210A4010001A7801218A431A
:105B5000111C021C0A431A700823FA1878680123E2
:105B60001221054CA0470300FB60FB681800BD46EE
:105B700005B090BD95510100DB51010090B585B095
:105B800000AF786039600823FA1878680123122181
:105B9000084CA0470300FB600823FB181B78DB07B9
:105BA000DB0FDBB21A003B681A70FB681800BD46B9
:105BB00005B090BD9551010090B585B000AF7860FB
:105BC0000A00FB1C1A700823FA18786801231021B8
:105BD000124CA0470300FB60FB68002B19D1FB1C93
:105BE0001B7801221340DAB20823FB1801210A4076
:105BF00090181A7802218A43111C021C0A431A7059
:105C00000823FA18786801231021054CA0470300E7
:105C1000FB60FB681800BD4605B090BD95510100C2
:105C2000DB51010090B585B000AF78600A00FB1C25
:105C30001A700823FA18786801231721254CA04709
:105C40000300FB60FB68002B3FD1FB1C1B781B098A
:105C5000DBB21A1C01231340DAB20823FB1801211E
:105C60000A4090001A7804218A43111C021C0A433E
:105C70001A70FB1C1B785B09DBB21A1C0123134052
:105C8000DAB20823FB1801210A4010011A7810210A
:105C90008A43111C021C0A431A70FB1C1B78072242
:105CA0001340DAB20823FB1850011A781F210A406A
:105CB000111C021C0A431A700823FA187868012381
:105CC0001721054CA0470300FB60FB681800BD4688
:105CD00005B090BD95510100DB51010090B587B032
:105CE00000AF78600A00FB1C1A700C23FA18786861
:105CF00001231821284CA04703007B617B69002BFE
:105D00001CD1FB1C1B78DB09DBB21A1C01231340DE
:105D1000DAB20C23FB1801210A4090181A780221EC
:105D20008A43111C021C0A431A700C23FA18786863
:105D300001231821194CA04703007B617B69002BCC
:105D400008D11023FA18786801236221124CA04769
:105D500003007B617B69002B19D1FB1C1B7803229C
:105D60001340DAB21023FB1803210A40D0001A783E
:105D700018218A43111C021C0A431A701023FA18B6
:105D8000786801236221054CA04703007B617B6991
:105D90001800BD4607B090BD95510100DB510100D0
:105DA00090B585B000AF786039607B68022118003B
:105DB0000E4B98470300FB60FB68002B07D13A6845
:105DC0007868022346210A4CA0470300FB60FB6869
:105DD000002B06D17B6800211800044B9847030074
:105DE000FB60FB681800BD4605B090BD815A0100FC
:105DF0009551010090B585B000AF786039607B683F
:105E000002211800214B98470300FB60FB68002B20
:105E100008D10823FA18786801235F211C4CA04799
:105E20000300FB60FB68002B2BD10823FB181B78B9
:105E3000DB069B0FDBB2012B0CD002DC002B05D064
:105E400014E0022B0AD0032B0CD00FE03B68002299
:105E50001A700FE03B6801221A700BE03B680222C7
:105E60001A7007E03B6803221A7003E03B680022C7
:105E70001A70C0467B6800211800044B9847030045
:105E8000FB60FB681800BD4605B090BD815A01005B
:105E90009551010080B584B000AFF86008007A60C9
:105EA00019000B23FB18021C1A700823FB180A1C8C
:105EB0001A8000231800BD4604B080BD80B584B0B0
:105EC00000AFF86008007A6019000B23FB18021C71
:105ED0001A700823FB180A1C1A8000231800BD46FC
:105EE00004B080BD80B500AF014B1800BD4680BD39
:105EF0001400002080B582B000AF00237B60234BEC
:105F000001211800224B984703007B60FA1C1F4BAD
:105F1000110018001F4B984702007B6813437B60F9
:105F2000FB1C1B78002BF1D1184B802118001A4B59
:105F30009847164B01211800184B9847134B002126
:105F40001800174B9847114B01211800154B984723
:105F50000E4B01211800144B98470C4B00211800E0
:105F6000124B9847094B06211800114B9847074BD5
:105F7000042118000F4B9847044B012118000E4BC9
:105F800098477B681800BD4602B080BD1400002011
:105F9000115B01007D5B0100DD5C0100B95801006F
:105FA00025590100C5520100F55501005952010063
:105FB00089550100255C0100B95B010080B582B004
:105FC00000AF384B2E221A70364B374A5A60354B89
:105FD0000222DA81334B3A009A60324B01229A81D5
:105FE000304B642200211800304B984703007B603F
:105FF0007B68002B04D02E4B18002E4B98470CE0EA
:106000003B001B78552B04D02B4B1800294B98478D
:1060100003E02A4B1800274B9847224B284A5A6026
:10602000204B0322DA811F4B64211800254B98472F
:1060300003007B607B68002B03D0234B18001D4BB3
:106040009847184B214A5A60164B0322DA81154BA8
:10605000642118001B4B984703007B607B68002B72
:1060600003D01B4B1800134B98470E4B194A5A602C
:106070000C4B0422DA810B4B64211800114B98471A
:1060800003007B607B68002B03D0134B1800094B87
:106090009847124B9847124B98477B681800BD46AB
:1060A00002B080BDA4440020047003007D500100B4
:1060B0001C70030039EA01003C70030048700300C3
:1060C00008700300A54F01005C7003000C70030012
:1060D0007C70030010700300A8700300916401003D
:1060E000A163010080B582B000AFFB1C00221A70D2
:1060F000114B2E221A70104B104A5A600E4B02227E
:10610000DA810D4BFA1C9A600B4B01229A810A4BE3
:106110006422002118000A4B984703007B607B68CB
:10612000002B03D0074B1800074B9847FB1C1B782C
:106130001800BD4602B080BDA444002018700300C2
:106140007D500100DC70030039EA010080B584B0A5
:1061500000AF78600A00FB1C1A70FB1C1B78002B38
:1061600001D1002326E00823FB18144A12881A8064
:10617000134B2E221A70124B0822BA185A60104B79
:106180000222DA810E4B7A689A60FB1C1B789AB265
:106190000B4B9A810A4B642200211800094B984747
:1061A0000300FB60FB68002B03D0074B1800074B74
:1061B0009847FB681800BD4604B080BD007103001D
:1061C000A44400207D500100DC70030039EA010086
:1061D00090B587B000AF040008001100FB1D221C21
:1061E0001A70BB1D021C1A707B1D0A1C1A7010232A
:1061F000FB187A1D12780121100008401A7801213D
:106200008A43111C021C0A431A70BB1D1B78012211
:106210009A401300DBB21A1C0F231340DAB210238A
:10622000FB180F210A4090181A781E218A43111C6E
:10623000021C0A431A700C23FB1810221A700C233C
:10624000FB1801225A700C23FB18FA1D12789A7061
:106250001023FB181A780C23FB18DA700C4B2E2233
:106260001A700B4B0C22BA185A60094B0422DA81BF
:10627000074B00229A81064B64211800054B984772
:1062800003007B617B691800BD4607B090BDC04626
:10629000A4440020A54F0100B0B586B000AF0500B2
:1062A0000C0010001900FB1D2A1C1A70BB1D221CBB
:1062B0001A707B1D021C1A703B1D0A1C1A700823E1
:1062C000FB180E221A700823FB1804225A700823A8
:1062D000FB1800229A700823FB180022DA700823AA
:1062E000FB187A1D12781A710823FB18BA1D127850
:1062F0005A710823FB183A1D12789A71FB1D1B78FE
:106300009BB21622BA18191C0B1CDB185B181380E1
:106310001623FB181B881B0A9BB2DAB20823FB1852
:106320009A701623FB181B88DAB20823FB18DA7060
:10633000094B0822BA185A60074B0722DA81064B2C
:1063400064211800054B984703003B613B69180026
:10635000BD4606B0B0BDC046A4440020A54F010014
:1063600080B582B000AF3B000A4A12881A800A4BFF
:106370003A005A60084B0222DA81074B6421180068
:10638000064B984703007B607B681800BD4602B04F
:1063900080BDC04604710300A4440020A54F010045
:1063A00080B582B000AF334B2E221A70314B324A87
:1063B0005A60304B0322DA812E4B00229A812D4BFA
:1063C000642118002D4B984703003B603B68002B6D
:1063D00003D02B4B18002B4B984700237B6041E0E8
:1063E0007B68002B00DA03339B10DBB2DB00DAB2F0
:1063F0007B6825490B4004D5013B042149420B43EE
:106400000133DBB2D318DBB20122032118001F4B8A
:10641000984703003B607B68002B00DA03339B1036
:10642000DBB2DB00DAB27B6817490B4004D5013BD5
:10643000042149420B430133DBB2D318DBB2012202
:1064400002211800114B984702003B6813433B6040
:106450003B68002B03D00A4B18000A4B98477B6817
:1064600001337B607B680F2BBADDC046BD4602B0AE
:1064700080BDC046A444002014700300A54F010055
:106480000871030039EA010003000080D1610100B6
:10649000B0B500AFFF23FF22FF210F20094CA0471A
:1064A000094B9847C8235B001800084B9847002306
:1064B000002200210F20034CA047034B9847C04601
:1064C000BD46B0BD9962010061630100E5CD0100E8
:1064D00090B589B002AF7860964B1800964B9847FC
:1064E000964B01221A70964B9847012300932E2356
:1064F0003E2201210120934CA047FF23009301235A
:10650000142214212420904CA0478C4B1B78012B83
:1065100000D107E1022B02D0002B6ED0FEE08B4BA6
:1065200000221A708A4B01221A708A4B1422FF2112
:106530001800894B9847894B00221A701723FC18C2
:10654000874B9847030023701723FB181B780F2BEA
:1065500003D91723FB1810221A701723FB181B7876
:10656000002B07D01723FB181A787E4B1100180058
:106570007D4B98477B4B102200211800764B9847A3
:106580007A4B1B78D9B27A4B1B78DAB2794B1B78ED
:10659000DBB20020784CA047784B9847FA239B0049
:1065A0001800774B98470023002200210020724CEE
:1065B000A0476E4B1B78D9B26D4B1B78DAB26D4B8E
:1065C0001B78DBB20F206C4CA0476C4B9847FA232A
:1065D0009B0018006A4B98470023002200210F20DF
:1065E000654CA047654B9847FA239B001800644B05
:1065F0009847524B00221A7097E01623FC18584B0C
:10660000984703002370574B102200211800524B6B
:1066100098471623FB181B780F2B03D91623FB185A
:1066200010221A701623FB181B78002B65D0162336
:10663000FB181A784B4B110018004B4B9847031E60
:106640005BD100233B6150E0464A3B69D3181B787D
:106650009B08DBB2002B00DA0733DB10DBB29B00B8
:10666000D9B2404A3B69D3181B789B08DBB207229A
:106670001340DAB20F23FB188A181A70394A3B69A3
:10668000D3181A780E23FB1803210A401A700E2320
:10669000FB181B78032B0FD1344B1B78D9B2344B2A
:1066A0001B78DAB2334B1B78DCB20F23FB18187857
:1066B0002300314CA04715E00F23FB181878002366
:1066C000002200212C4CA047204B1B781900214BA5
:1066D0000F22BA1812785A541C4B1B780133DAB2C5
:1066E0001A4B1A703B6901333B611623FB181A7869
:1066F0003B699A42A8DC214B9847144B1A78144BFB
:106700001B789A4203D2114B1B78132B0CD9134BD5
:1067100001221A70094B01221A7005E0074B002272
:106720001A7002E0C04600E0C0463220144B984781
:10673000EBE6C0462C71030039EA0100EC4400206E
:10674000752A0100B52401003D2701004106002003
:1067500042060020B44400200757030043060020EF
:10676000E5600100DC4400204D610100400600208E
:1067700020000020210000209962010061630100D7
:10678000E5CD010080B582B000AF7860084A7B6833
:106790001000190014231A00064B9847064B0222DA
:1067A0001A70064B00221A70C046BD4602B080BD6A
:1067B000C8440020D1560300EC44002043060020CA
:1067C00080B500AF024B1B781800BD4680BDC046A7
:1067D0004306002080B500AF014B1800BD4680BDC8
:1067E000B444002090B583B000AF0400080011004D
:1067F000FB1D221C1A70BB1D021C1A707B1D0A1C7B
:106800001A70084BFA1D12781A70074BBA1D1278CD
:106810001A70064B7A1D12781A70C046BD4603B036
:1068200090BDC0464006002020000020210000202E
:1068300080B500AFBFF34F8F024B034ADA60BFF35E
:106840004F8FFEE700ED00E00400FA0580B584B04C
:1068500000AF0200FB1D1A700F23FB18FA1D1278FF
:10686000D2091A700E23FB18FA1D127852091A70F9
:106870000D4BBB600F23FB181B78002B0FD10F2390
:10688000FB181B789B0010229446BC446344083BD1
:106890001A680E23FB181B78DB01D31800E00023D5
:1068A0001800BD4604B080BD0044004180B500AF73
:1068B000024B9847C046BD4680BDC04631680100C6
:1068C00080B582B000AF0200FB1D1A70FB1D1B7863
:1068D0001800034B984703001800BD4602B080BD66
:1068E0004D68010080B584B000AF0200FB1D1A7036
:1068F000BB1D0A1C1A70FB1D1B7818000D4B984716
:106900000300FB60FB1D1B781F22134001229A40ED
:106910001300BB60BB1D1B78002B03D0FB68BA685B
:106920009A6102E0FB68BA685A61C046BD4604B08D
:1069300080BDC046C168010080B500AF024B002297
:106940001A70C046BD4680BD5D06002080B582B08D
:1069500000AF0200FB1D1A70FB1D1B785BB2DB430E
:106960005BB2064A127852B213405BB2DAB2034B02
:106970001A70C046BD4602B080BDC0465D0600200C
:1069800080B582B000AF0200FB1D1A70054B1A786B
:10699000FB1D1B781343DAB2024B1A70C046BD468A
:1069A00002B080BD5D06002080B582B000AF02005D
:1069B000FB1D1A70064B1B78FA1D12781340DBB2D0
:1069C0005A1E9341DBB21800BD4602B080BDC046DE
:1069D0005D06002090B585B000AF786039607B68B7
:1069E000002B02D03B68002B01D1002313E00F23C2
:1069F000FC1839680A4B002218000A4B984703001C
:106A00002370074B1800084B98470F23FB181B787F
:106A10005A425341DBB21800BD4605B090BDC04696
:106A20009008002035E6020035F0020080B59EB0E7
:106A300000AFF860B960FB1D1A707623FB180122C5
:106A40001A807423FB1800221A806E23FB18002280
:106A50001A807223FB1800221A802423FB181800C6
:106A600041231A000021924B98471823FB18180065
:106A700009231A0000218E4B98471423FB1800228B
:106A80001A600023BB667123FB1800221A70BB68D2
:106A9000002B01D1002306E1BA68FB681100180041
:106AA000844B984703001A0001235340DBB2002BAC
:106AB00001D00123F7E0BB6818007F4B9847030023
:106AC000402B01D90023EEE0BB682E2118007B4B40
:106AD00098470300BB66BB6E002B52D0BB6E1800FC
:106AE000754B984702006E23FB181A806E23FB1823
:106AF0001B88072B37D87123FB1801221A70BA6E36
:106B00001823FB18110018006D4B9847BB6818003C
:106B1000694B984702006E23FB181B88D31A3C2B45
:106B200011D97423FB186E22BA1812883C218A1AD4
:106B30001A807423FB181A88B9682423FB181800DC
:106B4000604B98472AE0BA6EBB68D21A7423FB18D0
:106B50001A807423FB181A88B9682423FB181800BC
:106B6000584B98471AE07423FB183C221A80742370
:106B7000FB181A88B9682423FB181800514B984752
:106B80000CE07423FB183C221A807423FB181A882B
:106B9000B9682423FB1818004A4B98477423FB1844
:106BA0001B887422BA18591C11801A002423FB1860
:106BB0002D2199547623FB1800221A807223FB188A
:106BC00001221A8010E07223FA187223FB181B8826
:106BD000191C8900CB18DB1813807623FB181A8840
:106BE0007623FB1801321A807623FB181B88022BB0
:106BF000E9D97623FB1801221A804BE07623FB1893
:106C00001A8831491423FB181800304B9847742315
:106C1000FB181B882422BA18D3181422B91803228F
:106C20001800284B98477123FB181B78002B0CD0B9
:106C30007423FB181B8803332422BA18D318182294
:106C4000BA18110018001E4B98472423FA18FB6845
:106C500011001800174B984703001A0001235340F6
:106C6000DBB2002B0FD0FB1D1A78BB680021180087
:106C70000F4B98472423FA18BB6811001800104BDB
:106C8000984701230FE07623FB181A887623FB1818
:106C900001321A807623FA187223FB1812881B8897
:106CA0009A42ABD300231800BD461EB080BDC0463B
:106CB00007570300D5690100BF5A0300195B0300A1
:106CC000735A0300EF5A030054710300C5590300BF
:106CD00090B583B002AF0120224B984703001A0001
:106CE00001235340DBB2002B05D01F4B19000120BC
:106CF0001E4B984732E002201A4B984703001A00B7
:106D000001235340DBB2002B05D0194B19000120A1
:106D1000164B984722E00420124B9847031E05D0DB
:106D2000144B19000120114B984717E008200D4B18
:106D30009847031E05D0104B190001200B4B9847B4
:106D40000CE00E4B19000120084B98470C490D48E8
:106D500000230093002301220B4CA047BD4601B045
:106D600090BDC046A96901005C71030025EB0100DC
:106D700088710300B4710300E07103000C7203001A
:106D80003872030048450020891C0300B0B586B066
:106D900000AF786039607B68002B02D03B68002B25
:106DA00005D1584B19000120574B9847A6E0082001
:106DB000564B984703001A0001235340DBB2002BC7
:106DC00055D000237B61524B30221A70504B3A222F
:106DD0005A70504B7B6102E07B69013B7B617B69B0
:106DE0001B782F2BF8D17B6918004B4B9847030079
:106DF000012B24D97B6901337B617A69474B1100F0
:106E00001800474B98474249464B40221800464BD2
:106E100098473F4A454B190001203B4B98471323A5
:106E2000FC183B493F4B0A221800414B984703008E
:106E300023701323FB181B78002B12D008E03D4B66
:106E400019000120304B984720203B4B984755E0D4
:106E50001323FB181A78394B190001202A4B984745
:106E60004CE0374B00221A600820334B98477B6870
:106E7000002B43D00023FB601323FC180C23FB18CA
:106E80003A68796827482F4DA847030023701323D9
:106E9000FB181B78002B0CD0224B18002A4B98476C
:106EA0002020254B9847294B19000120164B984765
:106EB00024E0234B1A68FB68D218214B1A60204B40
:106EC0001A68234B1B68234901200F4CA0471C4B19
:106ED0001A681F4B1B689A4210D3124B18001A4BAA
:106EE00098471D4B19000120074B98470021172098
:106EF0001A4B98471020104B9847C046BD4606B025
:106F0000B0BDC0465872030025EB0100A96901001D
:106F1000A800002057720300BF5A0300AA000020F7
:106F2000735A0300900800202D6A0100BC72030010
:106F300035E602007C72030081690100E4720300FF
:106F4000B808002065EB020035F00200187303005A
:106F5000B40800205473030088730300E56801003F
:106F600090B585B000AFF860B9607A60BB68042B5B
:106F700000D977E0BB689A003C4BD3181B689F464A
:106F80003B4B190001203B4B98476BE03A4B1900F3
:106F90000120384B98470420384B984762E07B68C3
:106FA0001B881A007B685B6835490120314CA0477B
:106FB0007B681B88C82B0DD17B685A68314B1A60DF
:106FC000314B00221A607B685A6880239B009A42EA
:106FD00043D803E02020294B984743E07B689A6818
:106FE0007B685B6819001000284B98471020234BE2
:106FF000984732E07B685A687B681B68190010006C
:10700000224B98477B681B7A002B28D010201B4B03
:10701000984724E07B681A681D4B19000120154B26
:1070200098477B681B680B331BD10820194B984786
:10703000031E06D0184B1800184B98470820184B11
:1070400098470420134B9847031E02D00420144B8A
:107050009847144B9847C04603E0C04602E0C0463C
:1070600000E0C046BD4605B090BDC046C47A0300EE
:10707000BC73030025EB0100F47303008169010078
:1070800020740300B4080020B80800208D6D0100B2
:107090005C740300A96901009008002035F002002B
:1070A0004D690100D16C010080B582B000AF3A603B
:1070B000FB1D021C1A70BB1D0A1C1A703A68BB1D0E
:1070C0001978FB1D1B785BB21800034B9847C0462C
:1070D000BD4602B080BDC04699190300B0B586B068
:1070E00004AF786039603B68FF2213401C003B68A6
:1070F0001B0A1A00FF2313403A68120C1100FF22EA
:107100000A403968090E0D00786809490295019214
:107110000093230002000120064CA0473A687B68D8
:1071200011001800044B9847C046BD4602B0B0BDE0
:107130008C74030025EB0100FD1A030090B587B0A5
:1071400002AF02003960FB1D1A70FB1D1B782C2B4F
:1071500002D0322B3DD06FE03B68FB60FB681B78B0
:10716000012B07D1364B19000120364B9847364B7F
:1071700098475EE0FB681B78002B5AD1334B19000F
:107180000120304B98470220314B98470820314B63
:107190009847031E06D0304B1800304B9847082004
:1071A0002B4B984704202B4B9847031E02D00420FA
:1071B000274B98472A4B012118002A4B98472A4A07
:1071C0002A48FF230093130001220A21284CA047DC
:1071D0002FE03B68BB60BB681B781800BB680133BD
:1071E0001B781C00BB6802331B781A00BB68033392
:1071F0001B78204901930092230002000120114CCA
:10720000A04702201C4B98471C4B1B78012B02D136
:107210001B4B98470FE01B4A114B110018001A4BEB
:107220009847031E07D0194B19000120054B9847BA
:1072300001E0C04600E0C046C046BD4605B090BD76
:10724000BC74030025EB010069310200DC7403000B
:107250004D690100A96901009008002035F0020085
:10726000BC08002045060300007503000C750300F0
:10727000952C020018750300816901005C0600204E
:10728000D16C01004071030011050300407503003B
:1072900090B583B000AF294B9847294B19000120C6
:1072A000284B9847FC1D0020274B9847030023706C
:1072B000FB1D1B78012B10D1244B19000120214B01
:1072C0009847234B190001201E4B9847C0460020C9
:1072D000204B98470300022BF9D1FB1D1B78002B94
:1072E000E0D11D4B19000120164B98478C239A00C2
:1072F0001A4B002118001A4B9847BC1D174B190058
:107300000020184B984703002370BB1D1B780B2BE4
:1073100007D1BB1D1A78144B19000120094B98475F
:1073200008E0124B19000120064B98470120104B32
:107330009847C046BD4603B090BDC0463DF9010028
:107340006475030025EB010019FE01009C75030024
:10735000C47503008DF90100F87503006006002074
:1073600007570300DDE502001C7603004C7603009E
:107370008169010080B582B000AF3B1D1800084B49
:1073800098473A1D074B11001800074B9847054BCB
:107390001800064B9847C046BD4602B080BDC046A7
:1073A0002D310300F0440020513103003D32030031
:1073B00080B588B000AF3B001800124B98473B00E7
:1073C000802292001A613B000F4A5A603A000F4B2C
:1073D000110018000E4B98470300FB61FB69002B5E
:1073E00006DAFA690B4B190001200B4B9847FEE7B0
:1073F0000A4A064B11001800094B9847C046BD4683
:1074000008B080BDC1170300F044002048450020AB
:107410000D1803007076030025EB0100616F010079
:10742000F918030080B582B000AF3A60FB1D021C62
:107430001A70BB1D0A1C1A703A68BB1D1978FB1D17
:107440001B785BB21800034B9847C046BD4602B09C
:1074500080BDC046B904030080B582B000AF78603B
:1074600039603A687B6811001800034B9847C046A2
:10747000BD4602B080BDC046ED04030090B589B0A2
:1074800002AF78601023FB1800221A701023FB183B
:1074900000225A701023FB1800229A707B685B68E8
:1074A0005A687B685B689B682A4901202A4CA04780
:1074B0007B681B689B68294904221800284B984761
:1074C000031E43D17B681B689B680433FB60002369
:1074D0007B6115E07C69631C7B61FB680C22B91839
:1074E0000A2218001F4B98470300DAB21023FB183A
:1074F0001A55FB681B782C2B0AD1FB680133FB6003
:107500007B69022B05DCFB681B78002BE2D100E0D5
:10751000C0461023FB181B781A001023FB185B7859
:1075200018001023FB189B780F49009303000120DB
:10753000094CA0471023FB1818781023FB18597822
:107540001023FB189B781A00084B9847C046BD468D
:1075500007B090BDB876030025EB0100C0760300AC
:10756000CD5A0300795C0300C8760300E56701008B
:1075700090B58BB000AF78600C23FB181422FF216C
:107580001800484B98477B681B689B68464909224E
:107590001800464B9847031E66D1454B1900012041
:1075A000444B98477B685B685A687B685B689B685C
:1075B000414901203F4CA0477B681B68DA687B6823
:1075C0001B689B683D4901203A4CA04700237B6221
:1075D0007B681B689B680933BB6015E07C6A631C91
:1075E0007B62BB680822B9180A221800344B9847FE
:1075F0000300DAB20C23FB181A55BB681B782C2B3E
:107600000AD1BB680133BB607B6A132B05DCBB6806
:107610001B78002BE2D100E0C0462A4B1900012064
:10762000244B984700233B620DE00C23FA183B6A79
:10763000D3181B781A00244B190001201D4B9847C2
:107640003B6A01333B623B6A132BEEDD0C23FB18D4
:1076500018001E4B98470300012B1ED11C4B19002C
:107660000120144B984718E01A4B19000120114BC8
:1076700098477B685B685A687B685B689B680E49C3
:1076800001200C4CA0477B681B68DA687B681B688C
:107690009B680A490120074CA047C046BD460BB075
:1076A00090BDC04607570300DC760300CD5A0300A7
:1076B000E876030025EB0100B876030004770300A9
:1076C000795C03000C77030020770300E944010094
:1076D000247703004077030090B58BB006AFF860C5
:1076E000B9607A60BB68012B3BD0052B58D0002BCA
:1076F00000D05BE07B681B68002B25DB2D4B19005D
:1077000001202D4B98472D492D4AF86800230593F9
:107710000023049300230393002302930023019387
:10772000274B00930B000121264CA047031E05D0D8
:10773000254B19000120204B984737E0234B1900B7
:1077400001201D4B984731E0214A224B19000120AE
:10775000194B98471E4AFB68110018001E4B9847AA
:1077600024E07B681B78002B11D11C4B1C49F86866
:1077700002221C4CA0471C4B1C49F8680222194CE1
:10778000A0471B4B190001200B4B98470EE07B686C
:107790001B781A00174B19000120074B984705E08A
:1077A000154B19000120044B9847C046C046BD4602
:1077B00005B090BD9C77030025EB0100B87703006E
:1077C000C877030059050300D4770300FC77030052
:1077D0004071030018780300110503007175010062
:1077E00050780300F90603007D74010078770300E8
:1077F0006478030078780300AC78030080B588B023
:1078000000AF3B1D18001F4B98473B1D1E4A9A6056
:107810003B1D80229200DA603B1D1C4A1A613B1D11
:10782000802292005A613B1D194A1A803B1D194A59
:107830009A803A1D184B11001800184B9847030006
:10784000FB61FB69002B06DAFA69154B1900012070
:10785000144B9847FEE7144A0F4B11001800134BC6
:1078600098470300FB61FB69002B06DAFA69104BAD
:10787000190001200B4B9847FEE7C046BD4608B0F3
:1078800080BDC04651040300F4080020F40A002023
:107890005B07000070170000BC080020A103030074
:1078A000C078030025EB0100D976010091040300A4
:1078B000F478030080B584B000AF3B1D18000B4B7B
:1078C00098473B1D37221A603B1D00225A603B1D22
:1078D00001221A723B1D0222DA723B1D1900072099
:1078E000034B9847C046BD4604B080BD8975020071
:1078F000BD75020080B500AF064B002207211800BD
:10790000054B984700210720044B9847C046BD46C9
:1079100080BDC0462179010089710200ED7102002D
:10792000B0B500AF0C4B1B685A1C0B4B1A600A4BCE
:107930001B68282B02D9084B01221A60064B1B68D2
:10794000064A07483F21074CA047074B01221A70FF
:10795000C046BD46B0BDC046A40000202879030043
:107960006400002061590300F40C002080B500AFD2
:10797000154A164B11001800154B9847031E08D0E6
:10798000144B19000120144B984702E00020134BC0
:1079900098470E4B34229B5C002BF7D1104B984735
:1079A000104B01221A70104A104B11001800104B96
:1079B0009847104B9847104B9847104B03221A706A
:1079C000C046BD4680BDC04640710300BC080020D3
:1079D000450603004075030025EB0100792C0200E9
:1079E000356202005C060020DD700100A970010014
:1079F0007D620200E5610200D16C010044060020B6
:107A000090B585B000AF09E00020304B9847304B6F
:107A10001800304B984705202F4B984710202F4BCC
:107A2000984703001A0001235340DBB2002B09D012
:107A300020202A4B984703001A0001235340DBB251
:107A4000002BE1D1264B9847FA239B001800224BCC
:107A50009847244B00221A703B00234A13CA13C3D1
:107A60003B0030221A700F23FC1839001F4B0A22EA
:107A700018001F4B9847030023700F23FC18390090
:107A80001A4B0A2218001A4B9847030023700F2341
:107A9000FB181B78002B08D00F23FB181A78154B06
:107AA00019000020144B984703E0144B1800144BA6
:107AB00098476420134B9847134B9847134B002269
:107AC0001A70C046BD4605B090BDC046792C020074
:107AD000F04400206D330300E5CD0100A9690100E9
