S0160000455345353136204D41494E2046572E7372656393
S214012000287D0020E9C00200E1C10200E1C1020012
S21401201000000000000000000000000000000000BA
S214012020000000000000000000000000E9B0010010
S214012030000000000000000011B2010059B20100CA
S214012040E1C10200E1C10200E1C102000D8102000E
S21401205039760200E1C10200092E0100E1C1020049
S2140120604D2F0100B1870200C9870200E1870200F7
S214012070F9870200118802002988020031C0020097
S21401208045C0020059C00200D58D0100E98D01004E
S214012090FD8D01000000000000000000912C0100F1
S2140120A0E1C10200CD2D0100E1C10200E1C1020043
S2140120B00000000010B5064C2378002B07D1054B15
S2140120C0002B02D0044800E000BF0123237010BD9E
S2140120D0000300200000000044C50300084B10B5B3
S2140120E0002B03D00749084800E000BF07480368F3
S2140120F0002B00D110BD064B002BFBD09847F9E70B
S214012100000000000403002044C5030044C503008A
S2140121100000000080B500AFC046BD4680BD80B55A
S21401212000AFC046BD4680BD80B500AF254B984781
S214012130254B9847AE20254B9847D520234B9847EB
S2140121408020224B9847A820204B98472F201F4BD2
S2140121509847D3201D4B984700201C4B984740209A
S2140121601A4B98478D20194B98471420174B9847C0
S214012170A620164B9847A420144B9847A120134B32
S2140121809847C820114B9847DA20104B98471220E1
S2140121900E4B984781200D4B98478F200B4B984745
S2140121A0D9200A4B9847F120084B9847DB20074B6C
S2140121B098474020054B9847AF20044B9847C046A8
S2140121C0BD4680BD1F21010015210100D12101005E
S2140121D080B584B000AF0200FB1D1A700C23FB18FB
S2140121E000221A700C23FB18FA1D12785A700C4B39
S2140121F03C221A700A4B0C22BA185A60084B02226B
S214012200DA81074B00229A60054B00229A81044B23
S21401221064211800034B9847C046BD4604B080BDF4
S214012220704700201D4B010080B584B000AF02004E
S214012230FB1D1A700C23FB1840221A700C23FB1886
S214012240FA1D12785A700C4B3C221A700A4B0C225B
S214012250BA185A60084B0222DA81074B00229A60AC
S214012260054B00229A81044B64211800034B9847C2
S214012270C046BD4604B080BD704700201D4B01001E
S21401228080B582B000AF7860034B7A681A60C046AA
S214012290BD4602B080BDC0461C03002090B583B089
S2140122A000AF040008001100FB1D221C1A70BB1DA4
S2140122B0021C1A707B1D0A1C1A70084B1A68FB1D3B
S2140122C01B789B011900BB1D1B78CB18D3187A1DF0
S2140122D012781A70C046BD4603B090BD1C0300209C
S2140122E080B582B000AF0200FB1D1A70BB1D0A1C30
S2140122F01A70074B1A68FB1D1B789B011900BB1D42
S2140123001B78CB18D3181B781800BD4602B080BDC9
S2140123101C030020B0B584B000AF05000C0010000F
S2140123201900FB1D2A1C1A70BB1D221C1A707B1D6E
S214012330021C1A703B1D0A1C1A70FB1D1A787B1DA5
S2140123401B78D318402B05DD7B1DFA1D1278402122
S2140123508A1A1A700F23FB18BA1D1278D2081A703F
S214012360BB1D1A780F23FB181B78DB00D31A01223A
S2140123709A400E23FB181A707B1D1B78002B00D188
S214012380A4E03B1D1B78012B2FD0022B00D195E03A
S214012390002B61D09BE0FA1D7B1D12781B78D318A9
S2140123A0DAB20D23FC180F23FB181B781100180056
S2140123B0484B9847030023700D23FB180D22B918CC
S2140123C00E22BA18097812780A431A70FA1D7B1D74
S2140123D012781B78D318D9B20D23FB181A780F235D
S2140123E0FB18187800233C4CA0477B1D1B787A1DF0
S2140123F0591E1170002BCED169E0FA1D7B1D127893
S2140124001B78D318DAB20D23FC180F23FB181B78A0
S214012410110018002F4B9847030023700E23FB185A
S2140124201B785BB2DB435BB20D22BA18127852B24C
S21401243013405AB20D23FB181A70FA1D7B1D127831
S2140124401B78D318D9B20D23FB181A780F23FB1863
S21401245018780023204CA0477B1D1B787A1D591E37
S2140124601170002BC9D132E0FA1D7B1D12781B7842
S214012470D318DAB20D23FC180F23FB181B781100B2
S2140124801800144B9847030023700D23FB180D22E8
S214012490B9180E22BA18097812784A401A70FA1D2D
S2140124A07B1D12781B78D318D9B20D23FB181A7826
S2140124B00F23FB1818780023074CA0477B1D1B78B9
S2140124C07A1D591E1170002BCED100E0C046BD46C4
S2140124D004B0B0BD8D2A0100ED290100B0B582B06F
S2140124E000AF05000C0010001900FB1D2A1C1A7015
S2140124F0BB1D221C1A707B1D021C1A703B1D0A1C78
S2140125001A703B1D1B78002B18D00FE0BA1D3B1D1F
S21401251012781B78D318D9B21823FB181C787B1DA8
S2140125201A78FB1D18782300064CA0473B1D1B7824
S2140125303A1D591E1170002BE8D100E0C046BD4679
S21401254002B0B0BD1523010090B587B000AF0400FE
S214012550080011003B60FB1D221C1A70BB1D021CEB
S2140125601A707B1D0A1C1A701023FB18BA1D1278EC
S2140125701A700F23FB187A1D12781A703B681A7AA4
S2140125801323FB18D2081A703B681B7A07221340E4
S214012590DBB2002B06D01323FB181A781323FB1883
S2140125A001321A701323FB181B789BB23A68527AD1
S2140125B092B253439AB2FB1D1B783968897A5B1A2B
S2140125C099B20C23FB184A431A803B685A680C23BD
S2140125D0FB181B88D3187B611223FB183A68527AC2
S2140125E01A700E23FB1800221A700B23FB183A6888
S2140125F0127A1A701123FB1800221A7034E0112384
S214012600FB181B7807221340DBB2002B07D10E23E1
S214012610FB187A6912781A707B6901337B610E2385
S214012620FB181B785BB2002B09DA0F23FB1819780D
S2140126301023FB181B78012218001D4B9847102306
S214012640FB181022BA18127801321A700E23FA18E3
S2140126500E23FB181B78DB1813701123FB181A784E
S2140126601123FB1801321A701123FA180B23FB18D9
S21401267012781B789A42C2D30F23FB180F22BA187E
S214012680127801321A701023FB18BA1D12781A70CC
S2140126901223FB181A781223FB18013A1A70122318
S2140126A0FB181B78002B9CD1C046BD4607B090BDD9
S2140126B0F928010090B585B002AF040008001100AA
S2140126C03B60FB1D221C1A70BB1D021C1A707B1D71
S2140126D00A1C1A703B681A7A3B685C7A7B1D19786B
S2140126E0BB1D18780023009323000B4CA0473B68C2
S2140126F01B78002B00D00AE03C687B1D1A78BB1DB6
S2140127001978FB1D18782300044CA047C046C04624
S214012710BD4603B090BDC046DD2401004925010039
S21401272090B587B000AFF860080011007B600B23FE
S214012730FB18021C1A700A23FB180A1C1A701723AE
S214012740FB180B22BA1812781A70FB681B780A2B32
S21401275011D10B23FB181722BA1812781A707B684E
S2140127605A7A0A23FB181B78D318DAB20A23FB1805
S21401277001321A7018E0FB681B780D2B14D0FB6829
S21401278018787C680A23FB181A780B23FB1819782B
S21401279023000B4CA0477B68197A0B23FB180B22EE
S2140127A0BA1812788A181A70FB680133FB60FB6846
S2140127B01B78002BC9D1C046BD4607B090BDC046A8
S2140127C0B526010080B582B000AF0200FB1D1A706D
S2140127D0FB1DFA1D12780F210A401A70FB1D1B788B
S2140127E0502252421343DBB21800034B9847C046AF
S2140127F0BD4602B080BDC046D121010080B582B081
S21401280000AF0200FB1D1A70FB1DFA1D12787F2116
S2140128100A401A70FB1D1B781B09DBB210221343FA
S214012820DBB20233DBB21800064B9847FB1D1B7860
S2140128300F221340DBB21800024B9847C046BD4634
S21401284002B080BDD121010080B582B000AF020088
S214012850FB1D1A70FB1DFA1D12783F210A401A70E3
S214012860FB1D1B7840221343DBB21800024B98472E
S214012870C046BD4602B080BDD121010090B583B0EF
S21401288000AF184B1800184B9847184B9847002074
S214012890174B9847FB1D00221A701AE0BB1D002239
S2140128A01A700CE0BB1D1978FB1D18780123002255
S2140128B0104CA047BB1D1A78BB1D01321A70BB1DF8
S2140128C01B785BB2002BEDDAFB1D1A78FB1D01327B
S2140128D01A70FB1D1B78052BE0D9C046BD4603B018
S2140128E090BDC0462003002081220100292101005D
S2140128F049280100ED29010090B585B000AF04001C
S21401290008001100FB1D221C1A70BB1D021C1A7048
S2140129107B1D0A1C1A70FB1D1B783F2B5DD8BB1D47
S2140129201B782F2B59D80E23FB18BA1D1278D20804
S2140129301A70BB1D1A780E23FB181B78DB00D31AFE
S21401294001229A400D23FB181A700F23FC18FB1D59
S2140129501A780E23FB181B7811001800214B984794
S214012960030023707B1D1B78012B04D0022B1DD086
S214012970002B0BD025E00F23FB180F22B9180D22D0
S214012980BA18097812780A431A701AE00D23FB1850
S2140129901B785BB2DB435BB20F22BA18127852B2D5
S2140129A013405AB20F23FB181A700AE00F23FB18C4
S2140129B00F22B9180D22BA18097812784A401A70EF
S2140129C0C0460F23FB181A78FB1D19780E23FB1837
S2140129D018780023044CA04700E0C046BD4605B069
S2140129E090BDC0468D2A0100ED290100B0B582B028
S2140129F000AF05000C0010001900FB1D2A1C1A7000
S214012A00BB1D221C1A707B1D021C1A703B1D0A1C62
S214012A101A703B1D1B7801225340DBB2002B0DD0F0
S214012A20BB1D1A78FB1D1B7811001800124B984726
S214012A3003001A007B1D1B78934218D07B1D1A7861
S214012A40BB1D1978FB1D1B7818000C4B9847FB1D06
S214012A501B7818000A4B9847BB1D1B781800094BBA
S214012A6098477B1D1B781800074B984700E0C04627
S214012A70BD4602B0B0BDC046E12201009D22010064
S214012A80C5270100FD2701002922010080B582B07B
S214012A9000AF0200FB1D1A70BB1D0A1C1A70BB1D7D
S214012AA01A78FB1D1B7811001800034B984703008A
S214012AB01800BD4602B080BDE122010080B584B099
S214012AC000AF78607B681B68FB60FB685B7EDBB2EF
S214012AD05BB2002B01DA012300E000231800BD469B
S214012AE004B080BD80B584B000AF78607B681B6899
S214012AF0FB60C0467B6818000B4B9847031EF9D154
S214012B00FB681B7BDBB202221343DAB2FB681A7343
S214012B10C0467B681800044B9847031EF9D1C0468F
S214012B20BD4604B080BDC046BD2A010080B584B054
S214012B3000AF78600A00FB1C1A707B681B68FB609C
S214012B40FB68FA1C12789A75C046BD4604B080BD73
S214012B5080B584B000AF0200FB1D1A70FB1D1A7809
S214012B60474B9200D358FB60FB681B681B7EDAB2AA
S214012B70FB681B68DB7DDBB21340DBB2BB60BB6866
S214012B800122134045D0FB681B6801221A76C04615
S214012B90FB6818003B4B9847031EF9D1FB685B693D
S214012BA0991CFA685161FA681268528B92B21A80BF
S214012BB0FB681B8B9BB2013B9BB2FA68191C118305
S214012BC0002B08D0FB685B7F002B22D0FB68180027
S214012BD02D4B98471DE0FB68012118002B4B9847A9
S214012BE0FB681B7FDBB2052B13D1FB6800221A772B
S214012BF0FB68DB7E1A00012313400AD0FB689B7E2C
S214012C001A000123134004D0FB689B68FA68100081
S214012C109847BB680422134014D0FB681B68042243
S214012C201A76FB68DB7E1A00022313400AD0FB6883
S214012C309B7E1A000223134004D0FB68DB68FA6807
S214012C4010009847BB680222134014D0FB681B682B
S214012C5002221A76FB68DB7E1A00042313400AD090
S214012C60FB689B7E1A000423134004D0FB681B6993
S214012C70FA6810009847C046BD4604B080BDC046FD
S214012C8084470020BD2A0100E52A01002D2B010002
S214012C9080B500AF0020024B9847C046BD4680BDB8
S214012CA0512B010080B582B000AF0200FB1D1A70E7
S214012CB0074AFB1D1B7819001F230B400121994071
S214012CC00B0019008023D150C046BD4602B080BD1E
S214012CD000E100E080B584B000AF0200FB1D1A7071
S214012CE0FB1D1A78374B9200D358FB60FB681B68B4
S214012CF0BB60BB689B79DBB21A00012313400ED080
S214012D00BB6801229A71FB681433002B07D0FB685D
S214012D105B7C002B03D0FB689B6900209847BB684F
S214012D209B79DBB21A000223134047D0BB6802220C
S214012D309A71FB689B899BB2002B33D0FB689A681B
S214012D40FB68DB899BB2591C88B2F968C8815B00B5
S214012D50D3181B889AB2BB689A81FB689B899BB281
S214012D60013B9AB2FB689A81FB689B899BB2002B58
S214012D7018D1FB68202200219954BB6802221A71DF
S214012D80BB6802229A7119200F4B9847FB681433CF
S214012D90002B07D0FB689B7C002B03D0FB68DB690C
S214012DA000209847FB681433002B07D0FB681B7C78
S214012DB0002B03D0FB685B6900209847C046BD46E0
S214012DC004B080BD88470020A52C010080B500AF67
S214012DD00020024B9847C046BD4680BDD52C010059
S214012DE080B500AF024B9847C046BD4680BDC04681
S214012DF09972020080B500AF024B9847C046BD46A7
S214012E0080BDC046ED72020080B586B000AF494B6A
S214012E109847494B1B8C9BB2DAB21723FB180F213C
S214012E200A401A701723FB181A78444B9200D3589D
S214012E303B61414A3B691B780F210B40D9B23F23C6
S214012E40D1543D490F23FB184E228A5C1A703B6908
S214012E501B783B4A1B01D31802331B889BB2BB600D
S214012E603B691B78374A1B01D31802331B889BB278
S214012E707B60BA687B68D21A3B695A610F23FB18DC
S214012E801B780122134016D02B4A4E230121D15420
S214012E903B6910225A743B691B7C1A0001231340BC
S214012EA042D03B695B68002B3ED03B695B683A6960
S214012EB01000984738E00F23FB181B7802221340B6
S214012EC016D01D4A4E230221D1543B6900225A7462
S214012ED03B691B7C1A000223134025D03B699B6883
S214012EE0002B21D03B699B683A69100098471BE08C
S214012EF00F23FB181B780422134015D00E4A4E23CD
S214012F000421D1543B6906225A743B691B7C1A0082
S214012F100423134008D03B69DB68002B04D03B69CF
S214012F20DB683A6910009847074B9847C046BD468C
S214012F3006B080BDE12D010000480041F0040020EC
S214012F4090470020A0040020F52D010080B582B036
S214012F5000AF154B1B697B60144B9B693B60124BA2
S214012F609A683B681A43104B9A60104B104A9A6154
S214012F7008E07B685A687B681B68180090477B6886
S214012F809B687B607B68002BF3D1074BDB683B605B
S214012F90054B9B683A68D2431A40034B9A60C04679
S214012FA0BD4602B080BDC0460C00002000040042B1
S214012FB0FFFF0F0F80B582B000AF02003960FB1D26
S214012FC01A70FB1D1B78012B0AD0022B0FD0002B89
S214012FD014D10E4B0D4A91693A680A439A610FE083
S214012FE00A4B0A4AD1693A680A43DA6108E0074B94
S214012FF0064A116A3A680A431A6201E0172300E09A
S21401300000231800BD4602B080BDC0460004004043
S21401301080B500AF02210220074B9847074B0122DB
S2140130201A70C046054B1B78DBB21A000123134009
S214013030F8D1C046BD4680BDB52F01000004004250
S21401304080B584B000AF78607B681B68FB60FB6866
S214013050DB69072213405A1E9341DBB21800BD46B6
S21401306004B080BD80B582B000AF7860C0467B6892
S2140130701800044B9847031EF9D1C046BD4602B05E
S21401308080BDC0464130010080B584B000AF786095
S2140130907B681B68FB60FB681B681B01DB0FDBB2F0
S2140130A01A000B23FB18511E8A411A700823FB18BD
S2140130B07A68528B1A807B689B8B9AB20823FB181E
S2140130C00821791809888A1A1A807B689B8B9BB21B
S2140130D0013B9AB27B689A830B23FB181B78002B63
S2140130E010D07B68DB7A002B1CD07B689B8B9BB255
S2140130F0012B17D1FB685B688022D2021A43FB685A
S2140131005A600FE07B68DB7A002B0BD07B689B8BC9
S2140131109BB2002B06D1FB685B688022D2021A4361
S214013120FB685A607B689B8B9BB2002B0ED17B6839
S2140131309B7A002B0AD07B6818000E4B9847FB68D9
S2140131405B68C02292021A43FB685A607B681800CB
S214013150084B98477B681A6A0823FB181B88D31804
S214013160FA682821525CD2B21A70C046BD4604B035
S21401317080BDC0466530010080B584B000AF786080
S2140131807B681B68FB60FB685B8B9BB21A000423A1
S214013190134004D07B6825221E21995424E00A237B
S2140131A0FB187A68528B1A807B689B8B9AB20A232B
S2140131B0FB180A21791809888A1A1A807B689B8B62
S2140131C09BB2013B9AB27B689A837B681800084BD6
S2140131D098477B681A6A0A23FB181B88D3181B7842
S2140131E0D9B2FB6828229954BD4604B080BDC046BA
S2140131F06530010080B584B000AF78607B681B68DD
S214013200FB60FB681B7EDBB21A00012313402BD048
S214013210FB6801221A76FB685B8B9BB21A000223BD
S214013220134004D07B682522412199541CE0FB6899
S2140132305B8B9BB21A000423134015D07B682522B2
S214013240182199547B6800229A837B689B7A002B0D
S2140132500AD07B681800134B9847FB685B68C0224E
S21401326092021A43FB685A607B689B8B9AB27B6812
S2140132705A837B6825229B5CDBB2052B0ED17B68CB
S21401328024229B5CDBB2002B04D17B681800064B22
S214013290984703E07B681800044B9847C046BD4634
S2140132A004B080BD6530010079310100893001002C
S2140132B080B584B000AFF860B960FB1D1A70FB1DC5
S2140132C01B78FA6802339B00D3180433BA681A6075
S2140132D0FB681B7EDBB25AB2FB1D1B7801219940AD
S2140132E00B005BB213435BB2DAB2FB681A76C046D8
S2140132F0BD4604B080BD000090B587B000AF7860D1
S21401330039607B681B683B613B685A687B681A6258
S2140133103B685A887B689A837B68242201219954EA
S2140133207B682522052199543B691B681B01DB0F2D
S214013330DBB21A000F23FB18511E8A411A703B6834
S2140133405B7A002B06D03B689A7A7B6811001800DE
S2140133503B4B98470F23FB181B78002B0BD03B6881
S2140133605B88012B07D13B695B688022D2021A4336
S2140133703B695A6005E03B695B68324A1A403B6923
S2140133805A603B681B7A002B45D03B681B885A0065
S2140133903B685B7A9B0313431A0080231B021A4384
S2140133A03B695A621723FC187B681800264B98471E
S2140133B0030023703B695B68224A1A403B695A60E6
S2140133C01723FB181B78002B07D11723FC187B68E3
S2140133D018001E4B9847030023701723FB181B7811
S2140133E0002B14D13B6903229A753B681B881B0A84
S2140133F09BB2782213439BB25A003B685B7A9B03CD
S2140134001343012213431A003B695A6212E0172341
S214013410FB181B780FE03B6903229A753B681B88F3
S2140134205B0001221A433B685B7A9B0313431A0035
S2140134303B695A6200231800BD4607B090BDC046DE
S214013440818D0100FFFFFBFF238D0100C58C01006C
S21401345080B582B000AF786039607B689B8B9BB289
S214013460002B01D005230CE07B6801229A727B6851
S2140134700122DA723A687B6811001800034B9847FC
S21401348003001800BD4602B080BDC046F9320100F7
S21401349080B584B000AF786039607B681B68FB60DC
S2140134A03B685B7A002B06D03B689A7A7B681100F2
S2140134B018001E4B9847FB685B681D4A1A40FB685C
S2140134C05A603B685A687B681A623B685A887B6810
S2140134D09A837B682422002199547B682522052142
S2140134E09954FB6803229A753B681B7A002B0DD012
S2140134F03B681B885A003B685B7A9B0313431A00A0
S21401350080231B021A43FB685A6209E03B681B884A
S2140135105A003B685B7A9B0313431A00FB685A62A6
S21401352000231800BD4604B080BDC046818D010051
S214013530FFFFFBFF80B582B000AF786039607B6823
S2140135409B8B9BB2002B01D005230CE07B680122EC
S2140135509A727B680122DA723A687B681100180059
S214013560034B984703001800BD4602B080BDC04615
S2140135709134010080B586B000AF0200FB1D1A70C1
S214013580FB1D1A78934B9200D3587B617B691B68AD
S2140135903B613B691B681B01DB0FDBB21A000F2383
S2140135A0FB18511E8A411A700E23FB187A69527E47
S2140135B01A707B691B7EDAB20E23FB180E2179186E
S2140135C009780A401A707B695B8B9BB2002B09D184
S2140135D07B699B8B9BB2002B04D07B6918007E4BCA
S2140135E0984770E07B695B8B9BB2002B39D07B6977
S2140135F09B8B9BB2002B34D17B6925229B5CDBB273
S214013600052B2ED17B6924229B5CDBB2002B28D1B3
S2140136103B6903221A757B6900225A837B6925223E
S214013620002199547B699B7A002B0BD07B6918008B
S2140136306A4B98473B695B68C02292021A433B6912
S2140136405A6002E03B6901221A760E23FB181B78AA
S2140136500122134037D07B69DB687A6910009847EE
S21401366031E07B695B8B9BB2002B2CD07B699B8BFB
S2140136709BB2002B27D03B695B8B9BB21A002023A1
S214013680134011D10F23FB181B7801225340DBB2E4
S214013690002B04D17B699B8B9BB2012B04D07B69E9
S2140136A02522412199540EE07B6924229B5CDBB2E2
S2140136B0002B04D17B691800494B984703E07B69CE
S2140136C01800484B98477B695B8B9BB2002B47D011
S2140136D07B699B8B9BB2002B42D17B6925229B5C2D
S2140136E0DBB2052B3CD17B6924229B5CDBB2012B30
S2140136F036D13B691B7EDBB21A000223134002D08F
S2140137003B6902221A763B6903221A757B690022FD
S2140137105A837B692522002199540E23FB181B78B6
S214013720022213400BD07B6924229B5CDBB2012B67
S21401373005D17B691B697A691000984710E00E2352
S214013740FB181B78012213400AD07B6924229B5C5C
S214013750DBB2002B04D17B69DB687A6910009847DD
S2140137607B6925229B5CDBB2052B2ED07B6925224B
S2140137709B5CDBB2002B28D03B6903221A757B6960
S21401378000225A837B6900229A837B6925229B5CEF
S214013790DBB2412B0ED07B699B7A002B0AD07B696A
S2140137A018000E4B98473B695B68E022D2021A4329
S2140137B03B695A600E23FB181B780422134004D081
S2140137C07B695B697A6910009847C046BD4606B0BA
S2140137D080BDC0469C5C0020F531010065300100CB
S2140137E0793101008930010080B500AFBFF34F8FFA
S2140137F0024B034ADA60BFF34F8FFEE700ED00E0AD
S2140138000400FA0580B500AF024B9847C046BD4696
S21401381080BDC046E937010080B586B000AF78604C
S214013820A64B1800A64B9847A64B1800A44B9847E2
S214013830A54B1800A24B9847A44B1800A04B9847DD
S214013840A34B18009E4B9847A24B18009C4B9847D9
S214013850A14B18009A4B9847A04B1800984B9847D5
S2140138609F4B1800964B98479E4B1800944B9847D1
S2140138709D4B1800924B98479C4B1800904B9847CD
S2140138809B4B18008E4B98471723FB1800221A7083
S214013890984B1800984B9847032200210120974B1C
S2140138A098470200964B1A60954B1B68002B07D170
S2140138B0944B19000320944B98470020934B98474C
S2140138C00C23FB181800924B98470C23FB181B7807
S2140138D00A2B04D00C23FB181B780D2B37D18D4BEC
S2140138E01800854B98478C4B00221A708B4B002290
S2140138F01A708B498B4B312218008B4B9847894B9A
S2140139003122002199548949854B64221800884B3D
S214013910984703003B61854B632200219954834BF2
S2140139201800754B98473B69002BECD11723FB1801
S21401393000221A707A4B3222002118007D4B9847DC
S2140139407A4B6422002118007A4B9847B5E0724BF7
S2140139501B78002B59D0714B1B78032B0CD86F4B5F
S2140139601B785A1CD1B26D4A11701A000C23FB1831
S2140139701978714B995405E0674B00221A70674B12
S21401398000221A70654B1B78012B99D96B4A6A4B3A
S214013990110018006A4B9847031E2FD06949604BE7
S2140139A01B221800684B98475D4B1800524B9847EE
S2140139B01723FB1800221A70594B322200211800D7
S2140139C05C4B98475749564B31221800564B98473F
S2140139D0534B18005D4B98470300302B06D8514BCC
S2140139E018005A4B98470300DAB200E03122172339
S2140139F0FB181A704A4B18003F4B9847464B00225B
S214013A001A70464B00221A705AE70C23FB181B78D3
S214013A100D2B00D154E70C23FB181B78082B04D080
S214013A200C23FB181B787F2B1CD10823FB18484A54
S214013A3012681A600823FB1818002F4B98471723A3
S214013A40FB181B78002B37D01723FB181A7817237F
S214013A50FB18013A1A701723FB181B78304A00210D
S214013A60D15429E00C23FB181B781B2B06D12A4BBB
S214013A7001221A70294B00221A7021E71723FB181E
S214013A801B78312B0ED81723FB181B780C22BA187B
S214013A901178234AD1541723FB181A781723FB18D9
S214013AA001321A700C23FB1800225A700C23FB18E3
S214013AB01800114B984703E7C04601E71882030038
S214013AC0C98E010008820300C88203002882030011
S214013AD0388203004882030058820300688203008C
S214013AE0888203007882030098820300A88203007C
S214013AF0B8820300C47D0300F5ED010095B4010012
S214013B00E047002050800300E1EE010081D2010071
S214013B10553B0100708003001405002015050020A8
S214013B204C050020180500203B6B03008005002093
S214013B30398F010053670300E405002074800300F9
S214013B40556A030078800300116A03000B6B0300BB
S214013B508080030080B584B000AF78607B68180071
S214013B600C4B98470300FB600DE00B4B1A680123D2
S214013B705B4219001000094B98477B681800054BFB
S214013B8098470300FB60FB680133EED0C046BD4694
S214013B9004B080BD91EE0100E04700204DC4010055
S214013BA080B500AF0A4B00221A600A4B1B68084A10
S214013BB011001800084B9847054B1B68002B03D0D3
S214013BC0064B802252051A60C046BD4680BDC046DF
S214013BD0E8050020E0470020C5BD010004ED00E037
S214013BE0B0B588B002AFF860B9607A602E4B9847DE
S214013BF003007B611323FA187B69110018002B4B15
S214013C0098471323FB181B78002B41D0284B06221C
S214013C1000211800274B9847254A7B691100180098
S214013C20254B9847224B00229B5E1800234B984752
S214013C30021C234B1A601E4B02229B5E18001F4B70
S214013C409847021C1E4B5A60194B04229B5E1800B3
S214013C501A4B9847021C1A4B9A60194B1A68194B53
S214013C60101C98470500164B5A68164B101C9847AF
S214013C700400134B9A68134B101C98470300124A12
S214013C80B968F868019300942B00104CA04705E032
S214013C900F4AB968FB6818000C4B984700231800B8
S214013CA0BD4606B0B0BDC046595A010005550100D3
S214013CB0EC0500205367030041550100954D0100B6
S214013CC0F4050020914A030084800300AD690300D7
S214013CD0A880030090B587B000AFF860B9607A603D
S214013CE01723FB181B221A701723FB181B78084A88
S214013CF008480F21084CA047064AB968FB68180017
S214013D00054B984700231800BD4607B090BDC04636
S214013D10BC80030004050020AD69030080B584B0B3
S214013D2000AFF860B9607A600220034B9847002321
S214013D301800BD4604B080BD8184010080B584B002
S214013D4000AFF860B9607A60034B9847002318000B
S214013D50BD4604B080BDC0460538010080B584B0BC
S214013D6000AFF860B9607A60054AB968FB68180068
S214013D70044B984700231800BD4604B080BDC046DA
S214013D80C4800300AD69030090B599B000AFF86038
S214013D90B9607A605F23FC18364B9847030023709E
S214013DA05F23FB181B78002B5DD01023FB18012125
S214013DB01800314B98470300BB65BB6D002B50D1F3
S214013DC01023FB181A785723FB1803210A401A7090
S214013DD01023FB181A785623FB1892081A705623DC
S214013DE0FB181B78DB08DBB29A005623FB181B78FE
S214013DF007210B40D3183B655723FB181B78022B72
S214013E0015D13B6D002B00DA0733DB109A003B6DB2
S214013E101A490B4004D5013B082149420B430133A3
S214013E20D318174AB968F868164CA04719E0572303
S214013E30FB181B78032B14D13B6D002B00DA0733DC
S214013E40DB109A003B6D0D490B4004D5013B082160
S214013E5049420B430133D3180B4AB968F868094C39
S214013E60A047012302E00023FB6000231800BD46A3
S214013E7019B090BD95620100FD6201000700008047
S214013E80DC800300AD690300F880030090B587B0BD
S214013E9000AFF860B9607A601223FB1800221A801E
S214013EA01223FB1864211800194B984703007B6105
S214013EB07B69002B06D07B69164AB968F868164CF0
S214013EC0A04707E01223FB181B88144AB968F86854
S214013ED0114CA0471223FB181800114B98470300FA
S214013EE07B617B69012B0ED1FB6818000D4B98474F
S214013EF003001A00FB689A180B4B100019001A23CE
S214013F001A000A4B984700231800BD4607B090BD1B
S214013F10E943010010810300AD6903002481030019
S214013F20B58401000B6B0300388103001D67030095
S214013F3080B58AB000AFF860B9607A601023FB18CC
S214013F4000221A701023FB1801225A701023FB1846
S214013F5002229A701023FB180322DA701023FB1832
S214013F6004221A711023FB1805225A711023FB181C
S214013F7006229A711023FB180722DA711023FB1808
S214013F8008221A721023FB1809225A721023FB18F2
S214013F90FF229A721023FB181800094B984703005A
S214013FA07B627B6A012B05D1064AB968FB6818005B
S214013FB0054B984700231800BD460AB080BDC04691
S214013FC0E184010054810300AD69030080B586B029
S214013FD000AFF860B9607A601023FB1806221A70E9
S214013FE01023FB181800094B984703007B617B6977
S214013FF0012B05D1064AB968FB681800054B98479E
S21401400000231800BD4606B080BDC0460D850100E0
S21401401070810300AD69030080B584B000AFF8601D
S214014020B9607A600220034B984700231800BD460A
S21401403004B080BD2967010080B584B000AFF86088
S214014040B9607A600320034B984700231800BD46E9
S21401405004B080BD2967010090B5ABB000AFF86031
S214014060B9607A60344B9847344B9847344B98473D
S214014070C0460020334B984703001A002023134004
S214014080202BF6D1304B98470300A422BA181360B0
S214014090A423FB181B689022BA18110018002B4B9A
S2140140A098479023FB181B68294A5021781840210D
S2140140B0284CA0475023FB181800274B98479023FD
S2140140C0FB181B689AB29823FB181A809023FB18DA
S2140140D05B689AB29823FB185A809823FB1818003D
S2140140E01E4B98470300A022BA181360A023FB18A2
S2140140F01B68012B05D11A4AB968FB681800154BD5
S2140141009847184B98479F23FB1864221A709F23E1
S214014110FB181A7814491023FB181800134B9847FC
S214014120134B1022B81808220021124CA047002376
S2140141301800BD462BB090BDF1480100595D010045
S214014140F55D0100415C0100B15E0100D55E010034
S21401415088810300AD690300F5ED01003985010092
S214014160AC8103007D280100C4810300116A0300AD
S214014170000000202127010090B58FB000AFF86045
S214014180B9607A601823FB1800221A701823FB18EE
S21401419000225A701823FB1800221A701823FB18E5
S2140141A000225A701C23FB1800221A701C23FB18CD
S2140141B01422BA189A601C23FB180122DA811C23E8
S2140141C0FB181822BA185A601C23FB1801229A8180
S2140141D02C4B18002C4B984700237B6346E07B6BE7
S2140141E02A4A2B480F212B4CA047294B1800264B57
S2140141F0984700233B632FE07B6BDAB23B6BDBB265
S214014200D318DBB2DB18DAB21C23FB181A701C2396
S214014210FB1864211800204B98470300FB62FB6AD9
S214014220002B0CD11C23FB181B78184A18480F21A9
S214014230184CA047164B1800134B984709E0144B2F
S214014240164A1188198092789A70114B18000E4BF5
S21401425098473B6B01333B633B6B0F2BCCDD104B1D
S2140142601800094B98477B6B10337B637B6B7F2B66
S214014270B5DD0B4B1800044B984700231800BD46CC
S2140142800FB090BDC8810300F5ED0100FC8103006D
S21401429004050020AD6903001D4B010004820300E4
S2140142A07080030080B588B000AF7860334B18008B
S2140142B0334B9847002214210220324B98470200C4
S2140142C0314B1A600022032102202E4B9847020030
S2140142D02E4B1A602C4B1B68002B03D02B4B1B68F4
S2140142E0002B03D12A4B1800254B9847294B002257
S2140142F01A70284B1B78012B1DD0022B35D0002BB2
S2140143002FD1214B1B680C22B91800221800224B12
S21401431098470300012B2AD1204B19000120204B7E
S21401432098470C23FB1818001E4B9847194B01227F
S2140143301A70C0461BE01C4B9847031E19D01B4B36
S2140143409847030018001A4B98470300012B04D026
S214014350184B19000120124B98470E4B00221A7079
S21401436007E00C4B00221A7004E0C04602E0C0468B
S21401437000E0C0462820104B9847BAE7D8820300D1
S214014380F5ED010095B401000006002004060020AA
S214014390F8820300E4470020F5BF010024830300F0
S2140143A0E1EE0100D16801000D69010021690100FB
S2140143B0E18401004C830300A1D1010090B585B0D2
S2140143C000AF7860064B1868796800230A22054C0E
S2140143D0A0470300FB60FB681800BD4605B090BD12
S2140143E0000600203DB7010080B584B000AF7860BC
S2140143F039600023FB6096235B001800254B984725
S2140144000300FB60FB68002B39D1234B55221A7041
S2140144102149224B01221800214B9847031E30D117
S214014420204B1B683A68110018001F4B9847030081
S214014430012B03D003235B42FB6023E01B49174B90
S214014440022218001A4B9847164B1B683A6811004F
S2140144501800154B98470300012B0CD1134B1B7802
S2140144609BB21B029AB2114B5B789BB2D3189AB2DD
S2140144707B681A8006E003235B42FB6002E0C046CD
S21401448000E0C0460B4B9847FB681800BD4604B0D9
S21401449080BDC046F1440100EA470020F4470020F1
S2140144A0CD9F0200EC4700204DC40100E8470020E4
S2140144B015A00200B944010090B583B000AF0023F7
S2140144C07B60094B1868002300220021074CA04797
S2140144D00300012B02D014235B427B607B6818002B
S2140144E0BD4603B090BDC046F04700203DB7010071
S2140144F080B584B000AF78600023FB60084B1B6872
S2140145007A6811001800074B98470300012B02D068
S2140145101D235B42FB60FB681800BD4604B080BDEE
S214014520F04700204DC4010080B582B000AF020004
S214014530FB1D1A70064BFA1D127811001F220A4045
S214014540012191400A001A60C046BD4602B080BDF6
S21401455000E100E080B584B000AF78607B681B683E
S214014560FB60FB68DB69072213405A1E9341DBB2EE
S2140145701800BD4604B080BD80B582B000AF78603B
S214014580C0467B681800044B9847031EF9D1C04605
S214014590BD4602B080BDC0465545010080B582B01B
S2140145A000AF78607B6864221A607B681B4A5A6099
S2140145B07B6800229A607B6800221A737B6800225F
S2140145C01A767B68802292031A617B680122524226
S2140145D0DA827B68012252429A827B680022DA6183
S2140145E07B6800221A627B682422002199547B682A
S2140145F000229A627B682C22002199547B682D2226
S214014600002199547B682E22002199547B68D72279
S2140146101A86C046BD4602B080BDC046480D0000A1
S21401462080B584B000AF78607B681B68BB600023F0
S214014630FB607B681800144B9847BB681B68022216
S2140146401A43BB681A607B681B6818000F4B9847B3
S214014650030018000E4B98470CE0FB680133FB6023
S2140146607B68DB881A00FB689A4203D8BB68102275
S2140146705A8306E0BB685B8B9BB21A00102313407B
S214014680EBD0BD4604B080BD794501006D870200C0
S2140146902945010080B582B000AF78600A00FB1C96
S2140146A01A707B685B7EDBB25AB2FB1C1B78012159
S2140146B099400B005BB213435BB2DAB27B685A7661
S2140146C0C046BD4602B080BD90B591B000AF002394
S2140146D0FB633A23FB1800221A703B1D1800214B7E
S2140146E098473B1D204ADA613B1D204A1A623B1D52
S2140146F0FA229200DA823B23FB1803221A701EE08C
S2140147003A23FC183A1D1A491A4B18001A4B9847B7
S214014710030023703A23FB181B78002B04D13A239D
S214014720FB181B78FB630FE0124B1800134B9847DE
S2140147303B23FB181A783B23FB18013A1A703B23DC
S214014740FB181B78002BDBD1FB6B002B04D1094B2C
S21401475018000B4B984700E0C046FB6B1800BD469F
S21401476011B090BD9D45010002000800020009003D
S214014770000800422C480020298B01005D8C0100B6
S2140147802146010080B584B000AF78600E4B002250
S2140147901A700D4B01229A600023FB600B4B1B68BD
S2140147A00C22BA1811001800094B9847094B002231
S2140147B01A70FB68002B03D0074B802252051A6043
S2140147C0C046BD4604B080BD0C06002054480020FB
S2140147D0C5BD01000806002004ED00E080B584B0E8
S2140147E000AF78600E4B00221A700D4B01229A60C2
S2140147F00023FB600B4B1B680C22BA181100180033
S214014800094B9847094B00221A70FB68002B03D00E
S214014810074B802252051A60C046BD4604B080BDD3
S2140148200C06002054480020C5BD010008060020E3
S21401483004ED00E080B584B000AF78600E4B002236
S2140148401A700D4B01225A600023FB600B4B1B684C
S2140148500C22BA1811001800094B9847094B01227F
S2140148601A70FB68002B03D0074B802252051A6092
S214014870C046BD4604B080BD0C060020544800204A
S214014880C5BD01000806002004ED00E080B500AFBC
S2140148901149124B00221800114B98470F4B00216B
S2140148A01800104B984710490C4B012218000C4B6E
S2140148B098470A4B012118000A4B98470B49074BAA
S2140148C002221800064B9847044B02211800054B9C
S2140148D09847C046BD4680BD854701002C4800204C
S2140148E0B132010095460100DD470100354801005F
S2140148F080B582B000AF00237B60144B984703005D
S2140149007B607B68002B1AD1114B98470120114B15
S21401491098470200104B1A600322002101200F4B1A
S214014920984702000E4B1A600B4B1B68002B03D0F6
S2140149300B4B1B68002B03D106237B6000E0C046AF
S2140149407B681800BD4602B080BDC046C94601005E
S2140149508D480100FDB601002848002095B40100ED
S2140149605448002090B585B000AF78600023FB6006
S2140149707B68002B03D07B685B68002B03D1082380
S2140149805B42FB601FE07B681B789AB2104B1A8073
S2140149907B685A680E4B5A607B68DA890C4B5A80E2
S2140149A00B23FC180A4A0B4B110018000A4B9847B8
S2140149B0030023700B23FB181B78002B03D0062360
S2140149C05B42FB60C046FB681800BD4605B090BD63
S2140149D0584800202C4800203535010090B585B098
S2140149E000AF78600023FB607B68002B03D07B68F8
S2140149F05B68002B03D108235B42FB601FE07B68EA
S214014A001B789AB2104B1A807B689A680E4B5A60D4
S214014A107B689A890C4B5A800B23FC180A4A0B4B6D
S214014A20110018000A4B9847030023700B23FB184C
S214014A301B78002B03D006235B42FB60C046FB6855
S214014A401800BD4605B090BD584800202C480020EF
S214014A505134010090B583B000AF00237B60094B51
S214014A601868002300220021074CA0470300012BF1
S214014A7002D014235B427B607B681800BD4603B0FE
S214014A8090BDC046284800203DB7010080B584B0DF
S214014A9000AF78600023FB60084B1B687A68110042
S214014AA01800074B98470300012B02D01D235B42D9
S214014AB0FB60FB681800BD4604B080BD2848002096
S214014AC04DC4010080B584B000AF78600023FB6060
S214014AD0044B1A687B681A60FB681800BD4604B070
S214014AE080BDC0465448002080B500AF024B1B78FD
S214014AF01800BD4680BDC0460806002080B582B0BD
S214014B0000AF0200FB1D1A70034BFA1D12781A70D3
S214014B10C046BD4602B080BD0806002080B584B000
S214014B2000AF786039600023FB600023BB609623EA
S214014B305B001800284B98470300FB60FB68002BBE
S214014B4038D10823FB181800244B98470300FB6054
S214014B50FB68002B30D17B681800214B9847030077
S214014B60FB60FB68002B2AD1BB683A68110018006D
S214014B701C4B98470300012B11D11B4B9847031E72
S214014B8011D00020194B9847FB68002B03D0212336
S214014B905B42FB6014E003235B42FB6010E00323EF
S214014BA05B42FB600CE0124B98470200FB68134324
S214014BB0FB6002E0C04600E0C046FB6807E0C04676
S214014BC00B4B98470200FB681343FB60FB68180019
S214014BD0BD4604B080BDC0468D4A0100C54A0100ED
S214014BE0654901004DC40100E94A0100FD4A010082
S214014BF0554A010080B586B000AFF860B9607A60AA
S214014C0000237B6100233B6196235B001800354B34
S214014C10984703007B617B69002B55D11023FB1855
S214014C201800314B984703007B617B69002B4DD1FF
S214014C30FB6818002D4B984703007B617B69002BAE
S214014C4047D13B697A6811001800294B9847030041
S214014C50012B18D1274B9847031E06D00020264B60
S214014C60984703235B427B6134E0BB681800234B03
S214014C709847FB681800224B984703007B617B69C5
S214014C80002B04D026E003235B427B6122E03B69D4
S214014C907A6811001800164B98470300012B0AD1B9
S214014CA0144B9847031E0AD00020134B9847032342
S214014CB05B427B610EE003235B427B610AE0114BA2
S214014CC0984703007B6102E0C04600E0C0467B696E
S214014CD003E0C0460B4B98477B691800BD4606B0FB
S214014CE080BDC0468D4A0100C54A010065490100E4
S214014CF04DC40100E94A0100FD4A0100A1D10100AD
S214014D00DD490100554A0100B0B586B000AFF86034
S214014D1008007A6019000B23FB18021C1A7008237E
S214014D20FB180A1C1A80FB685C68FB6898680823F5
S214014D30FB181D887A680B23FB1819782B00A047EF
S214014D4003007B617B691800BD4606B0B0BDB0B5F7
S214014D5086B000AFF86008007A6019000B23FB18D4
S214014D60021C1A700823FB180A1C1A80FB681C68B0
S214014D70FB6898680823FB181D887A680B23FB18C4
S214014D8019782B00A04703007B617B691800BD469C
S214014D9006B0B0BD80B582B000AF0200BB1D1A8060
S214014DA0BB1D00229A5E064B10009847021C054B5D
S214014DB00549101C9847031C181CBD4602B080BD4F
S214014DC0D14A03001945030023DB793D90B585B030
S214014DD000AF78600A00FB1C1A700823FA1878687E
S214014DE001231021124CA0470300FB60FB68002B37
S214014DF019D1FB1C1B7803221340DAB20823FB18D7
S214014E0003210A4090001A780C218A43111C021CC7
S214014E100A431A700823FA18786801231021054CF2
S214014E20A0470300FB60FB681800BD4605B090BDB7
S214014E30094D01004F4D010090B587B000AF786075
S214014E400A00FB1C1A701723FB18FA1C12781A703A
S214014E500C23FA187B6811001800A44B984703002E
S214014E603B613B69002B00D013E10C23FB181B7838
S214014E70DB07DB0FDAB20C23FB181B789B07DB0F73
S214014E80DBB21343DAB20C23FB181B785B07DB0F8C
S214014E90DBB21343DAB20C23FB181B781B07DB0FBC
S214014EA0DBB21343DAB20C23FB181B78DB06DB0FED
S214014EB0DBB21343DAB20C23FB181B789B06DB0F1D
S214014EC0DBB21343DAB20C23FB181B785B06DB0F4D
S214014ED0DBB21343DAB20C23FB181B781B06DB0F7D
S214014EE0DBB21343DAB20C23FB185B78DB07DB0F6C
S214014EF0DBB21343DAB20C23FB185B789B07DB0F9C
S214014F00DBB21343DAB20C23FB185B785B07DB0FCB
S214014F10DBB21343DAB20C23FB185B781B07DB0FFB
S214014F20DBB21343DAB20C23FB185B78DB06DB0F2C
S214014F30DBB21343DAB20C23FB185B789B06DB0F5C
S214014F40DBB21343DAB20C23FB185B785B06DB0F8C
S214014F50DBB21343DAB20C23FB185B781B06DB0FBC
S214014F60DBB21343DBB2012B00D092E00B23FA181D
S214014F707B68110018005E4B984703003B613B6954
S214014F80002B00D085E00B23FB181B78012B17D0D4
S214014F9002DC002B05D076E0022B29D0032B48D06B
S214014FA071E0FB1C1B78002B04D11723FB18012290
S214014FB01A706EE01723FB18FA1C12781A7068E054
S214014FC0FB1C1B78002B04D11723FB1802221A7036
S214014FD05FE0FB1C1B78012B04D11723FB18022270
S214014FE01A7056E01723FB18FA1C12781A7050E054
S214014FF0FB1C1B78002B04D11723FB1803221A7005
S21401500047E0FB1C1B78012B04D11723FB18032256
S2140150101A703EE0FB1C1B78022B04D11723FB18E9
S21401502003221A7035E01723FB18FA1C12781A703F
S2140150302FE0FB1C1B78002B04D11723FB1804223E
S2140150401A7026E0FB1C1B78012B04D11723FB18D2
S21401505004221A701DE0FB1C1B78022B04D11723B7
S214015060FB1804221A7014E0FB1C1B78032B04D1D6
S2140150701723FB1804221A700BE01723FB18FA1CDF
S21401508012781A7005E01723FB18FA1C12781A70AA
S214015090C0463B69002B08D10823FA18786801231B
S2140150A01021144CA04703003B613B69002B18D12B
S2140150B01723FB181B780F221340DAB20823FB18BC
S2140150C010011A780F210A40111C021C0A431A709B
S2140150D00823FA18786801231021074CA04703001B
S2140150E03B613B691800BD4607B090BD15590100EC
S2140150F069590100094D01004F4D010090B585B079
S21401510000AF78600A00FB1C1A700823FA1878684A
S21401511001231121124CA0470300FB60FB68002B02
S21401512019D1FB1C1B7807221340DAB20823FB189F
S21401513007210A4090181A780E218A43111C021C76
S2140151400A431A700823FA18786801231121054CBE
S214015150A0470300FB60FB681800BD4605B090BD84
S214015160094D01004F4D010090B587B000AF786042
S2140151700A00FB1C1A701723FB18FA1C12781A7007
S2140151800C23FA187B6811001800A44B98470300FB
S2140151903B613B69002B00D013E10C23FB181B7805
S2140151A0DB07DB0FDAB20C23FB181B789B07DB0F40
S2140151B0DBB21343DAB20C23FB181B785B07DB0F59
S2140151C0DBB21343DAB20C23FB181B781B07DB0F89
S2140151D0DBB21343DAB20C23FB181B78DB06DB0FBA
S2140151E0DBB21343DAB20C23FB181B789B06DB0FEA
S2140151F0DBB21343DAB20C23FB181B785B06DB0F1A
S214015200DBB21343DAB20C23FB181B781B06DB0F49
S214015210DBB21343DAB20C23FB185B78DB07DB0F38
S214015220DBB21343DAB20C23FB185B789B07DB0F68
S214015230DBB21343DAB20C23FB185B785B07DB0F98
S214015240DBB21343DAB20C23FB185B781B07DB0FC8
S214015250DBB21343DAB20C23FB185B78DB06DB0FF9
S214015260DBB21343DAB20C23FB185B789B06DB0F29
S214015270DBB21343DAB20C23FB185B785B06DB0F59
S214015280DBB21343DAB20C23FB185B781B06DB0F89
S214015290DBB21343DBB2012B00D092E00B23FA18EA
S2140152A07B68110018005E4B984703003B613B6921
S2140152B0002B00D085E00B23FB181B78012B17D0A1
S2140152C002DC002B05D076E0022B29D0032B48D038
S2140152D071E0FB1C1B78002B04D11723FB1801225D
S2140152E01A706EE01723FB18FA1C12781A7068E021
S2140152F0FB1C1B78002B04D11723FB1802221A7003
S2140153005FE0FB1C1B78012B04D11723FB1802223C
S2140153101A7056E01723FB18FA1C12781A7050E020
S214015320FB1C1B78002B04D11723FB1803221A70D1
S21401533047E0FB1C1B78012B04D11723FB18032223
S2140153401A703EE0FB1C1B78022B04D11723FB18B6
S21401535003221A7035E01723FB18FA1C12781A700C
S2140153602FE0FB1C1B78002B04D11723FB1804220B
S2140153701A7026E0FB1C1B78012B04D11723FB189F
S21401538004221A701DE0FB1C1B78022B04D1172384
S214015390FB1804221A7014E0FB1C1B78032B04D1A3
S2140153A01723FB1804221A700BE01723FB18FA1CAC
S2140153B012781A7005E01723FB18FA1C12781A7077
S2140153C0C0463B69002B08D10823FA1878680123E8
S2140153D01121144CA04703003B613B69002B18D1F7
S2140153E01723FB181B780F221340DAB20823FB1889
S2140153F010011A780F210A40111C021C0A431A7068
S2140154000823FA18786801231121074CA0470300E6
S2140154103B613B691800BD4607B090BD15590100B8
S21401542069590100094D01004F4D010090B585B045
S21401543000AF78600A00FB1C1A700823FA18786817
S21401544001231221124CA0470300FB60FB68002BCE
S21401545019D1FB1C1B7801221340DAB20823FB1872
S21401546001210A4090011A7840218A43111C021C2E
S2140154700A431A700823FA18786801231221054C8A
S214015480A0470300FB60FB681800BD4605B090BD51
S214015490094D01004F4D010090B585B000AF786011
S2140154A00A00FB1C1A700823FA18786801231521D4
S2140154B0124CA0470300FB60FB68002B19D1FB1CB4
S2140154C01B7801221340DAB20823FB1801210A4097
S2140154D0D0001A7808218A43111C021C0A431A704C
S2140154E00823FA18786801231521054CA047030004
S2140154F0FB60FB681800BD4605B090BD094D010074
S2140155004F4D010090B585B000AF78603960082333
S214015510FA18786801231E21084CA0470300FB6097
S2140155200823FB181B78DB07DB0FDBB21A003B688E
S2140155301A70FB681800BD4605B090BD094D010004
S21401554090B587B000AF786039600C23FA18786898
S21401555006232821264CA04703007B610C23FB1859
S2140155605B781AB23B681A803B6800229B5E9BB24E
S2140155701B029AB20C23FB181B789BB2D3189BB262
S2140155801AB23B681A803B6802330C22BA18D278EA
S21401559012B21A803B6802333A6802320021525E28
S2140155A092B2120291B20C22BA18927892B28A186A
S2140155B092B212B21A803B6804330C22BA1852799E
S2140155C012B21A803B6804333A6804320021525EF4
S2140155D092B2120291B20C22BA18127992B28A18B9
S2140155E092B212B21A807B691800BD4607B090BD10
S2140155F0094D010090B585B000AF78600A00FB1C2C
S2140156001A700823FA18786801230121114CA04763
S2140156100300FB60FB68002B17D1FB1C1B780322E1
S2140156201340DAB20823FB1890011A783F210A408A
S214015630111C021C0A431A700823FA187868012301
S2140156400121054CA0470300FB60FB681800BD461E
S21401565005B090BD094D01004F4D010090B585B0D4
S21401566000AF786039603A68786801230F21044CEE
S214015670A0470300FB60FB681800BD4605B090BD5F
S214015680094D010090B585B000AF78600A00FB1C9B
S2140156901A700823FA18786801231221124CA047C1
S2140156A00300FB60FB68002B19D1FB1C1B78012251
S2140156B01340DAB20823FB1801210A4010001A78B9
S2140156C001218A43111C021C0A431A700823FA1886
S2140156D0786801231221054CA0470300FB60FB6894
S2140156E01800BD4605B090BD094D01004F4D0100A3
S2140156F090B585B000AF786039600823FA187868ED
S21401570001231221084CA0470300FB600823FB1865
S2140157101B78DB07DB0FDBB21A003B681A70FB68ED
S2140157201800BD4605B090BD094D010090B585B085
S21401573000AF78600A00FB1C1A700823FA18786814
S21401574001231021124CA0470300FB60FB68002BCD
S21401575019D1FB1C1B7801221340DAB20823FB186F
S21401576001210A4090181A7802218A43111C021C52
S2140157700A431A700823FA18786801231021054C89
S214015780A0470300FB60FB681800BD4605B090BD4E
S214015790094D01004F4D010090B585B000AF78600E
S2140157A00A00FB1C1A700823FA18786801231721CF
S2140157B0254CA0470300FB60FB68002B3FD1FB1C78
S2140157C01B781B09DBB21A1C01231340DAB208232B
S2140157D0FB1801210A4090001A7804218A43111C03
S2140157E0021C0A431A70FB1C1B785B09DBB21A1CED
S2140157F001231340DAB20823FB1801210A401001E5
S2140158001A7810218A43111C021C0A431A70FB1CC9
S2140158101B7807221340DAB20823FB1850011A78C6
S2140158201F210A40111C021C0A431A700823FA1889
S214015830786801231721054CA0470300FB60FB682D
S2140158401800BD4605B090BD094D01004F4D010041
S21401585090B587B000AF78600A00FB1C1A700C2365
S214015860FA18786801231821284CA04703007B61A9
S2140158707B69002B1CD1FB1C1B78DB09DBB21A1CD5
S21401588001231340DAB20C23FB1801210A409018B9
S2140158901A7802218A43111C021C0A431A700C232F
S2140158A0FA18786801231821194CA04703007B6178
S2140158B07B69002B08D11023FA187868012362212E
S2140158C0124CA04703007B617B69002B19D1FB1C9E
S2140158D01B7803221340DAB21023FB1803210A4077
S2140158E0D0001A7818218A43111C021C0A431A7028
S2140158F01023FA18786801236221054CA04703009B
S2140159007B617B691800BD4607B090BD094D01005B
S2140159104F4D010090B585B000AF786039607B6867
S214015920022118000E4B98470300FB60FB68002B12
S21401593007D13A687868022346210A4CA04703003B
S214015940FB60FB68002B06D17B6800211800044B26
S21401595098470300FB60FB681800BD4605B090BD84
S214015960F5550100094D010090B585B000AF78608E
S21401597039607B6802211800214B98470300FB60C1
S214015980FB68002B08D10823FA18786801235F21E9
S2140159901C4CA0470300FB60FB68002B2BD108239F
S2140159A0FB181B78DB069B0FDBB2012B0CD002DC4D
S2140159B0002B05D014E0022B0AD0032B0CD00FE0ED
S2140159C03B6800221A700FE03B6801221A700BE058
S2140159D03B6802221A7007E03B6803221A7003E054
S2140159E03B6800221A70C0467B6800211800044BF1
S2140159F098470300FB60FB681800BD4605B090BDE4
S214015A00F5550100094D010080B584B000AFF8607E
S214015A1008007A6019000B23FB18021C1A70082371
S214015A20FB180A1C1A8000231800BD4604B080BD6E
S214015A3080B584B000AFF86008007A6019000B23C7
S214015A40FB18021C1A700823FB180A1C1A80002374
S214015A501800BD4604B080BD80B500AF014B1800EC
S214015A60BD4680BD2000002080B582B000AF002377
S214015A707B60234B01211800224B984703007B6073
S214015A80FA1C1F4B110018001F4B984702007B6839
S214015A9013437B60FB1C1B78002BF1D1184B802134
S214015AA018001A4B9847164B01211800184B9847B7
S214015AB0134B00211800174B9847114B0121180072
S214015AC0154B98470E4B01211800144B98470C4B69
S214015AD000211800124B9847094B06211800114B5C
S214015AE09847074B042118000F4B9847044B012198
S214015AF018000E4B98477B681800BD4602B080BD63
S214015B002000002085560100F15601005158010081
S214015B102D54010099540100394E010069510100CC
S214015B20CD4D0100FD500100995701002D57010090
S214015B3080B596B000AFF86008007A6019000B23B4
S214015B40FB18021C1A700823FB180A1C1A80002373
S214015B503B65194B0B22BA1812781A7000237B6525
S214015B600AE07B6D01337A6D79688A181178124ADA
S214015B70D1547B6D01337B650823FB181A887B6D36
S214015B809A42EEDC0D4B2A221A700C4B0A4A5A60D6
S214015B900823FB181B8801339AB2084BDA81074B9E
S214015BA064211800064B984703003B653B6D1800BF
S214015BB0BD4616B080BDC04668480020A8480020F3
S214015BC01D4B010080B596B000AFF86008007A6002
S214015BD019000B23FB18021C1A700823FB180A1C59
S214015BE01A8000237B65134B2A221A70114B082258
S214015BF0BA1812889A810F4B7A689A600E4B0B225C
S214015C00BA1812781A700C4B00225A70094B0A4ABD
S214015C105A60084B0122DA81064B642205211800DE
S214015C20064B984703007B657B6D1800BD4616B092
S214015C3080BDC046A848002068480020F54B0100FA
S214015C4090B585B000AF0200FB1D1A70074B1868AF
S214015C50074AFB1D19780123064CA0470300FB6089
S214015C60034B1B781800BD4605B090BD6448002064
S214015C7020060020C55B010090B585B000AF02008C
S214015C80FB1D1A70BB1D0A1C1A70084B1868BA1D3A
S214015C90FB1D19780123064CA0470300FB60FB6837
S214015CA0DBB21800BD4605B090BDC0466448002072
S214015CB0315B010090B583B000AFFB1D00221A7066
S214015CC0FC1D0220214B984703002370FB1DFA1D83
S214015CD0127807218A431A70FB1DFA1D12781A7072
S214015CE0FB1D1B7819000220194B9847FB1DFA1D56
S214015CF0127804210A431A70FB1D1B781900022032
S214015D00134B98473220134B9847FC1D02200F4B2C
S214015D10984703002370FB1D1B780422134000D014
S214015D20F0E7C046FB1DFA1D127808210A401A70DA
S214015D30FB1D1B780822134000D0C1E7C046012096
S214015D40044B9847C046BD4603B090BD415C010078
S214015D50795C0100AD11020080B582B000AFFB1D79
S214015D6000221A70FB1D01221A70FB1D1B781900F8
S214015D7000201D4B984701201C4B9847FB1D022213
S214015D801A70FB1D1B7819000020174B984732200C
S214015D90164B9847FB1D27221A70FB1D1B7819000E
S214015DA00120114B98470120104B9847FB1D862276
S214015DB01A70FB1D1B78190000200B4B9847012019
S214015DC00A4B9847FB1D30221A70FB1D1B781900E1
S214015DD01520054B98470120044B9847044B9847DC
S214015DE0C046BD4602B080BD795C0100AD1102001F
S214015DF0B55C010090B583B000AFFB1D00221A70A0
S214015E00FC1D0020094B984703002370FB1DFA1D5B
S214015E10127810210A431A70FB1D1B781900002006
S214015E20034B9847C046BD4603B090BD415C010098
S214015E30795C010080B588B000AFBA607B600F2343
S214015E40FB18021C1A700E23FB180A1C1A7002207B
S214015E50144B98470300FB61FB69DBB21900022073
S214015E60114B98470120114B984712200D4B98472C
S214015E700300FB6113200B4B98470300BB61142002
S214015E80084B984703007B61FB691A04BB691B0238
S214015E901A437B6913433B613B691800BD4608B052
S214015EA080BDC046415C0100795C0100AD11020075
S214015EB090B583B000AF3A00032312212A20044C88
S214015EC0A04703007B607B681800BD4603B090BD09
S214015ED0355E0100B0B594B002AF78603960062037
S214015EE0914B984703001A002C23FB181A700720C1
S214015EF08D4B984703001A002C23FB185A70082074
S214015F00894B984703001A002C23FB189A70092026
S214015F10854B984703001A002C23FB18DA700320E0
S214015F20814B984703001A002823FB181A70042097
S214015F307D4B984703001A002823FB185A7005204A
S214015F40794B984703001A002823FB189A70002300
S214015F50FB6302E0FB6B0133FB63FB6B032BF9DD99
S214015F601F23BB632CE0BB6B002B00DA0733DB106F
S214015F705B4203332C22BA18D35C1900BB6B6B4A05
S214015F80134004D5013B0822524213430133194101
S214015F900B0001221340BA6B173A65494A430221A6
S214015FA091400A005A43634B10009847021C624B0B
S214015FB0111C786C9847031C7B64BB6B013BBB636D
S214015FC0BB6B002BCFDA16237B632CE07B6B002B9D
S214015FD000DA0733DB105B4202332822BA18D35C9F
S214015FE019007B6B514A134004D5013B08225242EB
S214015FF01343013319410B00012213407A6B173A00
S2140160004B494A43022191400A005A43494B10002A
S2140160109847021C484B111C386C9847031C3B647C
S2140160207B6B013B7B637B6B002BCFDA2823FB1852
S2140160301B78DB09DBB21A0001239B1A01221A40E6
S2140160403C4B10009847021C3C4B111C386C98477F
S214016050031C3B643A4B786C984703000C00394AA2
S21401606008217818009301942021374B9847374B25
S2140160703749786C9847031C1C1C2E4B7868984748
S214016080051C324B3249386C9847031C1A1C314B9D
S214016090111C281C9847031C1A1C284B111C201C79
S2140160A09847031C3B632C4B386B984703009AB206
S2140160B03B681A803B689C1C3B681B881A001D4B7A
S2140160C010009847021C234B111C386B9847031C81
S2140160D01A1C1A4B1E49101C9847031C1A1C1F4BEE
S2140160E0101C984703009BB223803B681B881C4A00
S2140160F0082178182021144CA0470823FB18180003
S214016100184B98473B6802331B88174A08217818B2
S21401611020210D4CA0470823FB181800114B984767
S214016120C046BD4612B0B0BD415C0100070000800C
S21401613010270000D14A0300653F030019450300FC
S214016140FD6303007C830300AD69030089420300FD
S21401615000401C4659470300914A0300353F03009F
S21401616088830300F5ED01009883030080B582B0B3
S21401617000AF384B2E221A70364B374A5A60354BD1
S2140161800222DA81334B3A009A60324B01229A811D
S214016190304B642200211800304B984703007B6087
S2140161A07B68002B04D02E4B18002E4B98470CE032
S2140161B03B001B78552B04D02B4B1800294B9847D6
S2140161C003E02A4B1800274B9847224B284A5A606F
S2140161D0204B0322DA811F4B64211800254B984778
S2140161E003007B607B68002B03D0234B18001D4BFC
S2140161F09847184B214A5A60164B0322DA81154BF1
S214016200642118001B4B984703007B607B68002BBA
S21401621003D01B4B1800134B98470E4B194A5A6074
S2140162200C4B0422DA810B4B64211800114B984762
S21401623003007B607B68002B03D0134B1800094BCF
S2140162409847124B9847124B98477B681800BD46F3
S21401625002B080BDB8480020AC830300F54B0100B6
S214016260C4830300F5ED0100E4830300F08303001B
S214016270B08303001D4B010004840300B4830300B4
S21401628024840300B88303005084030041660100A0
S2140162905165010080B582B000AFFB1C00221A7068
S2140162A0114B2E221A70104B104A5A600E4B0222C6
S2140162B0DA810D4BFA1C9A600B4B01229A810A4B2C
S2140162C06422002118000A4B984703007B607B6814
S2140162D0002B03D0074B1800074B9847FB1C1B7875
S2140162E01800BD4602B080BDB8480020C083030038
S2140162F0F54B010084840300F5ED010080B584B000
S21401630000AF78600A00FB1C1A70FB1C1B78002B80
S21401631001D1002326E00823FB18144A12881A80AC
S214016320134B2E221A70124B0822BA185A60104BC1
S2140163300222DA810E4B7A689A60FB1C1B789AB2AD
S2140163400B4B9A810A4B642200211800094B98478F
S2140163500300FB60FB68002B03D0074B1800074BBC
S2140163609847FB681800BD4604B080BDA8840300AA
S214016370B8480020F54B010084840300F5ED0100C8
S21401638090B587B000AF040008001100FB1D221C69
S2140163901A70BB1D021C1A707B1D0A1C1A70102372
S2140163A0FB187A1D12780121100008401A78012185
S2140163B08A43111C021C0A431A70BB1D1B7801225A
S2140163C09A401300DBB21A1C0F231340DAB21023D3
S2140163D0FB180F210A4090181A781E218A43111CB7
S2140163E0021C0A431A700C23FB1810221A700C2385
S2140163F0FB1801225A700C23FB18FA1D12789A70AA
S2140164001023FB181A780C23FB18DA700C4B2E227B
S2140164101A700B4B0C22BA185A60094B0422DA8107
S214016420074B00229A81064B64211800054B9847BA
S21401643003007B617B691800BD4607B090BDC0466E
S214016440B84800201D4B0100B0B586B000AF05006E
S2140164500C0010001900FB1D2A1C1A70BB1D221C03
S2140164601A707B1D021C1A703B1D0A1C1A70082329
S214016470FB180E221A700823FB1804225A700823F0
S214016480FB1800229A700823FB180022DA700823F2
S214016490FB187A1D12781A710823FB18BA1D127898
S2140164A05A710823FB183A1D12789A71FB1D1B7846
S2140164B09BB21622BA18191C0B1CDB185B1813802A
S2140164C01623FB181B881B0A9BB2DAB20823FB189B
S2140164D09A701623FB181B88DAB20823FB18DA70A9
S2140164E0094B0822BA185A60074B0722DA81064B75
S2140164F064211800054B984703003B613B6918006F
S214016500BD4606B0B0BDC046B84800201D4B0100D0
S21401651080B582B000AF3B000A4A12881A800A4B47
S2140165203A005A60084B0222DA81074B64211800B0
S214016530064B984703007B607B681800BD4602B097
S21401654080BDC046AC840300B84800201D4B010046
S21401655080B582B000AF334B2E221A70314B324ACF
S2140165605A60304B0322DA812E4B00229A812D4B42
S214016570642118002D4B984703003B603B68002BB5
S21401658003D02B4B18002B4B984700237B6041E030
S2140165907B68002B00DA03339B10DBB2DB00DAB238
S2140165A07B6825490B4004D5013B042149420B4336
S2140165B00133DBB2D318DBB20122032118001F4BD3
S2140165C0984703003B607B68002B00DA03339B107F
S2140165D0DBB2DB00DAB27B6817490B4004D5013B1E
S2140165E0042149420B430133DBB2D318DBB201224B
S2140165F002211800114B984702003B6813433B6089
S2140166003B68002B03D00A4B18000A4B98477B685F
S21401661001337B607B680F2BBADDC046BD4602B0F6
S21401662080BDC046B8480020BC8303001D4B010056
S214016630B0840300F5ED01000300008081630100D2
S214016640B0B500AFFF23FF22FF210F20094CA04762
S214016650094B9847C8235B001800084B984700234E
S214016660002200210F20034CA047034B9847C04649
S214016670BD46B0BD4964010011650100A1D101000C
S21401668080B584B000AF78607B681B68FB60C0464D
S214016690FB689B6802221340FAD1FB681B68022242
S2140166A01A43FB681A60C046BD4604B080BD0000B0
S2140166B080B5AAB000AF154A3B1D11001800144B57
S2140166C098473B1D0222DA723B1D124A5A603B1D57
S2140166D002221A763B1D104A5A623B1D9A2201215C
S2140166E099543B1D0A221A663B1D802205219950AA
S2140166F03A1D0649094B1800094B9847074B1800E5
S214016700084B9847C046BD462AB080BD00200042CF
S214016710EDB302002EBA0000175D0000C848002045
S21401672049BA02008166010080B584B000AF786086
S214016730074B7968074898470300FB60FA68064BE1
S21401674002211800054B9847C046BD4604B080BDDF
S214016750093D03002EBA0000C848002009BF020008
S21401676090B5A9B000AF7860454B1800454B9847E7
S214016770454B01221A70454B98470220444B9847D7
S214016780444B9847444B454808220021444CA047B7
S214016790414B444812220021414CA0479F23FB183D
S2140167A000221A709E23FB1800221A709C23FB18E5
S2140167B000221A809A23FB1800221A809923FB18BC
S2140167C000221A70384B9847384B9847384B9847F1
S2140167D0C0460020374B984703001A002023134079
S2140167E0202BF6D1344B984703009422BA18136035
S2140167F09423FB181B684822BA18110018002F4B67
S21401680098474823FB181A884C23FB181A804823FC
S214016810FB185A884C23FB185A804C23FB18180087
S214016820274B984703009022BA1813609F23FB1842
S2140168301B78642B07D09F23FB189F22BA18127867
S21401684001321A7018E09F23FB1800221A70114BB0
S21401685098474823FB181B881A004823FB185B88B7
S214016860184950203818184CA0470B4B5022B8181E
S214016870082200210A4CA0473220144B9847A5E76E
S214016880D4840300F5ED010040490020B166010003
S214016890296701007D28010000000020E88403002C
S2140168A021270100F0840300F1480100595D010031
S2140168B0F55D0100415C0100B15E0100D55E01009D
S2140168C039850100F8840300116A0300A1D1010093
S2140168D080B582B000AF7860084A7B681000190066
S2140168E014231A00064B9847064B02221A70064BD1
S2140168F000221A70C046BD4602B080BD1C49002069
S2140169001D670300404900202206002080B500AF25
S214016910024B1B781800BD4680BDC04622060020EB
S21401692080B500AF014B1800BD4680BD0849002068
S21401693090B583B000AF040008001100FB1D221CB7
S2140169401A70BB1D021C1A707B1D0A1C1A70084B9C
S214016950FA1D12781A70074BBA1D12781A70064B78
S2140169607A1D12781A70C046BD4603B090BDC04667
S214016970210600202C0000202D00002080B500AF4D
S214016980BFF34F8F024B034ADA60BFF34F8FFEE728
S21401699000ED00E00400FA0580B584B000AF020007
S2140169A0FB1D1A700F23FB18FA1D1278D2091A70F4
S2140169B00E23FB18FA1D127852091A700D4BBB6094
S2140169C00F23FB181B78002B0FD10F23FB181B7806
S2140169D09B0010229446BC446344083B1A680E236D
S2140169E0FB181B78DB01D31800E000231800BD4616
S2140169F004B080BD0044004180B500AF024B98470B
S214016A00C046BD4680BDC0467D69010080B582B0E6
S214016A1000AF0200FB1D1A70FB1D1B781800034B0C
S214016A20984703001800BD4602B080BD9969010071
S214016A3080B584B000AF0200FB1D1A70BB1D0A1C96
S214016A401A70FB1D1B7818000D4B98470300FB605E
S214016A50FB1D1B781F22134001229A401300BB60C6
S214016A60BB1D1B78002B03D0FB68BA689A6102E055
S214016A70FB68BA685A61C046BD4604B080BDC046D0
S214016A800D6A010080B500AF024B00221A70C046A5
S214016A90BD4680BD3D06002080B582B000AF020035
S214016AA0FB1D1A70FB1D1B785BB2DB435BB2064A0B
S214016AB0127852B213405BB2DAB2034B1A70C04678
S214016AC0BD4602B080BDC0463D06002080B582B0FE
S214016AD000AF0200FB1D1A70054B1A78FB1D1B78D0
S214016AE01343DAB2024B1A70C046BD4602B080BDEF
S214016AF03D06002080B582B000AF0200FB1D1A7073
S214016B00064B1B78FA1D12781340DBB25A1E9341CE
S214016B10DBB21800BD4602B080BDC0463D0600206F
S214016B2090B585B000AF786039607B68002B02D0E5
S214016B303B68002B01D1002313E00F23FC183968B2
S214016B400A4B002218000A4B984703002370074B94
S214016B501800084B98470F23FB181B785A425341DD
S214016B60DBB21800BD4605B090BDC04670080020D7
S214016B701DEB02001DF5020080B59EB000AFF86067
S214016B80B960FB1D1A707623FB1801221A80742344
S214016B90FB1800221A806E23FB1800221A8072232B
S214016BA0FB1800221A802423FB18180041231A0020
S214016BB00021924B98471823FB18180009231A0046
S214016BC000218E4B98471423FB1800221A600023DD
S214016BD0BB667123FB1800221A70BB68002B01D11B
S214016BE0002306E1BA68FB6811001800844B984739
S214016BF003001A0001235340DBB2002B01D001230E
S214016C00F7E0BB6818007F4B98470300402B01D97B
S214016C100023EEE0BB682E2118007B4B984703004B
S214016C20BB66BB6E002B52D0BB6E1800754B9847E7
S214016C3002006E23FB181A806E23FB181B88072B95
S214016C4037D87123FB1801221A70BA6E1823FB1865
S214016C50110018006D4B9847BB681800694B9847A0
S214016C6002006E23FB181B88D31A3C2B11D9742300
S214016C70FB186E22BA1812883C218A1A1A807423CD
S214016C80FB181A88B9682423FB181800604B98472C
S214016C902AE0BA6EBB68D21A7423FB181A807423D2
S214016CA0FB181A88B9682423FB181800584B984714
S214016CB01AE07423FB183C221A807423FB181A88E6
S214016CC0B9682423FB181800514B98470CE074232D
S214016CD0FB183C221A807423FB181A88B9682423EF
S214016CE0FB1818004A4B98477423FB181B8874221C
S214016CF0BA18591C11801A002423FB182D21995407
S214016D007623FB1800221A807223FB1801221A80B0
S214016D1010E07223FA187223FB181B88191C8900CD
S214016D20CB18DB1813807623FB181A887623FB18FA
S214016D3001321A807623FB181B88022BE9D97623A9
S214016D40FB1801221A804BE07623FB181A8831497A
S214016D501423FB181800304B98477423FB181B8824
S214016D602422BA18D3181422B91803221800284B63
S214016D7098477123FB181B78002B0CD07423FB1843
S214016D801B8803332422BA18D3181822BA18110004
S214016D9018001E4B98472423FA18FB6811001800A8
S214016DA0174B984703001A0001235340DBB2002B10
S214016DB00FD0FB1D1A78BB68002118000F4B9847AF
S214016DC02423FA18BB6811001800104B98470123BA
S214016DD00FE07623FB181A887623FB1801321A80F7
S214016DE07623FA187223FB1812881B889A42ABD3B3
S214016DF000231800BD461EB080BDC0465367030081
S214016E00216B01000B6B0300656B0300BF6A030077
S214016E103B6B030014850300116A030090B583B031
S214016E2002AF0120224B984703001A00012353406A
S214016E30DBB2002B05D01F4B190001201E4B9847D3
S214016E4032E002201A4B984703001A0001235340F0
S214016E50DBB2002B05D0194B19000120164B9847C1
S214016E6022E00420124B9847031E05D0144B19004C
S214016E700120114B984717E008200D4B9847031E39
S214016E8005D0104B190001200B4B98470CE00E4B18
S214016E9019000120084B98470C490D480023009320
S214016EA0002301220B4CA047BD4601B090BDC04651
S214016EB0F56A01001C850300E1EE01004885030028
S214016EC074850300A0850300CC850300F8850300C4
S214016ED09C49002071210300B0B586B000AF7860F0
S214016EE039607B68002B02D03B68002B05D1584BDC
S214016EF019000120574B9847A6E00820564B9847A3
S214016F0003001A0001235340DBB2002B55D00023A7
S214016F107B61524B30221A70504B3A225A70504BBA
S214016F207B6102E07B69013B7B617B691B782F2BD0
S214016F30F8D17B6918004B4B98470300012B24D9E5
S214016F407B6901337B617A69474B11001800474B17
S214016F5098474249464B40221800464B98473F4ABD
S214016F60454B190001203B4B98471323FC183B491E
S214016F703F4B0A221800414B984703002370132306
S214016F80FB181B78002B12D008E03D4B190001209E
S214016F90304B984720203B4B984755E01323FB186E
S214016FA01A78394B190001202A4B98474CE0374B89
S214016FB000221A600820334B98477B68002B43D089
S214016FC00023FB601323FC180C23FB183A6879682E
S214016FD027482F4DA847030023701323FB181B785F
S214016FE0002B0CD0224B18002A4B98472020254B0B
S214016FF09847294B19000120164B984724E0234B4C
S2140170001A68FB68D218214B1A60204B1A68234B6A
S2140170101B68234901200F4CA0471C4B1A681F4BC5
S2140170201B689A4210D3124B18001A4B98471D4BF7
S21401703019000120074B9847002117201A4B984743
S2140170401020104B9847C046BD4606B0B0BDC0469E
S21401705018860300E1EE0100F56A0100B400002085
S214017060178603000B6B0300B6000020BF6A0300FF
S21401707070080020796B01007C8603001DEB02007E
S2140170803C860300CD6A0100A48603009808002010
S2140170904DF002001DF50200D8860300940800207A
S2140170A01487030048870300316A010090B585B054
S2140170B000AFF860B9607A60BB68042B00D977E04E
S2140170C0BB689A003C4BD3181B689F463B4B190084
S2140170D001203B4B98476BE03A4B19000120384B97
S2140170E098470420384B984762E07B681B881A0053
S2140170F07B685B6835490120314CA0477B681B885B
S214017100C82B0DD17B685A68314B1A60314B00226F
S2140171101A607B685A6880239B009A4243D803E032
S2140171202020294B984743E07B689A687B685B6818
S21401713019001000284B98471020234B984732E03F
S2140171407B685A687B681B6819001000224B9847B9
S2140171507B681B7A002B28D010201B4B984724E015
S2140171607B681A681D4B19000120154B98477B68F0
S2140171701B680B331BD10820194B9847031E06D0FA
S214017180184B1800184B98470820184B98470420AE
S214017190134B9847031E02D00420144B9847144BF8
S2140171A09847C04603E0C04602E0C04600E0C0463D
S2140171B0BD4605B090BDC046C08E03007C87030067
S2140171C0E1EE0100B4870300CD6A0100E087030009
S2140171D09408002098080020D96E01001C8803003E
S2140171E0F56A0100700800201DF50200996A010089
S2140171F01D6E010080B582B000AF3A60FB1D021C17
S2140172001A70BB1D0A1C1A703A68BB1D1978FB1D43
S2140172101B785BB21800034B9847C046BD4602B0C8
S21401722080BDC046811E0300B0B586B004AF78604D
S21401723039603B68FF2213401C003B681B0A1A009A
S214017240FF2313403A68120C1100FF220A403968E6
S214017250090E0D00786809490295019200932300F2
S21401726002000120064CA0473A687B68110018000E
S214017270044B9847C046BD4602B0B0BD4C880300DB
S214017280E1EE0100E51F030090B587B002AF0200F2
S2140172903960FB1D1A70FB1D1B782C2B02D0322B7C
S2140172A03DD06FE03B68FB60FB681B78012B07D184
S2140172B0364B19000120364B9847364B98475EE00F
S2140172C0FB681B78002B5AD1334B19000120304B39
S2140172D098470220314B98470820314B9847031EA8
S2140172E006D0304B1800304B984708202B4B984758
S2140172F004202B4B9847031E02D00420274B9847A7
S2140173002A4B012118002A4B98472A4A2A48FF236C
S2140173100093130002220221284CA0472FE03B686D
S214017320BB60BB681B781800BB6801331B781C0068
S214017330BB6802331B781A00BB6803331B782049ED
S21401734001930092230002000120114CA047022065
S2140173501C4B98471C4B1B78012B02D11B4B9847A3
S2140173600FE01B4A114B110018001A4B9847031ED9
S21401737007D0194B19000120054B984701E0C0467C
S21401738000E0C046C046BD4605B090BD7C880300FF
S214017390E1EE0100253502009C880300996A010090
S2140173A0F56A0100700800201DF502009C08002007
S2140173B02D0B0300C0880300CC8803005130020067
S2140173C0D0880300CD6A01003C0600201D6E010036
S2140173D000850300F9090300F888030090B583B01F
S2140173E000AF294B9847294B19000120284B984795
S2140173F0FC1D0020274B984703002370FB1D1B78BC
S214017400012B10D1244B19000120214B9847234B07
S214017410190001201E4B9847C0460020204B984774
S2140174200300022BF9D1FB1D1B78002BE0D11D4B6D
S21401743019000120164B98478C239A001A4B0021FD
S21401744018001A4B9847BC1D174B19000020184B03
S214017450984703002370BB1D1B780B2B07D1BB1D60
S2140174601A78144B19000120094B984708E0124B73
S21401747019000120064B98470120104B9847C0463B
S214017480BD4603B090BDC046F9FC01001C8903004F
S214017490E1EE0100D5010200548903007C89030056
S2140174A049FD0100B0890300400600205367030030
S2140174B0C5EA0200D4890300048A0300CD6A0100EC
S2140174C080B582B000AF3B1D1800084B98473A1DA7
S2140174D0074B11001800074B9847054B1800064B41
S2140174E09847C046BD4602B080BDC046153603006B
S2140174F044490020393603002537030080B588B09B
S21401750000AF3B001800124B98473B0080229200C8
S2140175101A613B000F4A5A603A000F4B11001800DF
S2140175200E4B98470300FB61FB69002B06DAFA69EC
S2140175300B4B190001200B4B9847FEE70A4A064BF6
S21401754011001800094B9847C046BD4608B080BDDB
S214017550A91C0300444900209C490020F51C030097
S214017560288A0300E1EE0100AD700100E11D030071
S21401757080B582B000AF3A60FB1D021C1A70BB1DBD
S2140175800A1C1A703A68BB1D1978FB1D1B785BB282
S2140175901800034B9847C046BD4602B080BDC046A2
S2140175A0A109030080B582B000AF786039603A68FF
S2140175B07B6811001800034B9847C046BD4602B0D1
S2140175C080BDC046D509030090B589B002AF78608A
S2140175D01023FB1800221A701023FB1800225A7081
S2140175E01023FB1800229A707B685B685A687B68D8
S2140175F05B689B682A4901202A4CA0477B681B6868
S2140176009B68294904221800284B9847031E43D13A
S2140176107B681B689B680433FB6000237B6115E075
S2140176207C69631C7B61FB680C22B9180A2218006E
S2140176301F4B98470300DAB21023FB181A55FB6854
S2140176401B782C2B0AD1FB680133FB607B69022B6C
S21401765005DCFB681B78002BE2D100E0C046102356
S214017660FB181B781A001023FB185B7818001023F0
S214017670FB189B780F49009303000120094CA04793
S2140176801023FB1818781023FB1859781023FB18C1
S2140176909B781A00084B9847C046BD4607B090BD78
S2140176A0708A0300E1EE0100788A0300196B03007B
S2140176B0C56C0300808A03003169010090B58BB068
S2140176C000AF78600C23FB181422FF211800484BEA
S2140176D098477B681B689B68464909221800464BF9
S2140176E09847031E66D1454B19000120444B984725
S2140176F07B685B685A687B685B689B6841490120C8
S2140177003F4CA0477B681B68DA687B681B689B68F0
S2140177103D4901203A4CA04700237B627B681B68E9
S2140177209B680933BB6015E07C6A631C7B62BB689F
S2140177300822B9180A221800344B98470300DAB217
S2140177400C23FB181A55BB681B782C2B0AD1BB6877
S2140177500133BB607B6A132B05DCBB681B78002BEF
S214017760E2D100E0C0462A4B19000120244B98477D
S21401777000233B620DE00C23FA183B6AD3181B78F2
S2140177801A00244B190001201D4B98473B6A013310
S2140177903B623B6A132BEEDD0C23FB1818001E4BD5
S2140177A098470300012B1ED11C4B19000120144BD6
S2140177B0984718E01A4B19000120114B98477B682F
S2140177C05B685A687B685B689B680E4901200C4CB5
S2140177D0A0477B681B68DA687B681B689B680A4958
S2140177E00120074CA047C046BD460BB090BDC04621
S2140177F053670300948A0300196B0300A08A0300F1
S214017800E1EE0100708A0300BC8A0300C56C030028
S214017810C48A0300D88A0300BD430100DC8A030042
S214017820F88A030090B583B000AF78607B685B6828
S2140178305A687B685B689B6821490120214CA047F8
S214017840214B190001201F4B98477B681B68DA689B
S2140178507B681B689B681D4901201A4CA0477B6802
S2140178605B6898687B681B68DA68194B1900194BC6
S2140178709847031E20D17B681B6898687B681B6845
S214017880DA68154B1900134B9847031E04D10121E2
S2140178901720124B98470FE07B681B6898687B6837
S2140178A01B68DA680E4B19000A4B9847031E03D172
S2140178B000211720094B9847C046BD4603B090BD2E
S2140178C0708A0300E1EE0100288B0300BC8A0300E6
